Archive member included to satisfy reference by file (symbol)

e:/program files (x86)/stm32cubeide_1.10.0/stm32cubeide/plugins/com.st.stm32cube.ide.mcu.externaltools.gnu-tools-for-stm32.10.3-2021.10.win32_1.0.0.202111181127/tools/bin/../lib/gcc/arm-none-eabi/10.3.1/../../../../arm-none-eabi/lib/thumb/v7e-m+fp/hard\libc_nano.a(lib_a-errno.o)
                              ./Core/Src/syscalls.o (__errno)
e:/program files (x86)/stm32cubeide_1.10.0/stm32cubeide/plugins/com.st.stm32cube.ide.mcu.externaltools.gnu-tools-for-stm32.10.3-2021.10.win32_1.0.0.202111181127/tools/bin/../lib/gcc/arm-none-eabi/10.3.1/../../../../arm-none-eabi/lib/thumb/v7e-m+fp/hard\libc_nano.a(lib_a-exit.o)
                              e:/program files (x86)/stm32cubeide_1.10.0/stm32cubeide/plugins/com.st.stm32cube.ide.mcu.externaltools.gnu-tools-for-stm32.10.3-2021.10.win32_1.0.0.202111181127/tools/bin/../lib/gcc/arm-none-eabi/10.3.1/../../../../arm-none-eabi/lib/thumb/v7e-m+fp/hard/crt0.o (exit)
e:/program files (x86)/stm32cubeide_1.10.0/stm32cubeide/plugins/com.st.stm32cube.ide.mcu.externaltools.gnu-tools-for-stm32.10.3-2021.10.win32_1.0.0.202111181127/tools/bin/../lib/gcc/arm-none-eabi/10.3.1/../../../../arm-none-eabi/lib/thumb/v7e-m+fp/hard\libc_nano.a(lib_a-findfp.o)
                              ./Middlewares/Third_Party/FreeRTOS/Source/tasks.o (__sf_fake_stderr)
e:/program files (x86)/stm32cubeide_1.10.0/stm32cubeide/plugins/com.st.stm32cube.ide.mcu.externaltools.gnu-tools-for-stm32.10.3-2021.10.win32_1.0.0.202111181127/tools/bin/../lib/gcc/arm-none-eabi/10.3.1/../../../../arm-none-eabi/lib/thumb/v7e-m+fp/hard\libc_nano.a(lib_a-fwalk.o)
                              e:/program files (x86)/stm32cubeide_1.10.0/stm32cubeide/plugins/com.st.stm32cube.ide.mcu.externaltools.gnu-tools-for-stm32.10.3-2021.10.win32_1.0.0.202111181127/tools/bin/../lib/gcc/arm-none-eabi/10.3.1/../../../../arm-none-eabi/lib/thumb/v7e-m+fp/hard\libc_nano.a(lib_a-findfp.o) (_fwalk)
e:/program files (x86)/stm32cubeide_1.10.0/stm32cubeide/plugins/com.st.stm32cube.ide.mcu.externaltools.gnu-tools-for-stm32.10.3-2021.10.win32_1.0.0.202111181127/tools/bin/../lib/gcc/arm-none-eabi/10.3.1/../../../../arm-none-eabi/lib/thumb/v7e-m+fp/hard\libc_nano.a(lib_a-impure.o)
                              e:/program files (x86)/stm32cubeide_1.10.0/stm32cubeide/plugins/com.st.stm32cube.ide.mcu.externaltools.gnu-tools-for-stm32.10.3-2021.10.win32_1.0.0.202111181127/tools/bin/../lib/gcc/arm-none-eabi/10.3.1/../../../../arm-none-eabi/lib/thumb/v7e-m+fp/hard\libc_nano.a(lib_a-exit.o) (_global_impure_ptr)
e:/program files (x86)/stm32cubeide_1.10.0/stm32cubeide/plugins/com.st.stm32cube.ide.mcu.externaltools.gnu-tools-for-stm32.10.3-2021.10.win32_1.0.0.202111181127/tools/bin/../lib/gcc/arm-none-eabi/10.3.1/../../../../arm-none-eabi/lib/thumb/v7e-m+fp/hard\libc_nano.a(lib_a-init.o)
                              e:/program files (x86)/stm32cubeide_1.10.0/stm32cubeide/plugins/com.st.stm32cube.ide.mcu.externaltools.gnu-tools-for-stm32.10.3-2021.10.win32_1.0.0.202111181127/tools/bin/../lib/gcc/arm-none-eabi/10.3.1/../../../../arm-none-eabi/lib/thumb/v7e-m+fp/hard/crt0.o (__libc_init_array)
e:/program files (x86)/stm32cubeide_1.10.0/stm32cubeide/plugins/com.st.stm32cube.ide.mcu.externaltools.gnu-tools-for-stm32.10.3-2021.10.win32_1.0.0.202111181127/tools/bin/../lib/gcc/arm-none-eabi/10.3.1/../../../../arm-none-eabi/lib/thumb/v7e-m+fp/hard\libc_nano.a(lib_a-lock.o)
                              e:/program files (x86)/stm32cubeide_1.10.0/stm32cubeide/plugins/com.st.stm32cube.ide.mcu.externaltools.gnu-tools-for-stm32.10.3-2021.10.win32_1.0.0.202111181127/tools/bin/../lib/gcc/arm-none-eabi/10.3.1/../../../../arm-none-eabi/lib/thumb/v7e-m+fp/hard\libc_nano.a(lib_a-findfp.o) (__retarget_lock_init_recursive)
e:/program files (x86)/stm32cubeide_1.10.0/stm32cubeide/plugins/com.st.stm32cube.ide.mcu.externaltools.gnu-tools-for-stm32.10.3-2021.10.win32_1.0.0.202111181127/tools/bin/../lib/gcc/arm-none-eabi/10.3.1/../../../../arm-none-eabi/lib/thumb/v7e-m+fp/hard\libc_nano.a(lib_a-memcpy-stub.o)
                              ./Middlewares/Third_Party/FreeRTOS/Source/queue.o (memcpy)
e:/program files (x86)/stm32cubeide_1.10.0/stm32cubeide/plugins/com.st.stm32cube.ide.mcu.externaltools.gnu-tools-for-stm32.10.3-2021.10.win32_1.0.0.202111181127/tools/bin/../lib/gcc/arm-none-eabi/10.3.1/../../../../arm-none-eabi/lib/thumb/v7e-m+fp/hard\libc_nano.a(lib_a-memset.o)
                              e:/program files (x86)/stm32cubeide_1.10.0/stm32cubeide/plugins/com.st.stm32cube.ide.mcu.externaltools.gnu-tools-for-stm32.10.3-2021.10.win32_1.0.0.202111181127/tools/bin/../lib/gcc/arm-none-eabi/10.3.1/../../../../arm-none-eabi/lib/thumb/v7e-m+fp/hard/crt0.o (memset)
e:/program files (x86)/stm32cubeide_1.10.0/stm32cubeide/plugins/com.st.stm32cube.ide.mcu.externaltools.gnu-tools-for-stm32.10.3-2021.10.win32_1.0.0.202111181127/tools/bin/../lib/gcc/arm-none-eabi/10.3.1/../../../../arm-none-eabi/lib/thumb/v7e-m+fp/hard\libc_nano.a(lib_a-nano-mallocr.o)
                              e:/program files (x86)/stm32cubeide_1.10.0/stm32cubeide/plugins/com.st.stm32cube.ide.mcu.externaltools.gnu-tools-for-stm32.10.3-2021.10.win32_1.0.0.202111181127/tools/bin/../lib/gcc/arm-none-eabi/10.3.1/../../../../arm-none-eabi/lib/thumb/v7e-m+fp/hard\libc_nano.a(lib_a-findfp.o) (_malloc_r)
e:/program files (x86)/stm32cubeide_1.10.0/stm32cubeide/plugins/com.st.stm32cube.ide.mcu.externaltools.gnu-tools-for-stm32.10.3-2021.10.win32_1.0.0.202111181127/tools/bin/../lib/gcc/arm-none-eabi/10.3.1/../../../../arm-none-eabi/lib/thumb/v7e-m+fp/hard\libc_nano.a(lib_a-reent.o)
                              ./Middlewares/Third_Party/FreeRTOS/Source/tasks.o (_reclaim_reent)
e:/program files (x86)/stm32cubeide_1.10.0/stm32cubeide/plugins/com.st.stm32cube.ide.mcu.externaltools.gnu-tools-for-stm32.10.3-2021.10.win32_1.0.0.202111181127/tools/bin/../lib/gcc/arm-none-eabi/10.3.1/../../../../arm-none-eabi/lib/thumb/v7e-m+fp/hard\libc_nano.a(lib_a-sbrkr.o)
                              e:/program files (x86)/stm32cubeide_1.10.0/stm32cubeide/plugins/com.st.stm32cube.ide.mcu.externaltools.gnu-tools-for-stm32.10.3-2021.10.win32_1.0.0.202111181127/tools/bin/../lib/gcc/arm-none-eabi/10.3.1/../../../../arm-none-eabi/lib/thumb/v7e-m+fp/hard\libc_nano.a(lib_a-nano-mallocr.o) (_sbrk_r)
e:/program files (x86)/stm32cubeide_1.10.0/stm32cubeide/plugins/com.st.stm32cube.ide.mcu.externaltools.gnu-tools-for-stm32.10.3-2021.10.win32_1.0.0.202111181127/tools/bin/../lib/gcc/arm-none-eabi/10.3.1/../../../../arm-none-eabi/lib/thumb/v7e-m+fp/hard\libc_nano.a(lib_a-sprintf.o)
                              ./Core/Src/File_Handling_RTOS.o (sprintf)
e:/program files (x86)/stm32cubeide_1.10.0/stm32cubeide/plugins/com.st.stm32cube.ide.mcu.externaltools.gnu-tools-for-stm32.10.3-2021.10.win32_1.0.0.202111181127/tools/bin/../lib/gcc/arm-none-eabi/10.3.1/../../../../arm-none-eabi/lib/thumb/v7e-m+fp/hard\libc_nano.a(lib_a-stdio.o)
                              e:/program files (x86)/stm32cubeide_1.10.0/stm32cubeide/plugins/com.st.stm32cube.ide.mcu.externaltools.gnu-tools-for-stm32.10.3-2021.10.win32_1.0.0.202111181127/tools/bin/../lib/gcc/arm-none-eabi/10.3.1/../../../../arm-none-eabi/lib/thumb/v7e-m+fp/hard\libc_nano.a(lib_a-findfp.o) (__sread)
e:/program files (x86)/stm32cubeide_1.10.0/stm32cubeide/plugins/com.st.stm32cube.ide.mcu.externaltools.gnu-tools-for-stm32.10.3-2021.10.win32_1.0.0.202111181127/tools/bin/../lib/gcc/arm-none-eabi/10.3.1/../../../../arm-none-eabi/lib/thumb/v7e-m+fp/hard\libc_nano.a(lib_a-strcmp.o)
                              ./Core/Src/File_Handling_RTOS.o (strcmp)
e:/program files (x86)/stm32cubeide_1.10.0/stm32cubeide/plugins/com.st.stm32cube.ide.mcu.externaltools.gnu-tools-for-stm32.10.3-2021.10.win32_1.0.0.202111181127/tools/bin/../lib/gcc/arm-none-eabi/10.3.1/../../../../arm-none-eabi/lib/thumb/v7e-m+fp/hard\libc_nano.a(lib_a-strlen.o)
                              ./Core/Src/File_Handling_RTOS.o (strlen)
e:/program files (x86)/stm32cubeide_1.10.0/stm32cubeide/plugins/com.st.stm32cube.ide.mcu.externaltools.gnu-tools-for-stm32.10.3-2021.10.win32_1.0.0.202111181127/tools/bin/../lib/gcc/arm-none-eabi/10.3.1/../../../../arm-none-eabi/lib/thumb/v7e-m+fp/hard\libc_nano.a(lib_a-writer.o)
                              e:/program files (x86)/stm32cubeide_1.10.0/stm32cubeide/plugins/com.st.stm32cube.ide.mcu.externaltools.gnu-tools-for-stm32.10.3-2021.10.win32_1.0.0.202111181127/tools/bin/../lib/gcc/arm-none-eabi/10.3.1/../../../../arm-none-eabi/lib/thumb/v7e-m+fp/hard\libc_nano.a(lib_a-stdio.o) (_write_r)
e:/program files (x86)/stm32cubeide_1.10.0/stm32cubeide/plugins/com.st.stm32cube.ide.mcu.externaltools.gnu-tools-for-stm32.10.3-2021.10.win32_1.0.0.202111181127/tools/bin/../lib/gcc/arm-none-eabi/10.3.1/../../../../arm-none-eabi/lib/thumb/v7e-m+fp/hard\libc_nano.a(lib_a-closer.o)
                              e:/program files (x86)/stm32cubeide_1.10.0/stm32cubeide/plugins/com.st.stm32cube.ide.mcu.externaltools.gnu-tools-for-stm32.10.3-2021.10.win32_1.0.0.202111181127/tools/bin/../lib/gcc/arm-none-eabi/10.3.1/../../../../arm-none-eabi/lib/thumb/v7e-m+fp/hard\libc_nano.a(lib_a-stdio.o) (_close_r)
e:/program files (x86)/stm32cubeide_1.10.0/stm32cubeide/plugins/com.st.stm32cube.ide.mcu.externaltools.gnu-tools-for-stm32.10.3-2021.10.win32_1.0.0.202111181127/tools/bin/../lib/gcc/arm-none-eabi/10.3.1/../../../../arm-none-eabi/lib/thumb/v7e-m+fp/hard\libc_nano.a(lib_a-fflush.o)
                              e:/program files (x86)/stm32cubeide_1.10.0/stm32cubeide/plugins/com.st.stm32cube.ide.mcu.externaltools.gnu-tools-for-stm32.10.3-2021.10.win32_1.0.0.202111181127/tools/bin/../lib/gcc/arm-none-eabi/10.3.1/../../../../arm-none-eabi/lib/thumb/v7e-m+fp/hard\libc_nano.a(lib_a-findfp.o) (_fflush_r)
e:/program files (x86)/stm32cubeide_1.10.0/stm32cubeide/plugins/com.st.stm32cube.ide.mcu.externaltools.gnu-tools-for-stm32.10.3-2021.10.win32_1.0.0.202111181127/tools/bin/../lib/gcc/arm-none-eabi/10.3.1/../../../../arm-none-eabi/lib/thumb/v7e-m+fp/hard\libc_nano.a(lib_a-lseekr.o)
                              e:/program files (x86)/stm32cubeide_1.10.0/stm32cubeide/plugins/com.st.stm32cube.ide.mcu.externaltools.gnu-tools-for-stm32.10.3-2021.10.win32_1.0.0.202111181127/tools/bin/../lib/gcc/arm-none-eabi/10.3.1/../../../../arm-none-eabi/lib/thumb/v7e-m+fp/hard\libc_nano.a(lib_a-stdio.o) (_lseek_r)
e:/program files (x86)/stm32cubeide_1.10.0/stm32cubeide/plugins/com.st.stm32cube.ide.mcu.externaltools.gnu-tools-for-stm32.10.3-2021.10.win32_1.0.0.202111181127/tools/bin/../lib/gcc/arm-none-eabi/10.3.1/../../../../arm-none-eabi/lib/thumb/v7e-m+fp/hard\libc_nano.a(lib_a-mlock.o)
                              e:/program files (x86)/stm32cubeide_1.10.0/stm32cubeide/plugins/com.st.stm32cube.ide.mcu.externaltools.gnu-tools-for-stm32.10.3-2021.10.win32_1.0.0.202111181127/tools/bin/../lib/gcc/arm-none-eabi/10.3.1/../../../../arm-none-eabi/lib/thumb/v7e-m+fp/hard\libc_nano.a(lib_a-nano-mallocr.o) (__malloc_lock)
e:/program files (x86)/stm32cubeide_1.10.0/stm32cubeide/plugins/com.st.stm32cube.ide.mcu.externaltools.gnu-tools-for-stm32.10.3-2021.10.win32_1.0.0.202111181127/tools/bin/../lib/gcc/arm-none-eabi/10.3.1/../../../../arm-none-eabi/lib/thumb/v7e-m+fp/hard\libc_nano.a(lib_a-nano-freer.o)
                              e:/program files (x86)/stm32cubeide_1.10.0/stm32cubeide/plugins/com.st.stm32cube.ide.mcu.externaltools.gnu-tools-for-stm32.10.3-2021.10.win32_1.0.0.202111181127/tools/bin/../lib/gcc/arm-none-eabi/10.3.1/../../../../arm-none-eabi/lib/thumb/v7e-m+fp/hard\libc_nano.a(lib_a-reent.o) (_free_r)
e:/program files (x86)/stm32cubeide_1.10.0/stm32cubeide/plugins/com.st.stm32cube.ide.mcu.externaltools.gnu-tools-for-stm32.10.3-2021.10.win32_1.0.0.202111181127/tools/bin/../lib/gcc/arm-none-eabi/10.3.1/../../../../arm-none-eabi/lib/thumb/v7e-m+fp/hard\libc_nano.a(lib_a-nano-svfprintf.o)
                              e:/program files (x86)/stm32cubeide_1.10.0/stm32cubeide/plugins/com.st.stm32cube.ide.mcu.externaltools.gnu-tools-for-stm32.10.3-2021.10.win32_1.0.0.202111181127/tools/bin/../lib/gcc/arm-none-eabi/10.3.1/../../../../arm-none-eabi/lib/thumb/v7e-m+fp/hard\libc_nano.a(lib_a-sprintf.o) (_svfprintf_r)
e:/program files (x86)/stm32cubeide_1.10.0/stm32cubeide/plugins/com.st.stm32cube.ide.mcu.externaltools.gnu-tools-for-stm32.10.3-2021.10.win32_1.0.0.202111181127/tools/bin/../lib/gcc/arm-none-eabi/10.3.1/../../../../arm-none-eabi/lib/thumb/v7e-m+fp/hard\libc_nano.a(lib_a-nano-vfprintf_i.o)
                              e:/program files (x86)/stm32cubeide_1.10.0/stm32cubeide/plugins/com.st.stm32cube.ide.mcu.externaltools.gnu-tools-for-stm32.10.3-2021.10.win32_1.0.0.202111181127/tools/bin/../lib/gcc/arm-none-eabi/10.3.1/../../../../arm-none-eabi/lib/thumb/v7e-m+fp/hard\libc_nano.a(lib_a-nano-svfprintf.o) (_printf_i)
e:/program files (x86)/stm32cubeide_1.10.0/stm32cubeide/plugins/com.st.stm32cube.ide.mcu.externaltools.gnu-tools-for-stm32.10.3-2021.10.win32_1.0.0.202111181127/tools/bin/../lib/gcc/arm-none-eabi/10.3.1/../../../../arm-none-eabi/lib/thumb/v7e-m+fp/hard\libc_nano.a(lib_a-readr.o)
                              e:/program files (x86)/stm32cubeide_1.10.0/stm32cubeide/plugins/com.st.stm32cube.ide.mcu.externaltools.gnu-tools-for-stm32.10.3-2021.10.win32_1.0.0.202111181127/tools/bin/../lib/gcc/arm-none-eabi/10.3.1/../../../../arm-none-eabi/lib/thumb/v7e-m+fp/hard\libc_nano.a(lib_a-stdio.o) (_read_r)
e:/program files (x86)/stm32cubeide_1.10.0/stm32cubeide/plugins/com.st.stm32cube.ide.mcu.externaltools.gnu-tools-for-stm32.10.3-2021.10.win32_1.0.0.202111181127/tools/bin/../lib/gcc/arm-none-eabi/10.3.1/../../../../arm-none-eabi/lib/thumb/v7e-m+fp/hard\libc_nano.a(lib_a-memchr.o)
                              e:/program files (x86)/stm32cubeide_1.10.0/stm32cubeide/plugins/com.st.stm32cube.ide.mcu.externaltools.gnu-tools-for-stm32.10.3-2021.10.win32_1.0.0.202111181127/tools/bin/../lib/gcc/arm-none-eabi/10.3.1/../../../../arm-none-eabi/lib/thumb/v7e-m+fp/hard\libc_nano.a(lib_a-nano-svfprintf.o) (memchr)
e:/program files (x86)/stm32cubeide_1.10.0/stm32cubeide/plugins/com.st.stm32cube.ide.mcu.externaltools.gnu-tools-for-stm32.10.3-2021.10.win32_1.0.0.202111181127/tools/bin/../lib/gcc/arm-none-eabi/10.3.1/../../../../arm-none-eabi/lib/thumb/v7e-m+fp/hard\libc_nano.a(lib_a-memmove.o)
                              e:/program files (x86)/stm32cubeide_1.10.0/stm32cubeide/plugins/com.st.stm32cube.ide.mcu.externaltools.gnu-tools-for-stm32.10.3-2021.10.win32_1.0.0.202111181127/tools/bin/../lib/gcc/arm-none-eabi/10.3.1/../../../../arm-none-eabi/lib/thumb/v7e-m+fp/hard\libc_nano.a(lib_a-nano-svfprintf.o) (memmove)
e:/program files (x86)/stm32cubeide_1.10.0/stm32cubeide/plugins/com.st.stm32cube.ide.mcu.externaltools.gnu-tools-for-stm32.10.3-2021.10.win32_1.0.0.202111181127/tools/bin/../lib/gcc/arm-none-eabi/10.3.1/../../../../arm-none-eabi/lib/thumb/v7e-m+fp/hard\libc_nano.a(lib_a-nano-reallocr.o)
                              e:/program files (x86)/stm32cubeide_1.10.0/stm32cubeide/plugins/com.st.stm32cube.ide.mcu.externaltools.gnu-tools-for-stm32.10.3-2021.10.win32_1.0.0.202111181127/tools/bin/../lib/gcc/arm-none-eabi/10.3.1/../../../../arm-none-eabi/lib/thumb/v7e-m+fp/hard\libc_nano.a(lib_a-nano-svfprintf.o) (_realloc_r)
e:/program files (x86)/stm32cubeide_1.10.0/stm32cubeide/plugins/com.st.stm32cube.ide.mcu.externaltools.gnu-tools-for-stm32.10.3-2021.10.win32_1.0.0.202111181127/tools/bin/../lib/gcc/arm-none-eabi/10.3.1/../../../../arm-none-eabi/lib/thumb/v7e-m+fp/hard\libc_nano.a(lib_a-nano-msizer.o)
                              e:/program files (x86)/stm32cubeide_1.10.0/stm32cubeide/plugins/com.st.stm32cube.ide.mcu.externaltools.gnu-tools-for-stm32.10.3-2021.10.win32_1.0.0.202111181127/tools/bin/../lib/gcc/arm-none-eabi/10.3.1/../../../../arm-none-eabi/lib/thumb/v7e-m+fp/hard\libc_nano.a(lib_a-nano-reallocr.o) (_malloc_usable_size_r)
e:/program files (x86)/stm32cubeide_1.10.0/stm32cubeide/plugins/com.st.stm32cube.ide.mcu.externaltools.gnu-tools-for-stm32.10.3-2021.10.win32_1.0.0.202111181127/tools/bin/../lib/gcc/arm-none-eabi/10.3.1/thumb/v7e-m+fp/hard\libgcc.a(_arm_muldf3.o)
                              ./Core/Src/File_Handling_RTOS.o (__aeabi_dmul)
e:/program files (x86)/stm32cubeide_1.10.0/stm32cubeide/plugins/com.st.stm32cube.ide.mcu.externaltools.gnu-tools-for-stm32.10.3-2021.10.win32_1.0.0.202111181127/tools/bin/../lib/gcc/arm-none-eabi/10.3.1/thumb/v7e-m+fp/hard\libgcc.a(_arm_addsubdf3.o)
                              ./Core/Src/File_Handling_RTOS.o (__aeabi_ui2d)
e:/program files (x86)/stm32cubeide_1.10.0/stm32cubeide/plugins/com.st.stm32cube.ide.mcu.externaltools.gnu-tools-for-stm32.10.3-2021.10.win32_1.0.0.202111181127/tools/bin/../lib/gcc/arm-none-eabi/10.3.1/thumb/v7e-m+fp/hard\libgcc.a(_arm_fixunsdfsi.o)
                              ./Core/Src/File_Handling_RTOS.o (__aeabi_d2uiz)
e:/program files (x86)/stm32cubeide_1.10.0/stm32cubeide/plugins/com.st.stm32cube.ide.mcu.externaltools.gnu-tools-for-stm32.10.3-2021.10.win32_1.0.0.202111181127/tools/bin/../lib/gcc/arm-none-eabi/10.3.1/thumb/v7e-m+fp/hard\libgcc.a(_aeabi_uldivmod.o)
                              ./Drivers/STM32F4xx_HAL_Driver/Src/stm32f4xx_hal_rcc.o (__aeabi_uldivmod)
e:/program files (x86)/stm32cubeide_1.10.0/stm32cubeide/plugins/com.st.stm32cube.ide.mcu.externaltools.gnu-tools-for-stm32.10.3-2021.10.win32_1.0.0.202111181127/tools/bin/../lib/gcc/arm-none-eabi/10.3.1/thumb/v7e-m+fp/hard\libgcc.a(_udivmoddi4.o)
                              e:/program files (x86)/stm32cubeide_1.10.0/stm32cubeide/plugins/com.st.stm32cube.ide.mcu.externaltools.gnu-tools-for-stm32.10.3-2021.10.win32_1.0.0.202111181127/tools/bin/../lib/gcc/arm-none-eabi/10.3.1/thumb/v7e-m+fp/hard\libgcc.a(_aeabi_uldivmod.o) (__udivmoddi4)
e:/program files (x86)/stm32cubeide_1.10.0/stm32cubeide/plugins/com.st.stm32cube.ide.mcu.externaltools.gnu-tools-for-stm32.10.3-2021.10.win32_1.0.0.202111181127/tools/bin/../lib/gcc/arm-none-eabi/10.3.1/thumb/v7e-m+fp/hard\libgcc.a(_dvmd_tls.o)
                              e:/program files (x86)/stm32cubeide_1.10.0/stm32cubeide/plugins/com.st.stm32cube.ide.mcu.externaltools.gnu-tools-for-stm32.10.3-2021.10.win32_1.0.0.202111181127/tools/bin/../lib/gcc/arm-none-eabi/10.3.1/thumb/v7e-m+fp/hard\libgcc.a(_aeabi_uldivmod.o) (__aeabi_ldiv0)

Discarded input sections

 .text          0x0000000000000000        0x0 e:/program files (x86)/stm32cubeide_1.10.0/stm32cubeide/plugins/com.st.stm32cube.ide.mcu.externaltools.gnu-tools-for-stm32.10.3-2021.10.win32_1.0.0.202111181127/tools/bin/../lib/gcc/arm-none-eabi/10.3.1/thumb/v7e-m+fp/hard/crti.o
 .data          0x0000000000000000        0x0 e:/program files (x86)/stm32cubeide_1.10.0/stm32cubeide/plugins/com.st.stm32cube.ide.mcu.externaltools.gnu-tools-for-stm32.10.3-2021.10.win32_1.0.0.202111181127/tools/bin/../lib/gcc/arm-none-eabi/10.3.1/thumb/v7e-m+fp/hard/crti.o
 .bss           0x0000000000000000        0x0 e:/program files (x86)/stm32cubeide_1.10.0/stm32cubeide/plugins/com.st.stm32cube.ide.mcu.externaltools.gnu-tools-for-stm32.10.3-2021.10.win32_1.0.0.202111181127/tools/bin/../lib/gcc/arm-none-eabi/10.3.1/thumb/v7e-m+fp/hard/crti.o
 .data          0x0000000000000000        0x4 e:/program files (x86)/stm32cubeide_1.10.0/stm32cubeide/plugins/com.st.stm32cube.ide.mcu.externaltools.gnu-tools-for-stm32.10.3-2021.10.win32_1.0.0.202111181127/tools/bin/../lib/gcc/arm-none-eabi/10.3.1/thumb/v7e-m+fp/hard/crtbegin.o
 .rodata        0x0000000000000000       0x24 e:/program files (x86)/stm32cubeide_1.10.0/stm32cubeide/plugins/com.st.stm32cube.ide.mcu.externaltools.gnu-tools-for-stm32.10.3-2021.10.win32_1.0.0.202111181127/tools/bin/../lib/gcc/arm-none-eabi/10.3.1/thumb/v7e-m+fp/hard/crtbegin.o
 .text          0x0000000000000000       0x7c e:/program files (x86)/stm32cubeide_1.10.0/stm32cubeide/plugins/com.st.stm32cube.ide.mcu.externaltools.gnu-tools-for-stm32.10.3-2021.10.win32_1.0.0.202111181127/tools/bin/../lib/gcc/arm-none-eabi/10.3.1/../../../../arm-none-eabi/lib/thumb/v7e-m+fp/hard/crt0.o
 .data          0x0000000000000000        0x0 e:/program files (x86)/stm32cubeide_1.10.0/stm32cubeide/plugins/com.st.stm32cube.ide.mcu.externaltools.gnu-tools-for-stm32.10.3-2021.10.win32_1.0.0.202111181127/tools/bin/../lib/gcc/arm-none-eabi/10.3.1/../../../../arm-none-eabi/lib/thumb/v7e-m+fp/hard/crt0.o
 .bss           0x0000000000000000        0x0 e:/program files (x86)/stm32cubeide_1.10.0/stm32cubeide/plugins/com.st.stm32cube.ide.mcu.externaltools.gnu-tools-for-stm32.10.3-2021.10.win32_1.0.0.202111181127/tools/bin/../lib/gcc/arm-none-eabi/10.3.1/../../../../arm-none-eabi/lib/thumb/v7e-m+fp/hard/crt0.o
 .ARM.extab     0x0000000000000000        0x0 e:/program files (x86)/stm32cubeide_1.10.0/stm32cubeide/plugins/com.st.stm32cube.ide.mcu.externaltools.gnu-tools-for-stm32.10.3-2021.10.win32_1.0.0.202111181127/tools/bin/../lib/gcc/arm-none-eabi/10.3.1/../../../../arm-none-eabi/lib/thumb/v7e-m+fp/hard/crt0.o
 .ARM.exidx     0x0000000000000000       0x10 e:/program files (x86)/stm32cubeide_1.10.0/stm32cubeide/plugins/com.st.stm32cube.ide.mcu.externaltools.gnu-tools-for-stm32.10.3-2021.10.win32_1.0.0.202111181127/tools/bin/../lib/gcc/arm-none-eabi/10.3.1/../../../../arm-none-eabi/lib/thumb/v7e-m+fp/hard/crt0.o
 .ARM.attributes
                0x0000000000000000       0x1c e:/program files (x86)/stm32cubeide_1.10.0/stm32cubeide/plugins/com.st.stm32cube.ide.mcu.externaltools.gnu-tools-for-stm32.10.3-2021.10.win32_1.0.0.202111181127/tools/bin/../lib/gcc/arm-none-eabi/10.3.1/../../../../arm-none-eabi/lib/thumb/v7e-m+fp/hard/crt0.o
 .group         0x0000000000000000        0xc ./Core/Src/File_Handling_RTOS.o
 .group         0x0000000000000000        0xc ./Core/Src/File_Handling_RTOS.o
 .group         0x0000000000000000        0xc ./Core/Src/File_Handling_RTOS.o
 .group         0x0000000000000000        0xc ./Core/Src/File_Handling_RTOS.o
 .group         0x0000000000000000        0xc ./Core/Src/File_Handling_RTOS.o
 .group         0x0000000000000000        0xc ./Core/Src/File_Handling_RTOS.o
Memory Configuration

Name             Origin             Length             Attributes
RAM              0x0000000020000000 0x0000000000020000 xrw
FLASH            0x0000000008000000 0x0000000000080000 xr
*default*        0x0000000000000000 0xffffffffffffffff

Linker script and memory map

LOAD e:/program files (x86)/stm32cubeide_1.10.0/stm32cubeide/plugins/com.st.stm32cube.ide.mcu.externaltools.gnu-tools-for-stm32.10.3-2021.10.win32_1.0.0.202111181127/tools/bin/../lib/gcc/arm-none-eabi/10.3.1/thumb/v7e-m+fp/hard/crti.o
LOAD e:/program files (x86)/stm32cubeide_1.10.0/stm32cubeide/plugins/com.st.stm32cube.ide.mcu.externaltools.gnu-tools-for-stm32.10.3-2021.10.win32_1.0.0.202111181127/tools/bin/../lib/gcc/arm-none-eabi/10.3.1/thumb/v7e-m+fp/hard/crtbegin.o
LOAD e:/program files (x86)/stm32cubeide_1.10.0/stm32cubeide/plugins/com.st.stm32cube.ide.mcu.externaltools.gnu-tools-for-stm32.10.3-2021.10.win32_1.0.0.202111181127/tools/bin/../lib/gcc/arm-none-eabi/10.3.1/../../../../arm-none-eabi/lib/thumb/v7e-m+fp/hard/crt0.o
LOAD ./Core/Src/File_Handling_RTOS.o
LOAD ./Core/Src/fatfs_sd.o
LOAD ./Core/Src/freertos.o
LOAD ./Core/Src/main.o
LOAD ./Core/Src/stm32f4xx_hal_msp.o
LOAD ./Core/Src/stm32f4xx_hal_timebase_tim.o
LOAD ./Core/Src/stm32f4xx_it.o
LOAD ./Core/Src/syscalls.o
LOAD ./Core/Src/sysmem.o
LOAD ./Core/Src/system_stm32f4xx.o
LOAD ./Core/Startup/startup_stm32f446retx.o
LOAD ./Drivers/STM32F4xx_HAL_Driver/Src/stm32f4xx_hal.o
LOAD ./Drivers/STM32F4xx_HAL_Driver/Src/stm32f4xx_hal_cortex.o
LOAD ./Drivers/STM32F4xx_HAL_Driver/Src/stm32f4xx_hal_dma.o
LOAD ./Drivers/STM32F4xx_HAL_Driver/Src/stm32f4xx_hal_dma_ex.o
LOAD ./Drivers/STM32F4xx_HAL_Driver/Src/stm32f4xx_hal_exti.o
LOAD ./Drivers/STM32F4xx_HAL_Driver/Src/stm32f4xx_hal_flash.o
LOAD ./Drivers/STM32F4xx_HAL_Driver/Src/stm32f4xx_hal_flash_ex.o
LOAD ./Drivers/STM32F4xx_HAL_Driver/Src/stm32f4xx_hal_flash_ramfunc.o
LOAD ./Drivers/STM32F4xx_HAL_Driver/Src/stm32f4xx_hal_gpio.o
LOAD ./Drivers/STM32F4xx_HAL_Driver/Src/stm32f4xx_hal_pwr.o
LOAD ./Drivers/STM32F4xx_HAL_Driver/Src/stm32f4xx_hal_pwr_ex.o
LOAD ./Drivers/STM32F4xx_HAL_Driver/Src/stm32f4xx_hal_rcc.o
LOAD ./Drivers/STM32F4xx_HAL_Driver/Src/stm32f4xx_hal_rcc_ex.o
LOAD ./Drivers/STM32F4xx_HAL_Driver/Src/stm32f4xx_hal_spi.o
LOAD ./Drivers/STM32F4xx_HAL_Driver/Src/stm32f4xx_hal_tim.o
LOAD ./Drivers/STM32F4xx_HAL_Driver/Src/stm32f4xx_hal_tim_ex.o
LOAD ./Drivers/STM32F4xx_HAL_Driver/Src/stm32f4xx_hal_uart.o
LOAD ./FATFS/App/fatfs.o
LOAD ./FATFS/Target/user_diskio.o
LOAD ./Middlewares/Third_Party/FatFs/src/diskio.o
LOAD ./Middlewares/Third_Party/FatFs/src/ff.o
LOAD ./Middlewares/Third_Party/FatFs/src/ff_gen_drv.o
LOAD ./Middlewares/Third_Party/FatFs/src/option/syscall.o
LOAD ./Middlewares/Third_Party/FreeRTOS/Source/CMSIS_RTOS/cmsis_os.o
LOAD ./Middlewares/Third_Party/FreeRTOS/Source/croutine.o
LOAD ./Middlewares/Third_Party/FreeRTOS/Source/event_groups.o
LOAD ./Middlewares/Third_Party/FreeRTOS/Source/list.o
LOAD ./Middlewares/Third_Party/FreeRTOS/Source/queue.o
LOAD ./Middlewares/Third_Party/FreeRTOS/Source/stream_buffer.o
LOAD ./Middlewares/Third_Party/FreeRTOS/Source/tasks.o
LOAD ./Middlewares/Third_Party/FreeRTOS/Source/timers.o
LOAD ./Middlewares/Third_Party/FreeRTOS/Source/portable/GCC/ARM_CM4F/port.o
LOAD ./Middlewares/Third_Party/FreeRTOS/Source/portable/MemMang/heap_4.o
START GROUP
LOAD e:/program files (x86)/stm32cubeide_1.10.0/stm32cubeide/plugins/com.st.stm32cube.ide.mcu.externaltools.gnu-tools-for-stm32.10.3-2021.10.win32_1.0.0.202111181127/tools/bin/../lib/gcc/arm-none-eabi/10.3.1/../../../../arm-none-eabi/lib/thumb/v7e-m+fp/hard\libc_nano.a
LOAD e:/program files (x86)/stm32cubeide_1.10.0/stm32cubeide/plugins/com.st.stm32cube.ide.mcu.externaltools.gnu-tools-for-stm32.10.3-2021.10.win32_1.0.0.202111181127/tools/bin/../lib/gcc/arm-none-eabi/10.3.1/../../../../arm-none-eabi/lib/thumb/v7e-m+fp/hard\libm.a
END GROUP
START GROUP
LOAD e:/program files (x86)/stm32cubeide_1.10.0/stm32cubeide/plugins/com.st.stm32cube.ide.mcu.externaltools.gnu-tools-for-stm32.10.3-2021.10.win32_1.0.0.202111181127/tools/bin/../lib/gcc/arm-none-eabi/10.3.1/thumb/v7e-m+fp/hard\libgcc.a
LOAD e:/program files (x86)/stm32cubeide_1.10.0/stm32cubeide/plugins/com.st.stm32cube.ide.mcu.externaltools.gnu-tools-for-stm32.10.3-2021.10.win32_1.0.0.202111181127/tools/bin/../lib/gcc/arm-none-eabi/10.3.1/../../../../arm-none-eabi/lib/thumb/v7e-m+fp/hard\libc_nano.a
END GROUP
START GROUP
LOAD e:/program files (x86)/stm32cubeide_1.10.0/stm32cubeide/plugins/com.st.stm32cube.ide.mcu.externaltools.gnu-tools-for-stm32.10.3-2021.10.win32_1.0.0.202111181127/tools/bin/../lib/gcc/arm-none-eabi/10.3.1/thumb/v7e-m+fp/hard\libgcc.a
LOAD e:/program files (x86)/stm32cubeide_1.10.0/stm32cubeide/plugins/com.st.stm32cube.ide.mcu.externaltools.gnu-tools-for-stm32.10.3-2021.10.win32_1.0.0.202111181127/tools/bin/../lib/gcc/arm-none-eabi/10.3.1/../../../../arm-none-eabi/lib/thumb/v7e-m+fp/hard\libc_nano.a
LOAD e:/program files (x86)/stm32cubeide_1.10.0/stm32cubeide/plugins/com.st.stm32cube.ide.mcu.externaltools.gnu-tools-for-stm32.10.3-2021.10.win32_1.0.0.202111181127/tools/bin/../lib/gcc/arm-none-eabi/10.3.1/../../../../arm-none-eabi/lib/thumb/v7e-m+fp/hard\libnosys.a
END GROUP
START GROUP
LOAD e:/program files (x86)/stm32cubeide_1.10.0/stm32cubeide/plugins/com.st.stm32cube.ide.mcu.externaltools.gnu-tools-for-stm32.10.3-2021.10.win32_1.0.0.202111181127/tools/bin/../lib/gcc/arm-none-eabi/10.3.1/thumb/v7e-m+fp/hard\libgcc.a
LOAD e:/program files (x86)/stm32cubeide_1.10.0/stm32cubeide/plugins/com.st.stm32cube.ide.mcu.externaltools.gnu-tools-for-stm32.10.3-2021.10.win32_1.0.0.202111181127/tools/bin/../lib/gcc/arm-none-eabi/10.3.1/../../../../arm-none-eabi/lib/thumb/v7e-m+fp/hard\libc_nano.a
LOAD e:/program files (x86)/stm32cubeide_1.10.0/stm32cubeide/plugins/com.st.stm32cube.ide.mcu.externaltools.gnu-tools-for-stm32.10.3-2021.10.win32_1.0.0.202111181127/tools/bin/../lib/gcc/arm-none-eabi/10.3.1/../../../../arm-none-eabi/lib/thumb/v7e-m+fp/hard\libnosys.a
END GROUP
LOAD e:/program files (x86)/stm32cubeide_1.10.0/stm32cubeide/plugins/com.st.stm32cube.ide.mcu.externaltools.gnu-tools-for-stm32.10.3-2021.10.win32_1.0.0.202111181127/tools/bin/../lib/gcc/arm-none-eabi/10.3.1/thumb/v7e-m+fp/hard/crtend.o
LOAD e:/program files (x86)/stm32cubeide_1.10.0/stm32cubeide/plugins/com.st.stm32cube.ide.mcu.externaltools.gnu-tools-for-stm32.10.3-2021.10.win32_1.0.0.202111181127/tools/bin/../lib/gcc/arm-none-eabi/10.3.1/thumb/v7e-m+fp/hard/crtn.o
                0x0000000020020000                _estack = (ORIGIN (RAM) + LENGTH (RAM))
                0x0000000000000200                _Min_Heap_Size = 0x200
                0x0000000000000400                _Min_Stack_Size = 0x400

.isr_vector     0x0000000008000000      0x1c4
                0x0000000008000000                . = ALIGN (0x4)
 *(.isr_vector)
 .isr_vector    0x0000000008000000      0x1c4 ./Core/Startup/startup_stm32f446retx.o
                0x0000000008000000                g_pfnVectors
                0x00000000080001c4                . = ALIGN (0x4)

.text           0x00000000080001d0     0xa6e8
                0x00000000080001d0                . = ALIGN (0x4)
 *(.text)
 .text          0x00000000080001d0       0x40 e:/program files (x86)/stm32cubeide_1.10.0/stm32cubeide/plugins/com.st.stm32cube.ide.mcu.externaltools.gnu-tools-for-stm32.10.3-2021.10.win32_1.0.0.202111181127/tools/bin/../lib/gcc/arm-none-eabi/10.3.1/thumb/v7e-m+fp/hard/crtbegin.o
 .text          0x0000000008000210       0x14 e:/program files (x86)/stm32cubeide_1.10.0/stm32cubeide/plugins/com.st.stm32cube.ide.mcu.externaltools.gnu-tools-for-stm32.10.3-2021.10.win32_1.0.0.202111181127/tools/bin/../lib/gcc/arm-none-eabi/10.3.1/../../../../arm-none-eabi/lib/thumb/v7e-m+fp/hard\libc_nano.a(lib_a-strcmp.o)
                0x0000000008000210                strcmp
 .text          0x0000000008000224       0x10 e:/program files (x86)/stm32cubeide_1.10.0/stm32cubeide/plugins/com.st.stm32cube.ide.mcu.externaltools.gnu-tools-for-stm32.10.3-2021.10.win32_1.0.0.202111181127/tools/bin/../lib/gcc/arm-none-eabi/10.3.1/../../../../arm-none-eabi/lib/thumb/v7e-m+fp/hard\libc_nano.a(lib_a-strlen.o)
                0x0000000008000224                strlen
 *fill*         0x0000000008000234        0xc 
 .text          0x0000000008000240       0xa0 e:/program files (x86)/stm32cubeide_1.10.0/stm32cubeide/plugins/com.st.stm32cube.ide.mcu.externaltools.gnu-tools-for-stm32.10.3-2021.10.win32_1.0.0.202111181127/tools/bin/../lib/gcc/arm-none-eabi/10.3.1/../../../../arm-none-eabi/lib/thumb/v7e-m+fp/hard\libc_nano.a(lib_a-memchr.o)
                0x0000000008000240                memchr
 .text          0x00000000080002e0      0x254 e:/program files (x86)/stm32cubeide_1.10.0/stm32cubeide/plugins/com.st.stm32cube.ide.mcu.externaltools.gnu-tools-for-stm32.10.3-2021.10.win32_1.0.0.202111181127/tools/bin/../lib/gcc/arm-none-eabi/10.3.1/thumb/v7e-m+fp/hard\libgcc.a(_arm_muldf3.o)
                0x00000000080002e0                __muldf3
                0x00000000080002e0                __aeabi_dmul
 .text          0x0000000008000534      0x378 e:/program files (x86)/stm32cubeide_1.10.0/stm32cubeide/plugins/com.st.stm32cube.ide.mcu.externaltools.gnu-tools-for-stm32.10.3-2021.10.win32_1.0.0.202111181127/tools/bin/../lib/gcc/arm-none-eabi/10.3.1/thumb/v7e-m+fp/hard\libgcc.a(_arm_addsubdf3.o)
                0x0000000008000534                __aeabi_drsub
                0x000000000800053c                __aeabi_dsub
                0x000000000800053c                __subdf3
                0x0000000008000540                __aeabi_dadd
                0x0000000008000540                __adddf3
                0x00000000080007b8                __floatunsidf
                0x00000000080007b8                __aeabi_ui2d
                0x00000000080007d8                __floatsidf
                0x00000000080007d8                __aeabi_i2d
                0x00000000080007fc                __aeabi_f2d
                0x00000000080007fc                __extendsfdf2
                0x0000000008000840                __floatundidf
                0x0000000008000840                __aeabi_ul2d
                0x0000000008000850                __floatdidf
                0x0000000008000850                __aeabi_l2d
 .text          0x00000000080008ac       0x40 e:/program files (x86)/stm32cubeide_1.10.0/stm32cubeide/plugins/com.st.stm32cube.ide.mcu.externaltools.gnu-tools-for-stm32.10.3-2021.10.win32_1.0.0.202111181127/tools/bin/../lib/gcc/arm-none-eabi/10.3.1/thumb/v7e-m+fp/hard\libgcc.a(_arm_fixunsdfsi.o)
                0x00000000080008ac                __aeabi_d2uiz
                0x00000000080008ac                __fixunsdfsi
 .text          0x00000000080008ec       0x30 e:/program files (x86)/stm32cubeide_1.10.0/stm32cubeide/plugins/com.st.stm32cube.ide.mcu.externaltools.gnu-tools-for-stm32.10.3-2021.10.win32_1.0.0.202111181127/tools/bin/../lib/gcc/arm-none-eabi/10.3.1/thumb/v7e-m+fp/hard\libgcc.a(_aeabi_uldivmod.o)
                0x00000000080008ec                __aeabi_uldivmod
 .text          0x000000000800091c      0x2d0 e:/program files (x86)/stm32cubeide_1.10.0/stm32cubeide/plugins/com.st.stm32cube.ide.mcu.externaltools.gnu-tools-for-stm32.10.3-2021.10.win32_1.0.0.202111181127/tools/bin/../lib/gcc/arm-none-eabi/10.3.1/thumb/v7e-m+fp/hard\libgcc.a(_udivmoddi4.o)
                0x000000000800091c                __udivmoddi4
 .text          0x0000000008000bec        0x4 e:/program files (x86)/stm32cubeide_1.10.0/stm32cubeide/plugins/com.st.stm32cube.ide.mcu.externaltools.gnu-tools-for-stm32.10.3-2021.10.win32_1.0.0.202111181127/tools/bin/../lib/gcc/arm-none-eabi/10.3.1/thumb/v7e-m+fp/hard\libgcc.a(_dvmd_tls.o)
                0x0000000008000bec                __aeabi_idiv0
                0x0000000008000bec                __aeabi_ldiv0
 *(.text*)
 .text.Send_Uart
                0x0000000008000bf0       0x2c ./Core/Src/File_Handling_RTOS.o
                0x0000000008000bf0                Send_Uart
 .text.Mount_SD
                0x0000000008000c1c       0x48 ./Core/Src/File_Handling_RTOS.o
                0x0000000008000c1c                Mount_SD
 .text.Unmount_SD
                0x0000000008000c64       0x44 ./Core/Src/File_Handling_RTOS.o
                0x0000000008000c64                Unmount_SD
 .text.Format_SD
                0x0000000008000ca8       0xcc ./Core/Src/File_Handling_RTOS.o
                0x0000000008000ca8                Format_SD
 .text.Create_File
                0x0000000008000d74      0x12c ./Core/Src/File_Handling_RTOS.o
                0x0000000008000d74                Create_File
 .text.Update_File
                0x0000000008000ea0      0x180 ./Core/Src/File_Handling_RTOS.o
                0x0000000008000ea0                Update_File
 .text.Check_SD_Space
                0x0000000008001020       0xe4 ./Core/Src/File_Handling_RTOS.o
                0x0000000008001020                Check_SD_Space
 .text.SELECT   0x0000000008001104       0x18 ./Core/Src/fatfs_sd.o
 .text.DESELECT
                0x000000000800111c       0x18 ./Core/Src/fatfs_sd.o
 .text.SPI_TxByte
                0x0000000008001134       0x34 ./Core/Src/fatfs_sd.o
 .text.SPI_RxByte
                0x0000000008001168       0x3c ./Core/Src/fatfs_sd.o
 .text.SPI_RxBytePtr
                0x00000000080011a4       0x1c ./Core/Src/fatfs_sd.o
 .text.SD_ReadyWait
                0x00000000080011c0       0x38 ./Core/Src/fatfs_sd.o
 .text.SD_PowerOn
                0x00000000080011f8       0x98 ./Core/Src/fatfs_sd.o
 .text.SD_PowerOff
                0x0000000008001290       0x18 ./Core/Src/fatfs_sd.o
 .text.SD_CheckPower
                0x00000000080012a8       0x18 ./Core/Src/fatfs_sd.o
 .text.SD_RxDataBlock
                0x00000000080012c0       0x6c ./Core/Src/fatfs_sd.o
 .text.SD_TxDataBlock
                0x000000000800132c       0xa8 ./Core/Src/fatfs_sd.o
 .text.SD_SendCmd
                0x00000000080013d4       0xa4 ./Core/Src/fatfs_sd.o
 .text.SD_disk_initialize
                0x0000000008001478      0x1d4 ./Core/Src/fatfs_sd.o
                0x0000000008001478                SD_disk_initialize
 .text.SD_disk_status
                0x000000000800164c       0x2c ./Core/Src/fatfs_sd.o
                0x000000000800164c                SD_disk_status
 .text.SD_disk_read
                0x0000000008001678       0xd4 ./Core/Src/fatfs_sd.o
                0x0000000008001678                SD_disk_read
 .text.SD_disk_write
                0x000000000800174c      0x108 ./Core/Src/fatfs_sd.o
                0x000000000800174c                SD_disk_write
 .text.SD_disk_ioctl
                0x0000000008001854      0x264 ./Core/Src/fatfs_sd.o
                0x0000000008001854                SD_disk_ioctl
 .text.vApplicationGetIdleTaskMemory
                0x0000000008001ab8       0x34 ./Core/Src/freertos.o
                0x0000000008001ab8                vApplicationGetIdleTaskMemory
 .text.SDCARD_Task
                0x0000000008001aec       0x54 ./Core/Src/main.o
                0x0000000008001aec                SDCARD_Task
 .text.main     0x0000000008001b40       0x88 ./Core/Src/main.o
                0x0000000008001b40                main
 .text.SystemClock_Config
                0x0000000008001bc8       0xd8 ./Core/Src/main.o
                0x0000000008001bc8                SystemClock_Config
 .text.MX_SPI1_Init
                0x0000000008001ca0       0x6c ./Core/Src/main.o
 .text.MX_USART2_UART_Init
                0x0000000008001d0c       0x54 ./Core/Src/main.o
 .text.MX_GPIO_Init
                0x0000000008001d60       0xdc ./Core/Src/main.o
 .text.HAL_TIM_PeriodElapsedCallback
                0x0000000008001e3c       0x24 ./Core/Src/main.o
                0x0000000008001e3c                HAL_TIM_PeriodElapsedCallback
 .text.Error_Handler
                0x0000000008001e60        0xa ./Core/Src/main.o
                0x0000000008001e60                Error_Handler
 *fill*         0x0000000008001e6a        0x2 
 .text.HAL_MspInit
                0x0000000008001e6c       0x58 ./Core/Src/stm32f4xx_hal_msp.o
                0x0000000008001e6c                HAL_MspInit
 .text.HAL_SPI_MspInit
                0x0000000008001ec4       0x90 ./Core/Src/stm32f4xx_hal_msp.o
                0x0000000008001ec4                HAL_SPI_MspInit
 .text.HAL_UART_MspInit
                0x0000000008001f54       0x90 ./Core/Src/stm32f4xx_hal_msp.o
                0x0000000008001f54                HAL_UART_MspInit
 .text.HAL_InitTick
                0x0000000008001fe4       0xf8 ./Core/Src/stm32f4xx_hal_timebase_tim.o
                0x0000000008001fe4                HAL_InitTick
 .text.NMI_Handler
                0x00000000080020dc        0xe ./Core/Src/stm32f4xx_it.o
                0x00000000080020dc                NMI_Handler
 .text.HardFault_Handler
                0x00000000080020ea        0x6 ./Core/Src/stm32f4xx_it.o
                0x00000000080020ea                HardFault_Handler
 .text.MemManage_Handler
                0x00000000080020f0        0x6 ./Core/Src/stm32f4xx_it.o
                0x00000000080020f0                MemManage_Handler
 .text.BusFault_Handler
                0x00000000080020f6        0x6 ./Core/Src/stm32f4xx_it.o
                0x00000000080020f6                BusFault_Handler
 .text.UsageFault_Handler
                0x00000000080020fc        0x6 ./Core/Src/stm32f4xx_it.o
                0x00000000080020fc                UsageFault_Handler
 .text.DebugMon_Handler
                0x0000000008002102        0xe ./Core/Src/stm32f4xx_it.o
                0x0000000008002102                DebugMon_Handler
 .text.TIM6_DAC_IRQHandler
                0x0000000008002110       0x14 ./Core/Src/stm32f4xx_it.o
                0x0000000008002110                TIM6_DAC_IRQHandler
 .text._sbrk    0x0000000008002124       0x6c ./Core/Src/sysmem.o
                0x0000000008002124                _sbrk
 .text.SystemInit
                0x0000000008002190       0x24 ./Core/Src/system_stm32f4xx.o
                0x0000000008002190                SystemInit
 .text.Reset_Handler
                0x00000000080021b4       0x50 ./Core/Startup/startup_stm32f446retx.o
                0x00000000080021b4                Reset_Handler
 .text.Default_Handler
                0x0000000008002204        0x2 ./Core/Startup/startup_stm32f446retx.o
                0x0000000008002204                RTC_Alarm_IRQHandler
                0x0000000008002204                EXTI2_IRQHandler
                0x0000000008002204                TIM8_CC_IRQHandler
                0x0000000008002204                FMPI2C1_EV_IRQHandler
                0x0000000008002204                SPI4_IRQHandler
                0x0000000008002204                TIM1_CC_IRQHandler
                0x0000000008002204                DMA2_Stream5_IRQHandler
                0x0000000008002204                DMA1_Stream5_IRQHandler
                0x0000000008002204                PVD_IRQHandler
                0x0000000008002204                SDIO_IRQHandler
                0x0000000008002204                TAMP_STAMP_IRQHandler
                0x0000000008002204                CAN2_RX1_IRQHandler
                0x0000000008002204                EXTI3_IRQHandler
                0x0000000008002204                TIM8_TRG_COM_TIM14_IRQHandler
                0x0000000008002204                TIM1_UP_TIM10_IRQHandler
                0x0000000008002204                TIM8_UP_TIM13_IRQHandler
                0x0000000008002204                I2C3_ER_IRQHandler
                0x0000000008002204                EXTI0_IRQHandler
                0x0000000008002204                I2C2_EV_IRQHandler
                0x0000000008002204                DMA1_Stream2_IRQHandler
                0x0000000008002204                CAN1_RX0_IRQHandler
                0x0000000008002204                FPU_IRQHandler
                0x0000000008002204                OTG_HS_WKUP_IRQHandler
                0x0000000008002204                CAN2_SCE_IRQHandler
                0x0000000008002204                DMA2_Stream2_IRQHandler
                0x0000000008002204                SPI1_IRQHandler
                0x0000000008002204                TIM1_BRK_TIM9_IRQHandler
                0x0000000008002204                DCMI_IRQHandler
                0x0000000008002204                CAN2_RX0_IRQHandler
                0x0000000008002204                DMA2_Stream3_IRQHandler
                0x0000000008002204                SAI2_IRQHandler
                0x0000000008002204                USART6_IRQHandler
                0x0000000008002204                USART3_IRQHandler
                0x0000000008002204                CAN1_RX1_IRQHandler
                0x0000000008002204                UART5_IRQHandler
                0x0000000008002204                DMA2_Stream0_IRQHandler
                0x0000000008002204                TIM4_IRQHandler
                0x0000000008002204                QUADSPI_IRQHandler
                0x0000000008002204                I2C1_EV_IRQHandler
                0x0000000008002204                DMA1_Stream6_IRQHandler
                0x0000000008002204                DMA1_Stream1_IRQHandler
                0x0000000008002204                UART4_IRQHandler
                0x0000000008002204                TIM3_IRQHandler
                0x0000000008002204                RCC_IRQHandler
                0x0000000008002204                TIM8_BRK_TIM12_IRQHandler
                0x0000000008002204                Default_Handler
                0x0000000008002204                CEC_IRQHandler
                0x0000000008002204                EXTI15_10_IRQHandler
                0x0000000008002204                ADC_IRQHandler
                0x0000000008002204                DMA1_Stream7_IRQHandler
                0x0000000008002204                TIM7_IRQHandler
                0x0000000008002204                CAN2_TX_IRQHandler
                0x0000000008002204                TIM5_IRQHandler
                0x0000000008002204                DMA2_Stream7_IRQHandler
                0x0000000008002204                I2C3_EV_IRQHandler
                0x0000000008002204                EXTI9_5_IRQHandler
                0x0000000008002204                RTC_WKUP_IRQHandler
                0x0000000008002204                SPDIF_RX_IRQHandler
                0x0000000008002204                SPI2_IRQHandler
                0x0000000008002204                OTG_HS_EP1_IN_IRQHandler
                0x0000000008002204                DMA1_Stream0_IRQHandler
                0x0000000008002204                CAN1_TX_IRQHandler
                0x0000000008002204                FMPI2C1_ER_IRQHandler
                0x0000000008002204                EXTI4_IRQHandler
                0x0000000008002204                OTG_HS_EP1_OUT_IRQHandler
                0x0000000008002204                WWDG_IRQHandler
                0x0000000008002204                TIM2_IRQHandler
                0x0000000008002204                OTG_FS_WKUP_IRQHandler
                0x0000000008002204                TIM1_TRG_COM_TIM11_IRQHandler
                0x0000000008002204                OTG_HS_IRQHandler
                0x0000000008002204                EXTI1_IRQHandler
                0x0000000008002204                USART2_IRQHandler
                0x0000000008002204                I2C2_ER_IRQHandler
                0x0000000008002204                DMA2_Stream1_IRQHandler
                0x0000000008002204                CAN1_SCE_IRQHandler
                0x0000000008002204                FLASH_IRQHandler
                0x0000000008002204                DMA2_Stream4_IRQHandler
                0x0000000008002204                USART1_IRQHandler
                0x0000000008002204                OTG_FS_IRQHandler
                0x0000000008002204                SPI3_IRQHandler
                0x0000000008002204                DMA1_Stream4_IRQHandler
                0x0000000008002204                I2C1_ER_IRQHandler
                0x0000000008002204                FMC_IRQHandler
                0x0000000008002204                DMA2_Stream6_IRQHandler
                0x0000000008002204                SAI1_IRQHandler
                0x0000000008002204                DMA1_Stream3_IRQHandler
 *fill*         0x0000000008002206        0x2 
 .text.HAL_Init
                0x0000000008002208       0x44 ./Drivers/STM32F4xx_HAL_Driver/Src/stm32f4xx_hal.o
                0x0000000008002208                HAL_Init
 .text.HAL_IncTick
                0x000000000800224c       0x28 ./Drivers/STM32F4xx_HAL_Driver/Src/stm32f4xx_hal.o
                0x000000000800224c                HAL_IncTick
 .text.HAL_GetTick
                0x0000000008002274       0x18 ./Drivers/STM32F4xx_HAL_Driver/Src/stm32f4xx_hal.o
                0x0000000008002274                HAL_GetTick
 .text.__NVIC_SetPriorityGrouping
                0x000000000800228c       0x48 ./Drivers/STM32F4xx_HAL_Driver/Src/stm32f4xx_hal_cortex.o
 .text.__NVIC_GetPriorityGrouping
                0x00000000080022d4       0x1c ./Drivers/STM32F4xx_HAL_Driver/Src/stm32f4xx_hal_cortex.o
 .text.__NVIC_EnableIRQ
                0x00000000080022f0       0x3c ./Drivers/STM32F4xx_HAL_Driver/Src/stm32f4xx_hal_cortex.o
 .text.__NVIC_SetPriority
                0x000000000800232c       0x54 ./Drivers/STM32F4xx_HAL_Driver/Src/stm32f4xx_hal_cortex.o
 .text.NVIC_EncodePriority
                0x0000000008002380       0x66 ./Drivers/STM32F4xx_HAL_Driver/Src/stm32f4xx_hal_cortex.o
 .text.HAL_NVIC_SetPriorityGrouping
                0x00000000080023e6       0x16 ./Drivers/STM32F4xx_HAL_Driver/Src/stm32f4xx_hal_cortex.o
                0x00000000080023e6                HAL_NVIC_SetPriorityGrouping
 .text.HAL_NVIC_SetPriority
                0x00000000080023fc       0x38 ./Drivers/STM32F4xx_HAL_Driver/Src/stm32f4xx_hal_cortex.o
                0x00000000080023fc                HAL_NVIC_SetPriority
 .text.HAL_NVIC_EnableIRQ
                0x0000000008002434       0x1c ./Drivers/STM32F4xx_HAL_Driver/Src/stm32f4xx_hal_cortex.o
                0x0000000008002434                HAL_NVIC_EnableIRQ
 .text.HAL_GPIO_Init
                0x0000000008002450      0x328 ./Drivers/STM32F4xx_HAL_Driver/Src/stm32f4xx_hal_gpio.o
                0x0000000008002450                HAL_GPIO_Init
 .text.HAL_GPIO_WritePin
                0x0000000008002778       0x32 ./Drivers/STM32F4xx_HAL_Driver/Src/stm32f4xx_hal_gpio.o
                0x0000000008002778                HAL_GPIO_WritePin
 *fill*         0x00000000080027aa        0x2 
 .text.HAL_RCC_ClockConfig
                0x00000000080027ac      0x1cc ./Drivers/STM32F4xx_HAL_Driver/Src/stm32f4xx_hal_rcc.o
                0x00000000080027ac                HAL_RCC_ClockConfig
 .text.HAL_RCC_GetHCLKFreq
                0x0000000008002978       0x18 ./Drivers/STM32F4xx_HAL_Driver/Src/stm32f4xx_hal_rcc.o
                0x0000000008002978                HAL_RCC_GetHCLKFreq
 .text.HAL_RCC_GetPCLK1Freq
                0x0000000008002990       0x28 ./Drivers/STM32F4xx_HAL_Driver/Src/stm32f4xx_hal_rcc.o
                0x0000000008002990                HAL_RCC_GetPCLK1Freq
 .text.HAL_RCC_GetPCLK2Freq
                0x00000000080029b8       0x28 ./Drivers/STM32F4xx_HAL_Driver/Src/stm32f4xx_hal_rcc.o
                0x00000000080029b8                HAL_RCC_GetPCLK2Freq
 .text.HAL_RCC_GetClockConfig
                0x00000000080029e0       0x64 ./Drivers/STM32F4xx_HAL_Driver/Src/stm32f4xx_hal_rcc.o
                0x00000000080029e0                HAL_RCC_GetClockConfig
 .text.HAL_RCC_GetSysClockFreq
                0x0000000008002a44      0x460 ./Drivers/STM32F4xx_HAL_Driver/Src/stm32f4xx_hal_rcc_ex.o
                0x0000000008002a44                HAL_RCC_GetSysClockFreq
 .text.HAL_RCC_OscConfig
                0x0000000008002ea4      0x53c ./Drivers/STM32F4xx_HAL_Driver/Src/stm32f4xx_hal_rcc_ex.o
                0x0000000008002ea4                HAL_RCC_OscConfig
 .text.HAL_SPI_Init
                0x00000000080033e0      0x112 ./Drivers/STM32F4xx_HAL_Driver/Src/stm32f4xx_hal_spi.o
                0x00000000080033e0                HAL_SPI_Init
 .text.HAL_SPI_Transmit
                0x00000000080034f2      0x278 ./Drivers/STM32F4xx_HAL_Driver/Src/stm32f4xx_hal_spi.o
                0x00000000080034f2                HAL_SPI_Transmit
 .text.HAL_SPI_TransmitReceive
                0x000000000800376a      0x344 ./Drivers/STM32F4xx_HAL_Driver/Src/stm32f4xx_hal_spi.o
                0x000000000800376a                HAL_SPI_TransmitReceive
 .text.HAL_SPI_GetState
                0x0000000008003aae       0x1c ./Drivers/STM32F4xx_HAL_Driver/Src/stm32f4xx_hal_spi.o
                0x0000000008003aae                HAL_SPI_GetState
 *fill*         0x0000000008003aca        0x2 
 .text.SPI_WaitFlagStateUntilTimeout
                0x0000000008003acc      0x110 ./Drivers/STM32F4xx_HAL_Driver/Src/stm32f4xx_hal_spi.o
 .text.SPI_EndRxTxTransaction
                0x0000000008003bdc       0x84 ./Drivers/STM32F4xx_HAL_Driver/Src/stm32f4xx_hal_spi.o
 .text.HAL_TIM_Base_Init
                0x0000000008003c60       0x9e ./Drivers/STM32F4xx_HAL_Driver/Src/stm32f4xx_hal_tim.o
                0x0000000008003c60                HAL_TIM_Base_Init
 .text.HAL_TIM_Base_MspInit
                0x0000000008003cfe       0x14 ./Drivers/STM32F4xx_HAL_Driver/Src/stm32f4xx_hal_tim.o
                0x0000000008003cfe                HAL_TIM_Base_MspInit
 *fill*         0x0000000008003d12        0x2 
 .text.HAL_TIM_Base_Start_IT
                0x0000000008003d14       0xe0 ./Drivers/STM32F4xx_HAL_Driver/Src/stm32f4xx_hal_tim.o
                0x0000000008003d14                HAL_TIM_Base_Start_IT
 .text.HAL_TIM_IRQHandler
                0x0000000008003df4      0x210 ./Drivers/STM32F4xx_HAL_Driver/Src/stm32f4xx_hal_tim.o
                0x0000000008003df4                HAL_TIM_IRQHandler
 .text.HAL_TIM_OC_DelayElapsedCallback
                0x0000000008004004       0x14 ./Drivers/STM32F4xx_HAL_Driver/Src/stm32f4xx_hal_tim.o
                0x0000000008004004                HAL_TIM_OC_DelayElapsedCallback
 .text.HAL_TIM_IC_CaptureCallback
                0x0000000008004018       0x14 ./Drivers/STM32F4xx_HAL_Driver/Src/stm32f4xx_hal_tim.o
                0x0000000008004018                HAL_TIM_IC_CaptureCallback
 .text.HAL_TIM_PWM_PulseFinishedCallback
                0x000000000800402c       0x14 ./Drivers/STM32F4xx_HAL_Driver/Src/stm32f4xx_hal_tim.o
                0x000000000800402c                HAL_TIM_PWM_PulseFinishedCallback
 .text.HAL_TIM_TriggerCallback
                0x0000000008004040       0x14 ./Drivers/STM32F4xx_HAL_Driver/Src/stm32f4xx_hal_tim.o
                0x0000000008004040                HAL_TIM_TriggerCallback
 .text.TIM_Base_SetConfig
                0x0000000008004054      0x140 ./Drivers/STM32F4xx_HAL_Driver/Src/stm32f4xx_hal_tim.o
                0x0000000008004054                TIM_Base_SetConfig
 .text.HAL_TIMEx_CommutCallback
                0x0000000008004194       0x14 ./Drivers/STM32F4xx_HAL_Driver/Src/stm32f4xx_hal_tim_ex.o
                0x0000000008004194                HAL_TIMEx_CommutCallback
 .text.HAL_TIMEx_BreakCallback
                0x00000000080041a8       0x14 ./Drivers/STM32F4xx_HAL_Driver/Src/stm32f4xx_hal_tim_ex.o
                0x00000000080041a8                HAL_TIMEx_BreakCallback
 .text.HAL_UART_Init
                0x00000000080041bc       0x9a ./Drivers/STM32F4xx_HAL_Driver/Src/stm32f4xx_hal_uart.o
                0x00000000080041bc                HAL_UART_Init
 .text.HAL_UART_Transmit
                0x0000000008004256      0x124 ./Drivers/STM32F4xx_HAL_Driver/Src/stm32f4xx_hal_uart.o
                0x0000000008004256                HAL_UART_Transmit
 .text.HAL_UART_Receive_IT
                0x000000000800437a       0x60 ./Drivers/STM32F4xx_HAL_Driver/Src/stm32f4xx_hal_uart.o
                0x000000000800437a                HAL_UART_Receive_IT
 .text.UART_WaitOnFlagUntilTimeout
                0x00000000080043da       0xdc ./Drivers/STM32F4xx_HAL_Driver/Src/stm32f4xx_hal_uart.o
 .text.UART_Start_Receive_IT
                0x00000000080044b6       0x7c ./Drivers/STM32F4xx_HAL_Driver/Src/stm32f4xx_hal_uart.o
                0x00000000080044b6                UART_Start_Receive_IT
 *fill*         0x0000000008004532        0x2 
 .text.UART_SetConfig
                0x0000000008004534      0x4e8 ./Drivers/STM32F4xx_HAL_Driver/Src/stm32f4xx_hal_uart.o
 .text.MX_FATFS_Init
                0x0000000008004a1c       0x24 ./FATFS/App/fatfs.o
                0x0000000008004a1c                MX_FATFS_Init
 .text.get_fattime
                0x0000000008004a40       0x10 ./FATFS/App/fatfs.o
                0x0000000008004a40                get_fattime
 .text.USER_initialize
                0x0000000008004a50       0x1c ./FATFS/Target/user_diskio.o
                0x0000000008004a50                USER_initialize
 .text.USER_status
                0x0000000008004a6c       0x1c ./FATFS/Target/user_diskio.o
                0x0000000008004a6c                USER_status
 .text.USER_read
                0x0000000008004a88       0x26 ./FATFS/Target/user_diskio.o
                0x0000000008004a88                USER_read
 .text.USER_write
                0x0000000008004aae       0x26 ./FATFS/Target/user_diskio.o
                0x0000000008004aae                USER_write
 .text.USER_ioctl
                0x0000000008004ad4       0x26 ./FATFS/Target/user_diskio.o
                0x0000000008004ad4                USER_ioctl
 *fill*         0x0000000008004afa        0x2 
 .text.disk_status
                0x0000000008004afc       0x34 ./Middlewares/Third_Party/FatFs/src/diskio.o
                0x0000000008004afc                disk_status
 .text.disk_initialize
                0x0000000008004b30       0x4c ./Middlewares/Third_Party/FatFs/src/diskio.o
                0x0000000008004b30                disk_initialize
 .text.disk_read
                0x0000000008004b7c       0x40 ./Middlewares/Third_Party/FatFs/src/diskio.o
                0x0000000008004b7c                disk_read
 .text.disk_write
                0x0000000008004bbc       0x40 ./Middlewares/Third_Party/FatFs/src/diskio.o
                0x0000000008004bbc                disk_write
 .text.disk_ioctl
                0x0000000008004bfc       0x3c ./Middlewares/Third_Party/FatFs/src/diskio.o
                0x0000000008004bfc                disk_ioctl
 .text.ld_word  0x0000000008004c38       0x30 ./Middlewares/Third_Party/FatFs/src/ff.o
 .text.ld_dword
                0x0000000008004c68       0x46 ./Middlewares/Third_Party/FatFs/src/ff.o
 .text.st_word  0x0000000008004cae       0x36 ./Middlewares/Third_Party/FatFs/src/ff.o
 .text.st_dword
                0x0000000008004ce4       0x58 ./Middlewares/Third_Party/FatFs/src/ff.o
 .text.mem_cpy  0x0000000008004d3c       0x42 ./Middlewares/Third_Party/FatFs/src/ff.o
 .text.mem_set  0x0000000008004d7e       0x36 ./Middlewares/Third_Party/FatFs/src/ff.o
 .text.mem_cmp  0x0000000008004db4       0x4e ./Middlewares/Third_Party/FatFs/src/ff.o
 .text.chk_chr  0x0000000008004e02       0x36 ./Middlewares/Third_Party/FatFs/src/ff.o
 .text.lock_fs  0x0000000008004e38       0x2c ./Middlewares/Third_Party/FatFs/src/ff.o
 .text.unlock_fs
                0x0000000008004e64       0x36 ./Middlewares/Third_Party/FatFs/src/ff.o
 *fill*         0x0000000008004e9a        0x2 
 .text.chk_lock
                0x0000000008004e9c       0xb8 ./Middlewares/Third_Party/FatFs/src/ff.o
 .text.enq_lock
                0x0000000008004f54       0x44 ./Middlewares/Third_Party/FatFs/src/ff.o
 .text.inc_lock
                0x0000000008004f98      0x11c ./Middlewares/Third_Party/FatFs/src/ff.o
 .text.dec_lock
                0x00000000080050b4       0x78 ./Middlewares/Third_Party/FatFs/src/ff.o
 .text.clear_lock
                0x000000000800512c       0x48 ./Middlewares/Third_Party/FatFs/src/ff.o
 .text.sync_window
                0x0000000008005174       0x88 ./Middlewares/Third_Party/FatFs/src/ff.o
 .text.move_window
                0x00000000080051fc       0x5a ./Middlewares/Third_Party/FatFs/src/ff.o
 *fill*         0x0000000008005256        0x2 
 .text.sync_fs  0x0000000008005258       0xdc ./Middlewares/Third_Party/FatFs/src/ff.o
 .text.clust2sect
                0x0000000008005334       0x3e ./Middlewares/Third_Party/FatFs/src/ff.o
 .text.get_fat  0x0000000008005372      0x150 ./Middlewares/Third_Party/FatFs/src/ff.o
 .text.put_fat  0x00000000080054c2      0x1d8 ./Middlewares/Third_Party/FatFs/src/ff.o
 .text.remove_chain
                0x000000000800569a       0xca ./Middlewares/Third_Party/FatFs/src/ff.o
 .text.create_chain
                0x0000000008005764      0x130 ./Middlewares/Third_Party/FatFs/src/ff.o
 .text.clmt_clust
                0x0000000008005894       0x68 ./Middlewares/Third_Party/FatFs/src/ff.o
 .text.dir_sdi  0x00000000080058fc       0xf6 ./Middlewares/Third_Party/FatFs/src/ff.o
 .text.dir_next
                0x00000000080059f2      0x18a ./Middlewares/Third_Party/FatFs/src/ff.o
 .text.dir_alloc
                0x0000000008005b7c       0x8e ./Middlewares/Third_Party/FatFs/src/ff.o
 .text.ld_clust
                0x0000000008005c0a       0x3e ./Middlewares/Third_Party/FatFs/src/ff.o
 .text.st_clust
                0x0000000008005c48       0x40 ./Middlewares/Third_Party/FatFs/src/ff.o
 .text.dir_read
                0x0000000008005c88       0xba ./Middlewares/Third_Party/FatFs/src/ff.o
 .text.dir_find
                0x0000000008005d42       0xaa ./Middlewares/Third_Party/FatFs/src/ff.o
 .text.dir_register
                0x0000000008005dec       0x64 ./Middlewares/Third_Party/FatFs/src/ff.o
 .text.dir_remove
                0x0000000008005e50       0x3c ./Middlewares/Third_Party/FatFs/src/ff.o
 .text.get_fileinfo
                0x0000000008005e8c       0xbe ./Middlewares/Third_Party/FatFs/src/ff.o
 *fill*         0x0000000008005f4a        0x2 
 .text.create_name
                0x0000000008005f4c      0x128 ./Middlewares/Third_Party/FatFs/src/ff.o
 .text.follow_path
                0x0000000008006074       0xe2 ./Middlewares/Third_Party/FatFs/src/ff.o
 .text.get_ldnumber
                0x0000000008006156       0x88 ./Middlewares/Third_Party/FatFs/src/ff.o
 *fill*         0x00000000080061de        0x2 
 .text.check_fs
                0x00000000080061e0       0xac ./Middlewares/Third_Party/FatFs/src/ff.o
 .text.find_volume
                0x000000000800628c      0x4a8 ./Middlewares/Third_Party/FatFs/src/ff.o
 .text.validate
                0x0000000008006734       0x8e ./Middlewares/Third_Party/FatFs/src/ff.o
 *fill*         0x00000000080067c2        0x2 
 .text.f_mount  0x00000000080067c4       0xc8 ./Middlewares/Third_Party/FatFs/src/ff.o
                0x00000000080067c4                f_mount
 .text.f_open   0x000000000800688c      0x38a ./Middlewares/Third_Party/FatFs/src/ff.o
                0x000000000800688c                f_open
 .text.f_write  0x0000000008006c16      0x348 ./Middlewares/Third_Party/FatFs/src/ff.o
                0x0000000008006c16                f_write
 .text.f_sync   0x0000000008006f5e      0x112 ./Middlewares/Third_Party/FatFs/src/ff.o
                0x0000000008006f5e                f_sync
 .text.f_close  0x0000000008007070       0x5e ./Middlewares/Third_Party/FatFs/src/ff.o
                0x0000000008007070                f_close
 .text.f_opendir
                0x00000000080070ce       0xf2 ./Middlewares/Third_Party/FatFs/src/ff.o
                0x00000000080070ce                f_opendir
 .text.f_closedir
                0x00000000080071c0       0x56 ./Middlewares/Third_Party/FatFs/src/ff.o
                0x00000000080071c0                f_closedir
 .text.f_readdir
                0x0000000008007216       0x86 ./Middlewares/Third_Party/FatFs/src/ff.o
                0x0000000008007216                f_readdir
 .text.f_stat   0x000000000800729c       0x80 ./Middlewares/Third_Party/FatFs/src/ff.o
                0x000000000800729c                f_stat
 .text.f_getfree
                0x000000000800731c      0x178 ./Middlewares/Third_Party/FatFs/src/ff.o
                0x000000000800731c                f_getfree
 .text.f_unlink
                0x0000000008007494      0x164 ./Middlewares/Third_Party/FatFs/src/ff.o
                0x0000000008007494                f_unlink
 .text.FATFS_LinkDriverEx
                0x00000000080075f8       0x98 ./Middlewares/Third_Party/FatFs/src/ff_gen_drv.o
                0x00000000080075f8                FATFS_LinkDriverEx
 .text.FATFS_LinkDriver
                0x0000000008007690       0x1e ./Middlewares/Third_Party/FatFs/src/ff_gen_drv.o
                0x0000000008007690                FATFS_LinkDriver
 .text.ff_cre_syncobj
                0x00000000080076ae       0x40 ./Middlewares/Third_Party/FatFs/src/option/syscall.o
                0x00000000080076ae                ff_cre_syncobj
 .text.ff_del_syncobj
                0x00000000080076ee       0x18 ./Middlewares/Third_Party/FatFs/src/option/syscall.o
                0x00000000080076ee                ff_del_syncobj
 .text.ff_req_grant
                0x0000000008007706       0x2a ./Middlewares/Third_Party/FatFs/src/option/syscall.o
                0x0000000008007706                ff_req_grant
 .text.ff_rel_grant
                0x0000000008007730       0x16 ./Middlewares/Third_Party/FatFs/src/option/syscall.o
                0x0000000008007730                ff_rel_grant
 .text.inHandlerMode
                0x0000000008007746       0x24 ./Middlewares/Third_Party/FreeRTOS/Source/CMSIS_RTOS/cmsis_os.o
 .text.osSemaphoreCreate
                0x000000000800776a       0x64 ./Middlewares/Third_Party/FreeRTOS/Source/CMSIS_RTOS/cmsis_os.o
                0x000000000800776a                osSemaphoreCreate
 *fill*         0x00000000080077ce        0x2 
 .text.osSemaphoreWait
                0x00000000080077d0       0x9c ./Middlewares/Third_Party/FreeRTOS/Source/CMSIS_RTOS/cmsis_os.o
                0x00000000080077d0                osSemaphoreWait
 .text.osSemaphoreRelease
                0x000000000800786c       0x6c ./Middlewares/Third_Party/FreeRTOS/Source/CMSIS_RTOS/cmsis_os.o
                0x000000000800786c                osSemaphoreRelease
 .text.osSemaphoreDelete
                0x00000000080078d8       0x26 ./Middlewares/Third_Party/FreeRTOS/Source/CMSIS_RTOS/cmsis_os.o
                0x00000000080078d8                osSemaphoreDelete
 .text.vListInitialise
                0x00000000080078fe       0x40 ./Middlewares/Third_Party/FreeRTOS/Source/list.o
                0x00000000080078fe                vListInitialise
 .text.vListInitialiseItem
                0x000000000800793e       0x1a ./Middlewares/Third_Party/FreeRTOS/Source/list.o
                0x000000000800793e                vListInitialiseItem
 .text.vListInsertEnd
                0x0000000008007958       0x48 ./Middlewares/Third_Party/FreeRTOS/Source/list.o
                0x0000000008007958                vListInsertEnd
 .text.vListInsert
                0x00000000080079a0       0x72 ./Middlewares/Third_Party/FreeRTOS/Source/list.o
                0x00000000080079a0                vListInsert
 .text.uxListRemove
                0x0000000008007a12       0x54 ./Middlewares/Third_Party/FreeRTOS/Source/list.o
                0x0000000008007a12                uxListRemove
 *fill*         0x0000000008007a66        0x2 
 .text.xQueueGenericReset
                0x0000000008007a68       0xd0 ./Middlewares/Third_Party/FreeRTOS/Source/queue.o
                0x0000000008007a68                xQueueGenericReset
 .text.xQueueGenericCreateStatic
                0x0000000008007b38       0xf0 ./Middlewares/Third_Party/FreeRTOS/Source/queue.o
                0x0000000008007b38                xQueueGenericCreateStatic
 .text.xQueueGenericCreate
                0x0000000008007c28       0x74 ./Middlewares/Third_Party/FreeRTOS/Source/queue.o
                0x0000000008007c28                xQueueGenericCreate
 .text.prvInitialiseNewQueue
                0x0000000008007c9c       0x3e ./Middlewares/Third_Party/FreeRTOS/Source/queue.o
 *fill*         0x0000000008007cda        0x2 
 .text.xQueueGenericSend
                0x0000000008007cdc      0x1fc ./Middlewares/Third_Party/FreeRTOS/Source/queue.o
                0x0000000008007cdc                xQueueGenericSend
 .text.xQueueGiveFromISR
                0x0000000008007ed8      0x11a ./Middlewares/Third_Party/FreeRTOS/Source/queue.o
                0x0000000008007ed8                xQueueGiveFromISR
 *fill*         0x0000000008007ff2        0x2 
 .text.xQueueSemaphoreTake
                0x0000000008007ff4      0x218 ./Middlewares/Third_Party/FreeRTOS/Source/queue.o
                0x0000000008007ff4                xQueueSemaphoreTake
 .text.xQueueReceiveFromISR
                0x000000000800820c      0x100 ./Middlewares/Third_Party/FreeRTOS/Source/queue.o
                0x000000000800820c                xQueueReceiveFromISR
 .text.vQueueDelete
                0x000000000800830c       0x46 ./Middlewares/Third_Party/FreeRTOS/Source/queue.o
                0x000000000800830c                vQueueDelete
 .text.prvGetDisinheritPriorityAfterTimeout
                0x0000000008008352       0x30 ./Middlewares/Third_Party/FreeRTOS/Source/queue.o
 .text.prvCopyDataToQueue
                0x0000000008008382       0xd4 ./Middlewares/Third_Party/FreeRTOS/Source/queue.o
 .text.prvCopyDataFromQueue
                0x0000000008008456       0x4c ./Middlewares/Third_Party/FreeRTOS/Source/queue.o
 .text.prvUnlockQueue
                0x00000000080084a2       0xa4 ./Middlewares/Third_Party/FreeRTOS/Source/queue.o
 .text.prvIsQueueEmpty
                0x0000000008008546       0x2c ./Middlewares/Third_Party/FreeRTOS/Source/queue.o
 .text.prvIsQueueFull
                0x0000000008008572       0x30 ./Middlewares/Third_Party/FreeRTOS/Source/queue.o
 *fill*         0x00000000080085a2        0x2 
 .text.vQueueUnregisterQueue
                0x00000000080085a4       0x54 ./Middlewares/Third_Party/FreeRTOS/Source/queue.o
                0x00000000080085a4                vQueueUnregisterQueue
 .text.xTaskCreateStatic
                0x00000000080085f8       0xba ./Middlewares/Third_Party/FreeRTOS/Source/tasks.o
                0x00000000080085f8                xTaskCreateStatic
 .text.xTaskCreate
                0x00000000080086b2       0x8a ./Middlewares/Third_Party/FreeRTOS/Source/tasks.o
                0x00000000080086b2                xTaskCreate
 .text.prvInitialiseNewTask
                0x000000000800873c      0x13c ./Middlewares/Third_Party/FreeRTOS/Source/tasks.o
 .text.prvAddNewTaskToReadyList
                0x0000000008008878       0xd4 ./Middlewares/Third_Party/FreeRTOS/Source/tasks.o
 .text.vTaskDelay
                0x000000000800894c       0x68 ./Middlewares/Third_Party/FreeRTOS/Source/tasks.o
                0x000000000800894c                vTaskDelay
 .text.vTaskStartScheduler
                0x00000000080089b4       0xd4 ./Middlewares/Third_Party/FreeRTOS/Source/tasks.o
                0x00000000080089b4                vTaskStartScheduler
 .text.vTaskSuspendAll
                0x0000000008008a88       0x1c ./Middlewares/Third_Party/FreeRTOS/Source/tasks.o
                0x0000000008008a88                vTaskSuspendAll
 .text.xTaskResumeAll
                0x0000000008008aa4      0x138 ./Middlewares/Third_Party/FreeRTOS/Source/tasks.o
                0x0000000008008aa4                xTaskResumeAll
 .text.xTaskIncrementTick
                0x0000000008008bdc      0x170 ./Middlewares/Third_Party/FreeRTOS/Source/tasks.o
                0x0000000008008bdc                xTaskIncrementTick
 .text.vTaskSwitchContext
                0x0000000008008d4c       0xc4 ./Middlewares/Third_Party/FreeRTOS/Source/tasks.o
                0x0000000008008d4c                vTaskSwitchContext
 .text.vTaskPlaceOnEventList
                0x0000000008008e10       0x48 ./Middlewares/Third_Party/FreeRTOS/Source/tasks.o
                0x0000000008008e10                vTaskPlaceOnEventList
 .text.xTaskRemoveFromEventList
                0x0000000008008e58       0xc4 ./Middlewares/Third_Party/FreeRTOS/Source/tasks.o
                0x0000000008008e58                xTaskRemoveFromEventList
 .text.vTaskInternalSetTimeOutState
                0x0000000008008f1c       0x2c ./Middlewares/Third_Party/FreeRTOS/Source/tasks.o
                0x0000000008008f1c                vTaskInternalSetTimeOutState
 .text.xTaskCheckForTimeOut
                0x0000000008008f48       0xc4 ./Middlewares/Third_Party/FreeRTOS/Source/tasks.o
                0x0000000008008f48                xTaskCheckForTimeOut
 .text.vTaskMissedYield
                0x000000000800900c       0x18 ./Middlewares/Third_Party/FreeRTOS/Source/tasks.o
                0x000000000800900c                vTaskMissedYield
 .text.prvIdleTask
                0x0000000008009024       0x30 ./Middlewares/Third_Party/FreeRTOS/Source/tasks.o
 .text.prvInitialiseTaskLists
                0x0000000008009054       0x80 ./Middlewares/Third_Party/FreeRTOS/Source/tasks.o
 .text.prvCheckTasksWaitingTermination
                0x00000000080090d4       0x5c ./Middlewares/Third_Party/FreeRTOS/Source/tasks.o
 .text.prvDeleteTCB
                0x0000000008009130       0x68 ./Middlewares/Third_Party/FreeRTOS/Source/tasks.o
 .text.prvResetNextTaskUnblockTime
                0x0000000008009198       0x40 ./Middlewares/Third_Party/FreeRTOS/Source/tasks.o
 .text.xTaskGetSchedulerState
                0x00000000080091d8       0x3c ./Middlewares/Third_Party/FreeRTOS/Source/tasks.o
                0x00000000080091d8                xTaskGetSchedulerState
 .text.xTaskPriorityInherit
                0x0000000008009214       0xec ./Middlewares/Third_Party/FreeRTOS/Source/tasks.o
                0x0000000008009214                xTaskPriorityInherit
 .text.xTaskPriorityDisinherit
                0x0000000008009300      0x10c ./Middlewares/Third_Party/FreeRTOS/Source/tasks.o
                0x0000000008009300                xTaskPriorityDisinherit
 .text.vTaskPriorityDisinheritAfterTimeout
                0x000000000800940c      0x11c ./Middlewares/Third_Party/FreeRTOS/Source/tasks.o
                0x000000000800940c                vTaskPriorityDisinheritAfterTimeout
 .text.pvTaskIncrementMutexHeldCount
                0x0000000008009528       0x28 ./Middlewares/Third_Party/FreeRTOS/Source/tasks.o
                0x0000000008009528                pvTaskIncrementMutexHeldCount
 .text.prvAddCurrentTaskToDelayedList
                0x0000000008009550       0xcc ./Middlewares/Third_Party/FreeRTOS/Source/tasks.o
 .text.pxPortInitialiseStack
                0x000000000800961c       0x68 ./Middlewares/Third_Party/FreeRTOS/Source/portable/GCC/ARM_CM4F/port.o
                0x000000000800961c                pxPortInitialiseStack
 .text.prvTaskExitError
                0x0000000008009684       0x58 ./Middlewares/Third_Party/FreeRTOS/Source/portable/GCC/ARM_CM4F/port.o
 *fill*         0x00000000080096dc        0x4 
 .text.SVC_Handler
                0x00000000080096e0       0x28 ./Middlewares/Third_Party/FreeRTOS/Source/portable/GCC/ARM_CM4F/port.o
                0x00000000080096e0                SVC_Handler
 .text.prvPortStartFirstTask
                0x0000000008009708       0x28 ./Middlewares/Third_Party/FreeRTOS/Source/portable/GCC/ARM_CM4F/port.o
 .text.xPortStartScheduler
                0x0000000008009730      0x144 ./Middlewares/Third_Party/FreeRTOS/Source/portable/GCC/ARM_CM4F/port.o
                0x0000000008009730                xPortStartScheduler
 .text.vPortEnterCritical
                0x0000000008009874       0x60 ./Middlewares/Third_Party/FreeRTOS/Source/portable/GCC/ARM_CM4F/port.o
                0x0000000008009874                vPortEnterCritical
 .text.vPortExitCritical
                0x00000000080098d4       0x54 ./Middlewares/Third_Party/FreeRTOS/Source/portable/GCC/ARM_CM4F/port.o
                0x00000000080098d4                vPortExitCritical
 *fill*         0x0000000008009928        0x8 
 .text.PendSV_Handler
                0x0000000008009930       0x68 ./Middlewares/Third_Party/FreeRTOS/Source/portable/GCC/ARM_CM4F/port.o
                0x0000000008009930                PendSV_Handler
 .text.SysTick_Handler
                0x0000000008009998       0x44 ./Middlewares/Third_Party/FreeRTOS/Source/portable/GCC/ARM_CM4F/port.o
                0x0000000008009998                SysTick_Handler
 .text.vPortSetupTimerInterrupt
                0x00000000080099dc       0x48 ./Middlewares/Third_Party/FreeRTOS/Source/portable/GCC/ARM_CM4F/port.o
                0x00000000080099dc                vPortSetupTimerInterrupt
 .text.vPortEnableVFP
                0x0000000008009a24       0x14 ./Middlewares/Third_Party/FreeRTOS/Source/portable/GCC/ARM_CM4F/port.o
 .text.vPortValidateInterruptPriority
                0x0000000008009a38       0x80 ./Middlewares/Third_Party/FreeRTOS/Source/portable/GCC/ARM_CM4F/port.o
                0x0000000008009a38                vPortValidateInterruptPriority
 .text.pvPortMalloc
                0x0000000008009ab8      0x198 ./Middlewares/Third_Party/FreeRTOS/Source/portable/MemMang/heap_4.o
                0x0000000008009ab8                pvPortMalloc
 .text.vPortFree
                0x0000000008009c50       0xc4 ./Middlewares/Third_Party/FreeRTOS/Source/portable/MemMang/heap_4.o
                0x0000000008009c50                vPortFree
 .text.prvHeapInit
                0x0000000008009d14       0xc4 ./Middlewares/Third_Party/FreeRTOS/Source/portable/MemMang/heap_4.o
 .text.prvInsertBlockIntoFreeList
                0x0000000008009dd8       0xb4 ./Middlewares/Third_Party/FreeRTOS/Source/portable/MemMang/heap_4.o
 .text.__errno  0x0000000008009e8c        0xc e:/program files (x86)/stm32cubeide_1.10.0/stm32cubeide/plugins/com.st.stm32cube.ide.mcu.externaltools.gnu-tools-for-stm32.10.3-2021.10.win32_1.0.0.202111181127/tools/bin/../lib/gcc/arm-none-eabi/10.3.1/../../../../arm-none-eabi/lib/thumb/v7e-m+fp/hard\libc_nano.a(lib_a-errno.o)
                0x0000000008009e8c                __errno
 .text.__libc_init_array
                0x0000000008009e98       0x48 e:/program files (x86)/stm32cubeide_1.10.0/stm32cubeide/plugins/com.st.stm32cube.ide.mcu.externaltools.gnu-tools-for-stm32.10.3-2021.10.win32_1.0.0.202111181127/tools/bin/../lib/gcc/arm-none-eabi/10.3.1/../../../../arm-none-eabi/lib/thumb/v7e-m+fp/hard\libc_nano.a(lib_a-init.o)
                0x0000000008009e98                __libc_init_array
 .text.__retarget_lock_acquire_recursive
                0x0000000008009ee0        0x2 e:/program files (x86)/stm32cubeide_1.10.0/stm32cubeide/plugins/com.st.stm32cube.ide.mcu.externaltools.gnu-tools-for-stm32.10.3-2021.10.win32_1.0.0.202111181127/tools/bin/../lib/gcc/arm-none-eabi/10.3.1/../../../../arm-none-eabi/lib/thumb/v7e-m+fp/hard\libc_nano.a(lib_a-lock.o)
                0x0000000008009ee0                __retarget_lock_acquire_recursive
 .text.__retarget_lock_release_recursive
                0x0000000008009ee2        0x2 e:/program files (x86)/stm32cubeide_1.10.0/stm32cubeide/plugins/com.st.stm32cube.ide.mcu.externaltools.gnu-tools-for-stm32.10.3-2021.10.win32_1.0.0.202111181127/tools/bin/../lib/gcc/arm-none-eabi/10.3.1/../../../../arm-none-eabi/lib/thumb/v7e-m+fp/hard\libc_nano.a(lib_a-lock.o)
                0x0000000008009ee2                __retarget_lock_release_recursive
 .text.memcpy   0x0000000008009ee4       0x1c e:/program files (x86)/stm32cubeide_1.10.0/stm32cubeide/plugins/com.st.stm32cube.ide.mcu.externaltools.gnu-tools-for-stm32.10.3-2021.10.win32_1.0.0.202111181127/tools/bin/../lib/gcc/arm-none-eabi/10.3.1/../../../../arm-none-eabi/lib/thumb/v7e-m+fp/hard\libc_nano.a(lib_a-memcpy-stub.o)
                0x0000000008009ee4                memcpy
 .text.memset   0x0000000008009f00       0x10 e:/program files (x86)/stm32cubeide_1.10.0/stm32cubeide/plugins/com.st.stm32cube.ide.mcu.externaltools.gnu-tools-for-stm32.10.3-2021.10.win32_1.0.0.202111181127/tools/bin/../lib/gcc/arm-none-eabi/10.3.1/../../../../arm-none-eabi/lib/thumb/v7e-m+fp/hard\libc_nano.a(lib_a-memset.o)
                0x0000000008009f00                memset
 .text.sbrk_aligned
                0x0000000008009f10       0x40 e:/program files (x86)/stm32cubeide_1.10.0/stm32cubeide/plugins/com.st.stm32cube.ide.mcu.externaltools.gnu-tools-for-stm32.10.3-2021.10.win32_1.0.0.202111181127/tools/bin/../lib/gcc/arm-none-eabi/10.3.1/../../../../arm-none-eabi/lib/thumb/v7e-m+fp/hard\libc_nano.a(lib_a-nano-mallocr.o)
 .text._malloc_r
                0x0000000008009f50       0xe8 e:/program files (x86)/stm32cubeide_1.10.0/stm32cubeide/plugins/com.st.stm32cube.ide.mcu.externaltools.gnu-tools-for-stm32.10.3-2021.10.win32_1.0.0.202111181127/tools/bin/../lib/gcc/arm-none-eabi/10.3.1/../../../../arm-none-eabi/lib/thumb/v7e-m+fp/hard\libc_nano.a(lib_a-nano-mallocr.o)
                0x0000000008009f50                _malloc_r
 .text.cleanup_glue
                0x000000000800a038       0x1a e:/program files (x86)/stm32cubeide_1.10.0/stm32cubeide/plugins/com.st.stm32cube.ide.mcu.externaltools.gnu-tools-for-stm32.10.3-2021.10.win32_1.0.0.202111181127/tools/bin/../lib/gcc/arm-none-eabi/10.3.1/../../../../arm-none-eabi/lib/thumb/v7e-m+fp/hard\libc_nano.a(lib_a-reent.o)
                0x000000000800a038                cleanup_glue
 *fill*         0x000000000800a052        0x2 
 .text._reclaim_reent
                0x000000000800a054       0xb8 e:/program files (x86)/stm32cubeide_1.10.0/stm32cubeide/plugins/com.st.stm32cube.ide.mcu.externaltools.gnu-tools-for-stm32.10.3-2021.10.win32_1.0.0.202111181127/tools/bin/../lib/gcc/arm-none-eabi/10.3.1/../../../../arm-none-eabi/lib/thumb/v7e-m+fp/hard\libc_nano.a(lib_a-reent.o)
                0x000000000800a054                _reclaim_reent
 .text._sbrk_r  0x000000000800a10c       0x20 e:/program files (x86)/stm32cubeide_1.10.0/stm32cubeide/plugins/com.st.stm32cube.ide.mcu.externaltools.gnu-tools-for-stm32.10.3-2021.10.win32_1.0.0.202111181127/tools/bin/../lib/gcc/arm-none-eabi/10.3.1/../../../../arm-none-eabi/lib/thumb/v7e-m+fp/hard\libc_nano.a(lib_a-sbrkr.o)
                0x000000000800a10c                _sbrk_r
 .text.sprintf  0x000000000800a12c       0x40 e:/program files (x86)/stm32cubeide_1.10.0/stm32cubeide/plugins/com.st.stm32cube.ide.mcu.externaltools.gnu-tools-for-stm32.10.3-2021.10.win32_1.0.0.202111181127/tools/bin/../lib/gcc/arm-none-eabi/10.3.1/../../../../arm-none-eabi/lib/thumb/v7e-m+fp/hard\libc_nano.a(lib_a-sprintf.o)
                0x000000000800a12c                siprintf
                0x000000000800a12c                sprintf
 .text.__malloc_lock
                0x000000000800a16c        0xc e:/program files (x86)/stm32cubeide_1.10.0/stm32cubeide/plugins/com.st.stm32cube.ide.mcu.externaltools.gnu-tools-for-stm32.10.3-2021.10.win32_1.0.0.202111181127/tools/bin/../lib/gcc/arm-none-eabi/10.3.1/../../../../arm-none-eabi/lib/thumb/v7e-m+fp/hard\libc_nano.a(lib_a-mlock.o)
                0x000000000800a16c                __malloc_lock
 .text.__malloc_unlock
                0x000000000800a178        0xc e:/program files (x86)/stm32cubeide_1.10.0/stm32cubeide/plugins/com.st.stm32cube.ide.mcu.externaltools.gnu-tools-for-stm32.10.3-2021.10.win32_1.0.0.202111181127/tools/bin/../lib/gcc/arm-none-eabi/10.3.1/../../../../arm-none-eabi/lib/thumb/v7e-m+fp/hard\libc_nano.a(lib_a-mlock.o)
                0x000000000800a178                __malloc_unlock
 .text._free_r  0x000000000800a184       0x98 e:/program files (x86)/stm32cubeide_1.10.0/stm32cubeide/plugins/com.st.stm32cube.ide.mcu.externaltools.gnu-tools-for-stm32.10.3-2021.10.win32_1.0.0.202111181127/tools/bin/../lib/gcc/arm-none-eabi/10.3.1/../../../../arm-none-eabi/lib/thumb/v7e-m+fp/hard\libc_nano.a(lib_a-nano-freer.o)
                0x000000000800a184                _free_r
 .text.__ssputs_r
                0x000000000800a21c       0xb6 e:/program files (x86)/stm32cubeide_1.10.0/stm32cubeide/plugins/com.st.stm32cube.ide.mcu.externaltools.gnu-tools-for-stm32.10.3-2021.10.win32_1.0.0.202111181127/tools/bin/../lib/gcc/arm-none-eabi/10.3.1/../../../../arm-none-eabi/lib/thumb/v7e-m+fp/hard\libc_nano.a(lib_a-nano-svfprintf.o)
                0x000000000800a21c                __ssputs_r
 *fill*         0x000000000800a2d2        0x2 
 .text._svfprintf_r
                0x000000000800a2d4      0x200 e:/program files (x86)/stm32cubeide_1.10.0/stm32cubeide/plugins/com.st.stm32cube.ide.mcu.externaltools.gnu-tools-for-stm32.10.3-2021.10.win32_1.0.0.202111181127/tools/bin/../lib/gcc/arm-none-eabi/10.3.1/../../../../arm-none-eabi/lib/thumb/v7e-m+fp/hard\libc_nano.a(lib_a-nano-svfprintf.o)
                0x000000000800a2d4                _svfiprintf_r
                0x000000000800a2d4                _svfprintf_r
 .text._printf_common
                0x000000000800a4d4       0xda e:/program files (x86)/stm32cubeide_1.10.0/stm32cubeide/plugins/com.st.stm32cube.ide.mcu.externaltools.gnu-tools-for-stm32.10.3-2021.10.win32_1.0.0.202111181127/tools/bin/../lib/gcc/arm-none-eabi/10.3.1/../../../../arm-none-eabi/lib/thumb/v7e-m+fp/hard\libc_nano.a(lib_a-nano-vfprintf_i.o)
                0x000000000800a4d4                _printf_common
 *fill*         0x000000000800a5ae        0x2 
 .text._printf_i
                0x000000000800a5b0      0x24c e:/program files (x86)/stm32cubeide_1.10.0/stm32cubeide/plugins/com.st.stm32cube.ide.mcu.externaltools.gnu-tools-for-stm32.10.3-2021.10.win32_1.0.0.202111181127/tools/bin/../lib/gcc/arm-none-eabi/10.3.1/../../../../arm-none-eabi/lib/thumb/v7e-m+fp/hard\libc_nano.a(lib_a-nano-vfprintf_i.o)
                0x000000000800a5b0                _printf_i
 .text.memmove  0x000000000800a7fc       0x34 e:/program files (x86)/stm32cubeide_1.10.0/stm32cubeide/plugins/com.st.stm32cube.ide.mcu.externaltools.gnu-tools-for-stm32.10.3-2021.10.win32_1.0.0.202111181127/tools/bin/../lib/gcc/arm-none-eabi/10.3.1/../../../../arm-none-eabi/lib/thumb/v7e-m+fp/hard\libc_nano.a(lib_a-memmove.o)
                0x000000000800a7fc                memmove
 .text._realloc_r
                0x000000000800a830       0x5e e:/program files (x86)/stm32cubeide_1.10.0/stm32cubeide/plugins/com.st.stm32cube.ide.mcu.externaltools.gnu-tools-for-stm32.10.3-2021.10.win32_1.0.0.202111181127/tools/bin/../lib/gcc/arm-none-eabi/10.3.1/../../../../arm-none-eabi/lib/thumb/v7e-m+fp/hard\libc_nano.a(lib_a-nano-reallocr.o)
                0x000000000800a830                _realloc_r
 .text._malloc_usable_size_r
                0x000000000800a88e       0x10 e:/program files (x86)/stm32cubeide_1.10.0/stm32cubeide/plugins/com.st.stm32cube.ide.mcu.externaltools.gnu-tools-for-stm32.10.3-2021.10.win32_1.0.0.202111181127/tools/bin/../lib/gcc/arm-none-eabi/10.3.1/../../../../arm-none-eabi/lib/thumb/v7e-m+fp/hard\libc_nano.a(lib_a-nano-msizer.o)
                0x000000000800a88e                _malloc_usable_size_r
 *(.glue_7)
 .glue_7        0x000000000800a89e        0x0 linker stubs
 *(.glue_7t)
 .glue_7t       0x000000000800a89e        0x0 linker stubs
 *(.eh_frame)
 *fill*         0x000000000800a89e        0x2 
 .eh_frame      0x000000000800a8a0        0x0 e:/program files (x86)/stm32cubeide_1.10.0/stm32cubeide/plugins/com.st.stm32cube.ide.mcu.externaltools.gnu-tools-for-stm32.10.3-2021.10.win32_1.0.0.202111181127/tools/bin/../lib/gcc/arm-none-eabi/10.3.1/thumb/v7e-m+fp/hard/crtbegin.o
 *(.init)
 .init          0x000000000800a8a0        0x4 e:/program files (x86)/stm32cubeide_1.10.0/stm32cubeide/plugins/com.st.stm32cube.ide.mcu.externaltools.gnu-tools-for-stm32.10.3-2021.10.win32_1.0.0.202111181127/tools/bin/../lib/gcc/arm-none-eabi/10.3.1/thumb/v7e-m+fp/hard/crti.o
                0x000000000800a8a0                _init
 .init          0x000000000800a8a4        0x8 e:/program files (x86)/stm32cubeide_1.10.0/stm32cubeide/plugins/com.st.stm32cube.ide.mcu.externaltools.gnu-tools-for-stm32.10.3-2021.10.win32_1.0.0.202111181127/tools/bin/../lib/gcc/arm-none-eabi/10.3.1/thumb/v7e-m+fp/hard/crtn.o
 *(.fini)
 .fini          0x000000000800a8ac        0x4 e:/program files (x86)/stm32cubeide_1.10.0/stm32cubeide/plugins/com.st.stm32cube.ide.mcu.externaltools.gnu-tools-for-stm32.10.3-2021.10.win32_1.0.0.202111181127/tools/bin/../lib/gcc/arm-none-eabi/10.3.1/thumb/v7e-m+fp/hard/crti.o
                0x000000000800a8ac                _fini
 .fini          0x000000000800a8b0        0x8 e:/program files (x86)/stm32cubeide_1.10.0/stm32cubeide/plugins/com.st.stm32cube.ide.mcu.externaltools.gnu-tools-for-stm32.10.3-2021.10.win32_1.0.0.202111181127/tools/bin/../lib/gcc/arm-none-eabi/10.3.1/thumb/v7e-m+fp/hard/crtn.o
                0x000000000800a8b8                . = ALIGN (0x4)
                0x000000000800a8b8                _etext = .

.vfp11_veneer   0x000000000800a8b8        0x0
 .vfp11_veneer  0x000000000800a8b8        0x0 linker stubs

.v4_bx          0x000000000800a8b8        0x0
 .v4_bx         0x000000000800a8b8        0x0 linker stubs

.iplt           0x000000000800a8b8        0x0
 .iplt          0x000000000800a8b8        0x0 e:/program files (x86)/stm32cubeide_1.10.0/stm32cubeide/plugins/com.st.stm32cube.ide.mcu.externaltools.gnu-tools-for-stm32.10.3-2021.10.win32_1.0.0.202111181127/tools/bin/../lib/gcc/arm-none-eabi/10.3.1/thumb/v7e-m+fp/hard/crtbegin.o

.rodata         0x000000000800a8b8      0x5b0
                0x000000000800a8b8                . = ALIGN (0x4)
 *(.rodata)
 .rodata        0x000000000800a8b8      0x416 ./Core/Src/File_Handling_RTOS.o
 *fill*         0x000000000800acce        0x2 
 .rodata        0x000000000800acd0       0x1f ./Core/Src/main.o
 *fill*         0x000000000800acef        0x1 
 .rodata        0x000000000800acf0       0x44 ./Middlewares/Third_Party/FatFs/src/ff.o
 .rodata        0x000000000800ad34        0x5 ./Middlewares/Third_Party/FreeRTOS/Source/tasks.o
 *(.rodata*)
 *fill*         0x000000000800ad39        0x3 
 .rodata.AHBPrescTable
                0x000000000800ad3c       0x10 ./Core/Src/system_stm32f4xx.o
                0x000000000800ad3c                AHBPrescTable
 .rodata.APBPrescTable
                0x000000000800ad4c        0x8 ./Core/Src/system_stm32f4xx.o
                0x000000000800ad4c                APBPrescTable
 .rodata.ExCvt  0x000000000800ad54       0x80 ./Middlewares/Third_Party/FatFs/src/ff.o
 .rodata.__sf_fake_stderr
                0x000000000800add4       0x20 e:/program files (x86)/stm32cubeide_1.10.0/stm32cubeide/plugins/com.st.stm32cube.ide.mcu.externaltools.gnu-tools-for-stm32.10.3-2021.10.win32_1.0.0.202111181127/tools/bin/../lib/gcc/arm-none-eabi/10.3.1/../../../../arm-none-eabi/lib/thumb/v7e-m+fp/hard\libc_nano.a(lib_a-findfp.o)
                0x000000000800add4                __sf_fake_stderr
 .rodata.__sf_fake_stdin
                0x000000000800adf4       0x20 e:/program files (x86)/stm32cubeide_1.10.0/stm32cubeide/plugins/com.st.stm32cube.ide.mcu.externaltools.gnu-tools-for-stm32.10.3-2021.10.win32_1.0.0.202111181127/tools/bin/../lib/gcc/arm-none-eabi/10.3.1/../../../../arm-none-eabi/lib/thumb/v7e-m+fp/hard\libc_nano.a(lib_a-findfp.o)
                0x000000000800adf4                __sf_fake_stdin
 .rodata.__sf_fake_stdout
                0x000000000800ae14       0x20 e:/program files (x86)/stm32cubeide_1.10.0/stm32cubeide/plugins/com.st.stm32cube.ide.mcu.externaltools.gnu-tools-for-stm32.10.3-2021.10.win32_1.0.0.202111181127/tools/bin/../lib/gcc/arm-none-eabi/10.3.1/../../../../arm-none-eabi/lib/thumb/v7e-m+fp/hard\libc_nano.a(lib_a-findfp.o)
                0x000000000800ae14                __sf_fake_stdout
 .rodata._svfprintf_r.str1.1
                0x000000000800ae34       0x11 e:/program files (x86)/stm32cubeide_1.10.0/stm32cubeide/plugins/com.st.stm32cube.ide.mcu.externaltools.gnu-tools-for-stm32.10.3-2021.10.win32_1.0.0.202111181127/tools/bin/../lib/gcc/arm-none-eabi/10.3.1/../../../../arm-none-eabi/lib/thumb/v7e-m+fp/hard\libc_nano.a(lib_a-nano-svfprintf.o)
 .rodata._printf_i.str1.1
                0x000000000800ae45       0x22 e:/program files (x86)/stm32cubeide_1.10.0/stm32cubeide/plugins/com.st.stm32cube.ide.mcu.externaltools.gnu-tools-for-stm32.10.3-2021.10.win32_1.0.0.202111181127/tools/bin/../lib/gcc/arm-none-eabi/10.3.1/../../../../arm-none-eabi/lib/thumb/v7e-m+fp/hard\libc_nano.a(lib_a-nano-vfprintf_i.o)
                0x000000000800ae68                . = ALIGN (0x4)
 *fill*         0x000000000800ae67        0x1 

.ARM.extab      0x000000000800ae68        0x0
                0x000000000800ae68                . = ALIGN (0x4)
 *(.ARM.extab* .gnu.linkonce.armextab.*)
                0x000000000800ae68                . = ALIGN (0x4)

.ARM            0x000000000800ae68        0x8
                0x000000000800ae68                . = ALIGN (0x4)
                0x000000000800ae68                __exidx_start = .
 *(.ARM.exidx*)
 .ARM.exidx     0x000000000800ae68        0x8 e:/program files (x86)/stm32cubeide_1.10.0/stm32cubeide/plugins/com.st.stm32cube.ide.mcu.externaltools.gnu-tools-for-stm32.10.3-2021.10.win32_1.0.0.202111181127/tools/bin/../lib/gcc/arm-none-eabi/10.3.1/thumb/v7e-m+fp/hard\libgcc.a(_udivmoddi4.o)
                0x000000000800ae70                __exidx_end = .
                0x000000000800ae70                . = ALIGN (0x4)

.rel.dyn        0x000000000800ae70        0x0
 .rel.iplt      0x000000000800ae70        0x0 e:/program files (x86)/stm32cubeide_1.10.0/stm32cubeide/plugins/com.st.stm32cube.ide.mcu.externaltools.gnu-tools-for-stm32.10.3-2021.10.win32_1.0.0.202111181127/tools/bin/../lib/gcc/arm-none-eabi/10.3.1/thumb/v7e-m+fp/hard/crtbegin.o

.preinit_array  0x000000000800ae70        0x0
                0x000000000800ae70                . = ALIGN (0x4)
                0x000000000800ae70                PROVIDE (__preinit_array_start = .)
 *(.preinit_array*)
                0x000000000800ae70                PROVIDE (__preinit_array_end = .)
                0x000000000800ae70                . = ALIGN (0x4)

.init_array     0x000000000800ae70        0x4
                0x000000000800ae70                . = ALIGN (0x4)
                0x000000000800ae70                PROVIDE (__init_array_start = .)
 *(SORT_BY_NAME(.init_array.*))
 *(.init_array*)
 .init_array    0x000000000800ae70        0x4 e:/program files (x86)/stm32cubeide_1.10.0/stm32cubeide/plugins/com.st.stm32cube.ide.mcu.externaltools.gnu-tools-for-stm32.10.3-2021.10.win32_1.0.0.202111181127/tools/bin/../lib/gcc/arm-none-eabi/10.3.1/thumb/v7e-m+fp/hard/crtbegin.o
                0x000000000800ae74                PROVIDE (__init_array_end = .)
                0x000000000800ae74                . = ALIGN (0x4)

.fini_array     0x000000000800ae74        0x4
                0x000000000800ae74                . = ALIGN (0x4)
                [!provide]                        PROVIDE (__fini_array_start = .)
 *(SORT_BY_NAME(.fini_array.*))
 *(.fini_array*)
 .fini_array    0x000000000800ae74        0x4 e:/program files (x86)/stm32cubeide_1.10.0/stm32cubeide/plugins/com.st.stm32cube.ide.mcu.externaltools.gnu-tools-for-stm32.10.3-2021.10.win32_1.0.0.202111181127/tools/bin/../lib/gcc/arm-none-eabi/10.3.1/thumb/v7e-m+fp/hard/crtbegin.o
                [!provide]                        PROVIDE (__fini_array_end = .)
                0x000000000800ae78                . = ALIGN (0x4)
                0x000000000800ae78                _sidata = LOADADDR (.data)

.data           0x0000000020000000       0x98 load address 0x000000000800ae78
                0x0000000020000000                . = ALIGN (0x4)
                0x0000000020000000                _sdata = .
 *(.data)
 *(.data*)
 .data.Stat     0x0000000020000000        0x1 ./Core/Src/fatfs_sd.o
 *fill*         0x0000000020000001        0x3 
 .data.tx_data  0x0000000020000004        0xa ./Core/Src/main.o
                0x0000000020000004                tx_data
 *fill*         0x000000002000000e        0x2 
 .data.SystemCoreClock
                0x0000000020000010        0x4 ./Core/Src/system_stm32f4xx.o
                0x0000000020000010                SystemCoreClock
 .data.uwTickPrio
                0x0000000020000014        0x4 ./Drivers/STM32F4xx_HAL_Driver/Src/stm32f4xx_hal.o
                0x0000000020000014                uwTickPrio
 .data.uwTickFreq
                0x0000000020000018        0x1 ./Drivers/STM32F4xx_HAL_Driver/Src/stm32f4xx_hal.o
                0x0000000020000018                uwTickFreq
 *fill*         0x0000000020000019        0x3 
 .data.USER_Driver
                0x000000002000001c       0x14 ./FATFS/Target/user_diskio.o
                0x000000002000001c                USER_Driver
 .data.uxCriticalNesting
                0x0000000020000030        0x4 ./Middlewares/Third_Party/FreeRTOS/Source/portable/GCC/ARM_CM4F/port.o
 .data._impure_ptr
                0x0000000020000034        0x4 e:/program files (x86)/stm32cubeide_1.10.0/stm32cubeide/plugins/com.st.stm32cube.ide.mcu.externaltools.gnu-tools-for-stm32.10.3-2021.10.win32_1.0.0.202111181127/tools/bin/../lib/gcc/arm-none-eabi/10.3.1/../../../../arm-none-eabi/lib/thumb/v7e-m+fp/hard\libc_nano.a(lib_a-impure.o)
                0x0000000020000034                _impure_ptr
 .data.impure_data
                0x0000000020000038       0x60 e:/program files (x86)/stm32cubeide_1.10.0/stm32cubeide/plugins/com.st.stm32cube.ide.mcu.externaltools.gnu-tools-for-stm32.10.3-2021.10.win32_1.0.0.202111181127/tools/bin/../lib/gcc/arm-none-eabi/10.3.1/../../../../arm-none-eabi/lib/thumb/v7e-m+fp/hard\libc_nano.a(lib_a-impure.o)
 *(.RamFunc)
 *(.RamFunc*)
                0x0000000020000098                . = ALIGN (0x4)
                0x0000000020000098                _edata = .

.igot.plt       0x0000000020000098        0x0 load address 0x000000000800af10
 .igot.plt      0x0000000020000098        0x0 e:/program files (x86)/stm32cubeide_1.10.0/stm32cubeide/plugins/com.st.stm32cube.ide.mcu.externaltools.gnu-tools-for-stm32.10.3-2021.10.win32_1.0.0.202111181127/tools/bin/../lib/gcc/arm-none-eabi/10.3.1/thumb/v7e-m+fp/hard/crtbegin.o
                0x0000000020000098                . = ALIGN (0x4)

.bss            0x0000000020000098     0x4640 load address 0x000000000800af10
                0x0000000020000098                _sbss = .
                0x0000000020000098                __bss_start__ = _sbss
 *(.bss)
 .bss           0x0000000020000098       0x1c e:/program files (x86)/stm32cubeide_1.10.0/stm32cubeide/plugins/com.st.stm32cube.ide.mcu.externaltools.gnu-tools-for-stm32.10.3-2021.10.win32_1.0.0.202111181127/tools/bin/../lib/gcc/arm-none-eabi/10.3.1/thumb/v7e-m+fp/hard/crtbegin.o
 *(.bss*)
 .bss.fs        0x00000000200000b4      0x234 ./Core/Src/File_Handling_RTOS.o
                0x00000000200000b4                fs
 .bss.fil       0x00000000200002e8      0x230 ./Core/Src/File_Handling_RTOS.o
                0x00000000200002e8                fil
 .bss.fno       0x0000000020000518       0x18 ./Core/Src/File_Handling_RTOS.o
                0x0000000020000518                fno
 .bss.fresult   0x0000000020000530        0x1 ./Core/Src/File_Handling_RTOS.o
                0x0000000020000530                fresult
 *fill*         0x0000000020000531        0x3 
 .bss.bw        0x0000000020000534        0x4 ./Core/Src/File_Handling_RTOS.o
                0x0000000020000534                bw
 .bss.pfs       0x0000000020000538        0x4 ./Core/Src/File_Handling_RTOS.o
                0x0000000020000538                pfs
 .bss.fre_clust
                0x000000002000053c        0x4 ./Core/Src/File_Handling_RTOS.o
                0x000000002000053c                fre_clust
 .bss.total     0x0000000020000540        0x4 ./Core/Src/File_Handling_RTOS.o
                0x0000000020000540                total
 .bss.free_space
                0x0000000020000544        0x4 ./Core/Src/File_Handling_RTOS.o
                0x0000000020000544                free_space
 .bss.CardType  0x0000000020000548        0x1 ./Core/Src/fatfs_sd.o
 .bss.PowerFlag
                0x0000000020000549        0x1 ./Core/Src/fatfs_sd.o
 *fill*         0x000000002000054a        0x2 
 .bss.xIdleTaskTCBBuffer
                0x000000002000054c       0xb4 ./Core/Src/freertos.o
 .bss.xIdleStack
                0x0000000020000600      0x200 ./Core/Src/freertos.o
 .bss.hspi1     0x0000000020000800       0x58 ./Core/Src/main.o
                0x0000000020000800                hspi1
 .bss.huart2    0x0000000020000858       0x44 ./Core/Src/main.o
                0x0000000020000858                huart2
 .bss.rx_data   0x000000002000089c        0x1 ./Core/Src/main.o
                0x000000002000089c                rx_data
 *fill*         0x000000002000089d        0x3 
 .bss.SDCARD_Task_Hnadler
                0x00000000200008a0        0x4 ./Core/Src/main.o
                0x00000000200008a0                SDCARD_Task_Hnadler
 .bss.htim6     0x00000000200008a4       0x48 ./Core/Src/stm32f4xx_hal_timebase_tim.o
                0x00000000200008a4                htim6
 .bss.Timer1    0x00000000200008ec        0x1 ./Core/Src/stm32f4xx_it.o
                0x00000000200008ec                Timer1
 .bss.Timer2    0x00000000200008ed        0x1 ./Core/Src/stm32f4xx_it.o
                0x00000000200008ed                Timer2
 *fill*         0x00000000200008ee        0x2 
 .bss.__sbrk_heap_end
                0x00000000200008f0        0x4 ./Core/Src/sysmem.o
 .bss.uwTick    0x00000000200008f4        0x4 ./Drivers/STM32F4xx_HAL_Driver/Src/stm32f4xx_hal.o
                0x00000000200008f4                uwTick
 .bss.retUSER   0x00000000200008f8        0x1 ./FATFS/App/fatfs.o
                0x00000000200008f8                retUSER
 *fill*         0x00000000200008f9        0x3 
 .bss.USERPath  0x00000000200008fc        0x4 ./FATFS/App/fatfs.o
                0x00000000200008fc                USERPath
 .bss.FatFs     0x0000000020000900        0x4 ./Middlewares/Third_Party/FatFs/src/ff.o
 .bss.Fsid      0x0000000020000904        0x2 ./Middlewares/Third_Party/FatFs/src/ff.o
 *fill*         0x0000000020000906        0x2 
 .bss.Files     0x0000000020000908       0x20 ./Middlewares/Third_Party/FatFs/src/ff.o
 .bss.disk      0x0000000020000928        0xc ./Middlewares/Third_Party/FatFs/src/ff_gen_drv.o
                0x0000000020000928                disk
 .bss.xQueueRegistry
                0x0000000020000934       0x40 ./Middlewares/Third_Party/FreeRTOS/Source/queue.o
                0x0000000020000934                xQueueRegistry
 .bss.pxCurrentTCB
                0x0000000020000974        0x4 ./Middlewares/Third_Party/FreeRTOS/Source/tasks.o
                0x0000000020000974                pxCurrentTCB
 .bss.pxReadyTasksLists
                0x0000000020000978       0x8c ./Middlewares/Third_Party/FreeRTOS/Source/tasks.o
 .bss.xDelayedTaskList1
                0x0000000020000a04       0x14 ./Middlewares/Third_Party/FreeRTOS/Source/tasks.o
 .bss.xDelayedTaskList2
                0x0000000020000a18       0x14 ./Middlewares/Third_Party/FreeRTOS/Source/tasks.o
 .bss.pxDelayedTaskList
                0x0000000020000a2c        0x4 ./Middlewares/Third_Party/FreeRTOS/Source/tasks.o
 .bss.pxOverflowDelayedTaskList
                0x0000000020000a30        0x4 ./Middlewares/Third_Party/FreeRTOS/Source/tasks.o
 .bss.xPendingReadyList
                0x0000000020000a34       0x14 ./Middlewares/Third_Party/FreeRTOS/Source/tasks.o
 .bss.xTasksWaitingTermination
                0x0000000020000a48       0x14 ./Middlewares/Third_Party/FreeRTOS/Source/tasks.o
 .bss.uxDeletedTasksWaitingCleanUp
                0x0000000020000a5c        0x4 ./Middlewares/Third_Party/FreeRTOS/Source/tasks.o
 .bss.xSuspendedTaskList
                0x0000000020000a60       0x14 ./Middlewares/Third_Party/FreeRTOS/Source/tasks.o
 .bss.uxCurrentNumberOfTasks
                0x0000000020000a74        0x4 ./Middlewares/Third_Party/FreeRTOS/Source/tasks.o
 .bss.xTickCount
                0x0000000020000a78        0x4 ./Middlewares/Third_Party/FreeRTOS/Source/tasks.o
 .bss.uxTopReadyPriority
                0x0000000020000a7c        0x4 ./Middlewares/Third_Party/FreeRTOS/Source/tasks.o
 .bss.xSchedulerRunning
                0x0000000020000a80        0x4 ./Middlewares/Third_Party/FreeRTOS/Source/tasks.o
 .bss.xPendedTicks
                0x0000000020000a84        0x4 ./Middlewares/Third_Party/FreeRTOS/Source/tasks.o
 .bss.xYieldPending
                0x0000000020000a88        0x4 ./Middlewares/Third_Party/FreeRTOS/Source/tasks.o
 .bss.xNumOfOverflows
                0x0000000020000a8c        0x4 ./Middlewares/Third_Party/FreeRTOS/Source/tasks.o
 .bss.uxTaskNumber
                0x0000000020000a90        0x4 ./Middlewares/Third_Party/FreeRTOS/Source/tasks.o
 .bss.xNextTaskUnblockTime
                0x0000000020000a94        0x4 ./Middlewares/Third_Party/FreeRTOS/Source/tasks.o
 .bss.xIdleTaskHandle
                0x0000000020000a98        0x4 ./Middlewares/Third_Party/FreeRTOS/Source/tasks.o
 .bss.uxSchedulerSuspended
                0x0000000020000a9c        0x4 ./Middlewares/Third_Party/FreeRTOS/Source/tasks.o
 .bss.ucMaxSysCallPriority
                0x0000000020000aa0        0x1 ./Middlewares/Third_Party/FreeRTOS/Source/portable/GCC/ARM_CM4F/port.o
 *fill*         0x0000000020000aa1        0x3 
 .bss.ulMaxPRIGROUPValue
                0x0000000020000aa4        0x4 ./Middlewares/Third_Party/FreeRTOS/Source/portable/GCC/ARM_CM4F/port.o
 .bss.ucHeap    0x0000000020000aa8     0x3c00 ./Middlewares/Third_Party/FreeRTOS/Source/portable/MemMang/heap_4.o
 .bss.xStart    0x00000000200046a8        0x8 ./Middlewares/Third_Party/FreeRTOS/Source/portable/MemMang/heap_4.o
 .bss.pxEnd     0x00000000200046b0        0x4 ./Middlewares/Third_Party/FreeRTOS/Source/portable/MemMang/heap_4.o
 .bss.xFreeBytesRemaining
                0x00000000200046b4        0x4 ./Middlewares/Third_Party/FreeRTOS/Source/portable/MemMang/heap_4.o
 .bss.xMinimumEverFreeBytesRemaining
                0x00000000200046b8        0x4 ./Middlewares/Third_Party/FreeRTOS/Source/portable/MemMang/heap_4.o
 .bss.xNumberOfSuccessfulAllocations
                0x00000000200046bc        0x4 ./Middlewares/Third_Party/FreeRTOS/Source/portable/MemMang/heap_4.o
 .bss.xNumberOfSuccessfulFrees
                0x00000000200046c0        0x4 ./Middlewares/Third_Party/FreeRTOS/Source/portable/MemMang/heap_4.o
 .bss.xBlockAllocatedBit
                0x00000000200046c4        0x4 ./Middlewares/Third_Party/FreeRTOS/Source/portable/MemMang/heap_4.o
 .bss.__lock___malloc_recursive_mutex
                0x00000000200046c8        0x1 e:/program files (x86)/stm32cubeide_1.10.0/stm32cubeide/plugins/com.st.stm32cube.ide.mcu.externaltools.gnu-tools-for-stm32.10.3-2021.10.win32_1.0.0.202111181127/tools/bin/../lib/gcc/arm-none-eabi/10.3.1/../../../../arm-none-eabi/lib/thumb/v7e-m+fp/hard\libc_nano.a(lib_a-lock.o)
                0x00000000200046c8                __lock___malloc_recursive_mutex
 *fill*         0x00000000200046c9        0x3 
 .bss.__malloc_free_list
                0x00000000200046cc        0x4 e:/program files (x86)/stm32cubeide_1.10.0/stm32cubeide/plugins/com.st.stm32cube.ide.mcu.externaltools.gnu-tools-for-stm32.10.3-2021.10.win32_1.0.0.202111181127/tools/bin/../lib/gcc/arm-none-eabi/10.3.1/../../../../arm-none-eabi/lib/thumb/v7e-m+fp/hard\libc_nano.a(lib_a-nano-mallocr.o)
                0x00000000200046cc                __malloc_free_list
 .bss.__malloc_sbrk_start
                0x00000000200046d0        0x4 e:/program files (x86)/stm32cubeide_1.10.0/stm32cubeide/plugins/com.st.stm32cube.ide.mcu.externaltools.gnu-tools-for-stm32.10.3-2021.10.win32_1.0.0.202111181127/tools/bin/../lib/gcc/arm-none-eabi/10.3.1/../../../../arm-none-eabi/lib/thumb/v7e-m+fp/hard\libc_nano.a(lib_a-nano-mallocr.o)
                0x00000000200046d0                __malloc_sbrk_start
 .bss.errno     0x00000000200046d4        0x4 e:/program files (x86)/stm32cubeide_1.10.0/stm32cubeide/plugins/com.st.stm32cube.ide.mcu.externaltools.gnu-tools-for-stm32.10.3-2021.10.win32_1.0.0.202111181127/tools/bin/../lib/gcc/arm-none-eabi/10.3.1/../../../../arm-none-eabi/lib/thumb/v7e-m+fp/hard\libc_nano.a(lib_a-reent.o)
                0x00000000200046d4                errno
 *(COMMON)
                0x00000000200046d8                . = ALIGN (0x4)
                0x00000000200046d8                _ebss = .
                0x00000000200046d8                __bss_end__ = _ebss

._user_heap_stack
                0x00000000200046d8      0x600 load address 0x000000000800af10
                0x00000000200046d8                . = ALIGN (0x8)
                [!provide]                        PROVIDE (end = .)
                0x00000000200046d8                PROVIDE (_end = .)
                0x00000000200048d8                . = (. + _Min_Heap_Size)
 *fill*         0x00000000200046d8      0x200 
                0x0000000020004cd8                . = (. + _Min_Stack_Size)
 *fill*         0x00000000200048d8      0x400 
                0x0000000020004cd8                . = ALIGN (0x8)

/DISCARD/
 libc.a(*)
 libm.a(*)
 libgcc.a(*)

.ARM.attributes
                0x0000000000000000       0x30
 *(.ARM.attributes)
 .ARM.attributes
                0x0000000000000000       0x1e e:/program files (x86)/stm32cubeide_1.10.0/stm32cubeide/plugins/com.st.stm32cube.ide.mcu.externaltools.gnu-tools-for-stm32.10.3-2021.10.win32_1.0.0.202111181127/tools/bin/../lib/gcc/arm-none-eabi/10.3.1/thumb/v7e-m+fp/hard/crti.o
 .ARM.attributes
                0x000000000000001e       0x34 e:/program files (x86)/stm32cubeide_1.10.0/stm32cubeide/plugins/com.st.stm32cube.ide.mcu.externaltools.gnu-tools-for-stm32.10.3-2021.10.win32_1.0.0.202111181127/tools/bin/../lib/gcc/arm-none-eabi/10.3.1/thumb/v7e-m+fp/hard/crtbegin.o
 .ARM.attributes
                0x0000000000000052       0x34 ./Core/Src/File_Handling_RTOS.o
 .ARM.attributes
                0x0000000000000086       0x34 ./Core/Src/fatfs_sd.o
 .ARM.attributes
                0x00000000000000ba       0x34 ./Core/Src/freertos.o
 .ARM.attributes
                0x00000000000000ee       0x34 ./Core/Src/main.o
 .ARM.attributes
                0x0000000000000122       0x34 ./Core/Src/stm32f4xx_hal_msp.o
 .ARM.attributes
                0x0000000000000156       0x34 ./Core/Src/stm32f4xx_hal_timebase_tim.o
 .ARM.attributes
                0x000000000000018a       0x34 ./Core/Src/stm32f4xx_it.o
 .ARM.attributes
                0x00000000000001be       0x34 ./Core/Src/sysmem.o
 .ARM.attributes
                0x00000000000001f2       0x34 ./Core/Src/system_stm32f4xx.o
 .ARM.attributes
                0x0000000000000226       0x21 ./Core/Startup/startup_stm32f446retx.o
 .ARM.attributes
                0x0000000000000247       0x34 ./Drivers/STM32F4xx_HAL_Driver/Src/stm32f4xx_hal.o
 .ARM.attributes
                0x000000000000027b       0x34 ./Drivers/STM32F4xx_HAL_Driver/Src/stm32f4xx_hal_cortex.o
 .ARM.attributes
                0x00000000000002af       0x34 ./Drivers/STM32F4xx_HAL_Driver/Src/stm32f4xx_hal_gpio.o
 .ARM.attributes
                0x00000000000002e3       0x34 ./Drivers/STM32F4xx_HAL_Driver/Src/stm32f4xx_hal_rcc.o
 .ARM.attributes
                0x0000000000000317       0x34 ./Drivers/STM32F4xx_HAL_Driver/Src/stm32f4xx_hal_rcc_ex.o
 .ARM.attributes
                0x000000000000034b       0x34 ./Drivers/STM32F4xx_HAL_Driver/Src/stm32f4xx_hal_spi.o
 .ARM.attributes
                0x000000000000037f       0x34 ./Drivers/STM32F4xx_HAL_Driver/Src/stm32f4xx_hal_tim.o
 .ARM.attributes
                0x00000000000003b3       0x34 ./Drivers/STM32F4xx_HAL_Driver/Src/stm32f4xx_hal_tim_ex.o
 .ARM.attributes
                0x00000000000003e7       0x34 ./Drivers/STM32F4xx_HAL_Driver/Src/stm32f4xx_hal_uart.o
 .ARM.attributes
                0x000000000000041b       0x34 ./FATFS/App/fatfs.o
 .ARM.attributes
                0x000000000000044f       0x34 ./FATFS/Target/user_diskio.o
 .ARM.attributes
                0x0000000000000483       0x34 ./Middlewares/Third_Party/FatFs/src/diskio.o
 .ARM.attributes
                0x00000000000004b7       0x34 ./Middlewares/Third_Party/FatFs/src/ff.o
 .ARM.attributes
                0x00000000000004eb       0x34 ./Middlewares/Third_Party/FatFs/src/ff_gen_drv.o
 .ARM.attributes
                0x000000000000051f       0x34 ./Middlewares/Third_Party/FatFs/src/option/syscall.o
 .ARM.attributes
                0x0000000000000553       0x34 ./Middlewares/Third_Party/FreeRTOS/Source/CMSIS_RTOS/cmsis_os.o
 .ARM.attributes
                0x0000000000000587       0x34 ./Middlewares/Third_Party/FreeRTOS/Source/list.o
 .ARM.attributes
                0x00000000000005bb       0x34 ./Middlewares/Third_Party/FreeRTOS/Source/queue.o
 .ARM.attributes
                0x00000000000005ef       0x34 ./Middlewares/Third_Party/FreeRTOS/Source/tasks.o
 .ARM.attributes
                0x0000000000000623       0x34 ./Middlewares/Third_Party/FreeRTOS/Source/portable/GCC/ARM_CM4F/port.o
 .ARM.attributes
                0x0000000000000657       0x34 ./Middlewares/Third_Party/FreeRTOS/Source/portable/MemMang/heap_4.o
 .ARM.attributes
                0x000000000000068b       0x34 e:/program files (x86)/stm32cubeide_1.10.0/stm32cubeide/plugins/com.st.stm32cube.ide.mcu.externaltools.gnu-tools-for-stm32.10.3-2021.10.win32_1.0.0.202111181127/tools/bin/../lib/gcc/arm-none-eabi/10.3.1/../../../../arm-none-eabi/lib/thumb/v7e-m+fp/hard\libc_nano.a(lib_a-errno.o)
 .ARM.attributes
                0x00000000000006bf       0x34 e:/program files (x86)/stm32cubeide_1.10.0/stm32cubeide/plugins/com.st.stm32cube.ide.mcu.externaltools.gnu-tools-for-stm32.10.3-2021.10.win32_1.0.0.202111181127/tools/bin/../lib/gcc/arm-none-eabi/10.3.1/../../../../arm-none-eabi/lib/thumb/v7e-m+fp/hard\libc_nano.a(lib_a-findfp.o)
 .ARM.attributes
                0x00000000000006f3       0x34 e:/program files (x86)/stm32cubeide_1.10.0/stm32cubeide/plugins/com.st.stm32cube.ide.mcu.externaltools.gnu-tools-for-stm32.10.3-2021.10.win32_1.0.0.202111181127/tools/bin/../lib/gcc/arm-none-eabi/10.3.1/../../../../arm-none-eabi/lib/thumb/v7e-m+fp/hard\libc_nano.a(lib_a-impure.o)
 .ARM.attributes
                0x0000000000000727       0x34 e:/program files (x86)/stm32cubeide_1.10.0/stm32cubeide/plugins/com.st.stm32cube.ide.mcu.externaltools.gnu-tools-for-stm32.10.3-2021.10.win32_1.0.0.202111181127/tools/bin/../lib/gcc/arm-none-eabi/10.3.1/../../../../arm-none-eabi/lib/thumb/v7e-m+fp/hard\libc_nano.a(lib_a-init.o)
 .ARM.attributes
                0x000000000000075b       0x34 e:/program files (x86)/stm32cubeide_1.10.0/stm32cubeide/plugins/com.st.stm32cube.ide.mcu.externaltools.gnu-tools-for-stm32.10.3-2021.10.win32_1.0.0.202111181127/tools/bin/../lib/gcc/arm-none-eabi/10.3.1/../../../../arm-none-eabi/lib/thumb/v7e-m+fp/hard\libc_nano.a(lib_a-lock.o)
 .ARM.attributes
                0x000000000000078f       0x34 e:/program files (x86)/stm32cubeide_1.10.0/stm32cubeide/plugins/com.st.stm32cube.ide.mcu.externaltools.gnu-tools-for-stm32.10.3-2021.10.win32_1.0.0.202111181127/tools/bin/../lib/gcc/arm-none-eabi/10.3.1/../../../../arm-none-eabi/lib/thumb/v7e-m+fp/hard\libc_nano.a(lib_a-memcpy-stub.o)
 .ARM.attributes
                0x00000000000007c3       0x34 e:/program files (x86)/stm32cubeide_1.10.0/stm32cubeide/plugins/com.st.stm32cube.ide.mcu.externaltools.gnu-tools-for-stm32.10.3-2021.10.win32_1.0.0.202111181127/tools/bin/../lib/gcc/arm-none-eabi/10.3.1/../../../../arm-none-eabi/lib/thumb/v7e-m+fp/hard\libc_nano.a(lib_a-memset.o)
 .ARM.attributes
                0x00000000000007f7       0x34 e:/program files (x86)/stm32cubeide_1.10.0/stm32cubeide/plugins/com.st.stm32cube.ide.mcu.externaltools.gnu-tools-for-stm32.10.3-2021.10.win32_1.0.0.202111181127/tools/bin/../lib/gcc/arm-none-eabi/10.3.1/../../../../arm-none-eabi/lib/thumb/v7e-m+fp/hard\libc_nano.a(lib_a-nano-mallocr.o)
 .ARM.attributes
                0x000000000000082b       0x34 e:/program files (x86)/stm32cubeide_1.10.0/stm32cubeide/plugins/com.st.stm32cube.ide.mcu.externaltools.gnu-tools-for-stm32.10.3-2021.10.win32_1.0.0.202111181127/tools/bin/../lib/gcc/arm-none-eabi/10.3.1/../../../../arm-none-eabi/lib/thumb/v7e-m+fp/hard\libc_nano.a(lib_a-reent.o)
 .ARM.attributes
                0x000000000000085f       0x34 e:/program files (x86)/stm32cubeide_1.10.0/stm32cubeide/plugins/com.st.stm32cube.ide.mcu.externaltools.gnu-tools-for-stm32.10.3-2021.10.win32_1.0.0.202111181127/tools/bin/../lib/gcc/arm-none-eabi/10.3.1/../../../../arm-none-eabi/lib/thumb/v7e-m+fp/hard\libc_nano.a(lib_a-sbrkr.o)
 .ARM.attributes
                0x0000000000000893       0x34 e:/program files (x86)/stm32cubeide_1.10.0/stm32cubeide/plugins/com.st.stm32cube.ide.mcu.externaltools.gnu-tools-for-stm32.10.3-2021.10.win32_1.0.0.202111181127/tools/bin/../lib/gcc/arm-none-eabi/10.3.1/../../../../arm-none-eabi/lib/thumb/v7e-m+fp/hard\libc_nano.a(lib_a-sprintf.o)
 .ARM.attributes
                0x00000000000008c7       0x1c e:/program files (x86)/stm32cubeide_1.10.0/stm32cubeide/plugins/com.st.stm32cube.ide.mcu.externaltools.gnu-tools-for-stm32.10.3-2021.10.win32_1.0.0.202111181127/tools/bin/../lib/gcc/arm-none-eabi/10.3.1/../../../../arm-none-eabi/lib/thumb/v7e-m+fp/hard\libc_nano.a(lib_a-strcmp.o)
 .ARM.attributes
                0x00000000000008e3       0x17 e:/program files (x86)/stm32cubeide_1.10.0/stm32cubeide/plugins/com.st.stm32cube.ide.mcu.externaltools.gnu-tools-for-stm32.10.3-2021.10.win32_1.0.0.202111181127/tools/bin/../lib/gcc/arm-none-eabi/10.3.1/../../../../arm-none-eabi/lib/thumb/v7e-m+fp/hard\libc_nano.a(lib_a-strlen.o)
 .ARM.attributes
                0x00000000000008fa       0x34 e:/program files (x86)/stm32cubeide_1.10.0/stm32cubeide/plugins/com.st.stm32cube.ide.mcu.externaltools.gnu-tools-for-stm32.10.3-2021.10.win32_1.0.0.202111181127/tools/bin/../lib/gcc/arm-none-eabi/10.3.1/../../../../arm-none-eabi/lib/thumb/v7e-m+fp/hard\libc_nano.a(lib_a-mlock.o)
 .ARM.attributes
                0x000000000000092e       0x34 e:/program files (x86)/stm32cubeide_1.10.0/stm32cubeide/plugins/com.st.stm32cube.ide.mcu.externaltools.gnu-tools-for-stm32.10.3-2021.10.win32_1.0.0.202111181127/tools/bin/../lib/gcc/arm-none-eabi/10.3.1/../../../../arm-none-eabi/lib/thumb/v7e-m+fp/hard\libc_nano.a(lib_a-nano-freer.o)
 .ARM.attributes
                0x0000000000000962       0x34 e:/program files (x86)/stm32cubeide_1.10.0/stm32cubeide/plugins/com.st.stm32cube.ide.mcu.externaltools.gnu-tools-for-stm32.10.3-2021.10.win32_1.0.0.202111181127/tools/bin/../lib/gcc/arm-none-eabi/10.3.1/../../../../arm-none-eabi/lib/thumb/v7e-m+fp/hard\libc_nano.a(lib_a-nano-svfprintf.o)
 .ARM.attributes
                0x0000000000000996       0x34 e:/program files (x86)/stm32cubeide_1.10.0/stm32cubeide/plugins/com.st.stm32cube.ide.mcu.externaltools.gnu-tools-for-stm32.10.3-2021.10.win32_1.0.0.202111181127/tools/bin/../lib/gcc/arm-none-eabi/10.3.1/../../../../arm-none-eabi/lib/thumb/v7e-m+fp/hard\libc_nano.a(lib_a-nano-vfprintf_i.o)
 .ARM.attributes
                0x00000000000009ca       0x1c e:/program files (x86)/stm32cubeide_1.10.0/stm32cubeide/plugins/com.st.stm32cube.ide.mcu.externaltools.gnu-tools-for-stm32.10.3-2021.10.win32_1.0.0.202111181127/tools/bin/../lib/gcc/arm-none-eabi/10.3.1/../../../../arm-none-eabi/lib/thumb/v7e-m+fp/hard\libc_nano.a(lib_a-memchr.o)
 .ARM.attributes
                0x00000000000009e6       0x34 e:/program files (x86)/stm32cubeide_1.10.0/stm32cubeide/plugins/com.st.stm32cube.ide.mcu.externaltools.gnu-tools-for-stm32.10.3-2021.10.win32_1.0.0.202111181127/tools/bin/../lib/gcc/arm-none-eabi/10.3.1/../../../../arm-none-eabi/lib/thumb/v7e-m+fp/hard\libc_nano.a(lib_a-memmove.o)
 .ARM.attributes
                0x0000000000000a1a       0x34 e:/program files (x86)/stm32cubeide_1.10.0/stm32cubeide/plugins/com.st.stm32cube.ide.mcu.externaltools.gnu-tools-for-stm32.10.3-2021.10.win32_1.0.0.202111181127/tools/bin/../lib/gcc/arm-none-eabi/10.3.1/../../../../arm-none-eabi/lib/thumb/v7e-m+fp/hard\libc_nano.a(lib_a-nano-reallocr.o)
 .ARM.attributes
                0x0000000000000a4e       0x34 e:/program files (x86)/stm32cubeide_1.10.0/stm32cubeide/plugins/com.st.stm32cube.ide.mcu.externaltools.gnu-tools-for-stm32.10.3-2021.10.win32_1.0.0.202111181127/tools/bin/../lib/gcc/arm-none-eabi/10.3.1/../../../../arm-none-eabi/lib/thumb/v7e-m+fp/hard\libc_nano.a(lib_a-nano-msizer.o)
 .ARM.attributes
                0x0000000000000a82       0x1e e:/program files (x86)/stm32cubeide_1.10.0/stm32cubeide/plugins/com.st.stm32cube.ide.mcu.externaltools.gnu-tools-for-stm32.10.3-2021.10.win32_1.0.0.202111181127/tools/bin/../lib/gcc/arm-none-eabi/10.3.1/thumb/v7e-m+fp/hard\libgcc.a(_arm_muldf3.o)
 .ARM.attributes
                0x0000000000000aa0       0x1e e:/program files (x86)/stm32cubeide_1.10.0/stm32cubeide/plugins/com.st.stm32cube.ide.mcu.externaltools.gnu-tools-for-stm32.10.3-2021.10.win32_1.0.0.202111181127/tools/bin/../lib/gcc/arm-none-eabi/10.3.1/thumb/v7e-m+fp/hard\libgcc.a(_arm_addsubdf3.o)
 .ARM.attributes
                0x0000000000000abe       0x1e e:/program files (x86)/stm32cubeide_1.10.0/stm32cubeide/plugins/com.st.stm32cube.ide.mcu.externaltools.gnu-tools-for-stm32.10.3-2021.10.win32_1.0.0.202111181127/tools/bin/../lib/gcc/arm-none-eabi/10.3.1/thumb/v7e-m+fp/hard\libgcc.a(_arm_fixunsdfsi.o)
 .ARM.attributes
                0x0000000000000adc       0x1e e:/program files (x86)/stm32cubeide_1.10.0/stm32cubeide/plugins/com.st.stm32cube.ide.mcu.externaltools.gnu-tools-for-stm32.10.3-2021.10.win32_1.0.0.202111181127/tools/bin/../lib/gcc/arm-none-eabi/10.3.1/thumb/v7e-m+fp/hard\libgcc.a(_aeabi_uldivmod.o)
 .ARM.attributes
                0x0000000000000afa       0x34 e:/program files (x86)/stm32cubeide_1.10.0/stm32cubeide/plugins/com.st.stm32cube.ide.mcu.externaltools.gnu-tools-for-stm32.10.3-2021.10.win32_1.0.0.202111181127/tools/bin/../lib/gcc/arm-none-eabi/10.3.1/thumb/v7e-m+fp/hard\libgcc.a(_udivmoddi4.o)
 .ARM.attributes
                0x0000000000000b2e       0x1e e:/program files (x86)/stm32cubeide_1.10.0/stm32cubeide/plugins/com.st.stm32cube.ide.mcu.externaltools.gnu-tools-for-stm32.10.3-2021.10.win32_1.0.0.202111181127/tools/bin/../lib/gcc/arm-none-eabi/10.3.1/thumb/v7e-m+fp/hard\libgcc.a(_dvmd_tls.o)
 .ARM.attributes
                0x0000000000000b4c       0x1e e:/program files (x86)/stm32cubeide_1.10.0/stm32cubeide/plugins/com.st.stm32cube.ide.mcu.externaltools.gnu-tools-for-stm32.10.3-2021.10.win32_1.0.0.202111181127/tools/bin/../lib/gcc/arm-none-eabi/10.3.1/thumb/v7e-m+fp/hard/crtn.o
OUTPUT(SD_CARD.elf elf32-littlearm)
LOAD linker stubs
LOAD e:/program files (x86)/stm32cubeide_1.10.0/stm32cubeide/plugins/com.st.stm32cube.ide.mcu.externaltools.gnu-tools-for-stm32.10.3-2021.10.win32_1.0.0.202111181127/tools/bin/../lib/gcc/arm-none-eabi/10.3.1/../../../../arm-none-eabi/lib/thumb/v7e-m+fp/hard\libc.a
LOAD e:/program files (x86)/stm32cubeide_1.10.0/stm32cubeide/plugins/com.st.stm32cube.ide.mcu.externaltools.gnu-tools-for-stm32.10.3-2021.10.win32_1.0.0.202111181127/tools/bin/../lib/gcc/arm-none-eabi/10.3.1/../../../../arm-none-eabi/lib/thumb/v7e-m+fp/hard\libm.a
LOAD e:/program files (x86)/stm32cubeide_1.10.0/stm32cubeide/plugins/com.st.stm32cube.ide.mcu.externaltools.gnu-tools-for-stm32.10.3-2021.10.win32_1.0.0.202111181127/tools/bin/../lib/gcc/arm-none-eabi/10.3.1/thumb/v7e-m+fp/hard\libgcc.a

.debug_info     0x0000000000000000    0x1d155
 .debug_info    0x0000000000000000     0x1257 ./Core/Src/File_Handling_RTOS.o
 .debug_info    0x0000000000001257      0xccd ./Core/Src/fatfs_sd.o
 .debug_info    0x0000000000001f24      0x9b6 ./Core/Src/freertos.o
 .debug_info    0x00000000000028da     0x16f8 ./Core/Src/main.o
 .debug_info    0x0000000000003fd2      0xf29 ./Core/Src/stm32f4xx_hal_msp.o
 .debug_info    0x0000000000004efb      0xca1 ./Core/Src/stm32f4xx_hal_timebase_tim.o
 .debug_info    0x0000000000005b9c      0x75d ./Core/Src/stm32f4xx_it.o
 .debug_info    0x00000000000062f9      0x171 ./Core/Src/sysmem.o
 .debug_info    0x000000000000646a      0x55b ./Core/Src/system_stm32f4xx.o
 .debug_info    0x00000000000069c5       0x22 ./Core/Startup/startup_stm32f446retx.o
 .debug_info    0x00000000000069e7      0x9d2 ./Drivers/STM32F4xx_HAL_Driver/Src/stm32f4xx_hal.o
 .debug_info    0x00000000000073b9      0xe39 ./Drivers/STM32F4xx_HAL_Driver/Src/stm32f4xx_hal_cortex.o
 .debug_info    0x00000000000081f2      0x7be ./Drivers/STM32F4xx_HAL_Driver/Src/stm32f4xx_hal_gpio.o
 .debug_info    0x00000000000089b0      0x9ab ./Drivers/STM32F4xx_HAL_Driver/Src/stm32f4xx_hal_rcc.o
 .debug_info    0x000000000000935b      0x9ec ./Drivers/STM32F4xx_HAL_Driver/Src/stm32f4xx_hal_rcc_ex.o
 .debug_info    0x0000000000009d47     0x1758 ./Drivers/STM32F4xx_HAL_Driver/Src/stm32f4xx_hal_spi.o
 .debug_info    0x000000000000b49f     0x2bbe ./Drivers/STM32F4xx_HAL_Driver/Src/stm32f4xx_hal_tim.o
 .debug_info    0x000000000000e05d     0x15e0 ./Drivers/STM32F4xx_HAL_Driver/Src/stm32f4xx_hal_tim_ex.o
 .debug_info    0x000000000000f63d     0x31bc ./Drivers/STM32F4xx_HAL_Driver/Src/stm32f4xx_hal_uart.o
 .debug_info    0x00000000000127f9      0x536 ./FATFS/App/fatfs.o
 .debug_info    0x0000000000012d2f      0x3d2 ./FATFS/Target/user_diskio.o
 .debug_info    0x0000000000013101      0x412 ./Middlewares/Third_Party/FatFs/src/diskio.o
 .debug_info    0x0000000000013513     0x24fe ./Middlewares/Third_Party/FatFs/src/ff.o
 .debug_info    0x0000000000015a11      0x3a9 ./Middlewares/Third_Party/FatFs/src/ff_gen_drv.o
 .debug_info    0x0000000000015dba      0x4a3 ./Middlewares/Third_Party/FatFs/src/option/syscall.o
 .debug_info    0x000000000001625d     0x2352 ./Middlewares/Third_Party/FreeRTOS/Source/CMSIS_RTOS/cmsis_os.o
 .debug_info    0x00000000000185af      0x2d1 ./Middlewares/Third_Party/FreeRTOS/Source/list.o
 .debug_info    0x0000000000018880     0x18e1 ./Middlewares/Third_Party/FreeRTOS/Source/queue.o
 .debug_info    0x000000000001a161     0x25e2 ./Middlewares/Third_Party/FreeRTOS/Source/tasks.o
 .debug_info    0x000000000001c743      0x507 ./Middlewares/Third_Party/FreeRTOS/Source/portable/GCC/ARM_CM4F/port.o
 .debug_info    0x000000000001cc4a      0x50b ./Middlewares/Third_Party/FreeRTOS/Source/portable/MemMang/heap_4.o

.debug_abbrev   0x0000000000000000     0x41ac
 .debug_abbrev  0x0000000000000000      0x2e1 ./Core/Src/File_Handling_RTOS.o
 .debug_abbrev  0x00000000000002e1      0x2cd ./Core/Src/fatfs_sd.o
 .debug_abbrev  0x00000000000005ae      0x169 ./Core/Src/freertos.o
 .debug_abbrev  0x0000000000000717      0x33a ./Core/Src/main.o
 .debug_abbrev  0x0000000000000a51      0x1b9 ./Core/Src/stm32f4xx_hal_msp.o
 .debug_abbrev  0x0000000000000c0a      0x1e6 ./Core/Src/stm32f4xx_hal_timebase_tim.o
 .debug_abbrev  0x0000000000000df0      0x184 ./Core/Src/stm32f4xx_it.o
 .debug_abbrev  0x0000000000000f74       0xbb ./Core/Src/sysmem.o
 .debug_abbrev  0x000000000000102f      0x116 ./Core/Src/system_stm32f4xx.o
 .debug_abbrev  0x0000000000001145       0x12 ./Core/Startup/startup_stm32f446retx.o
 .debug_abbrev  0x0000000000001157      0x20d ./Drivers/STM32F4xx_HAL_Driver/Src/stm32f4xx_hal.o
 .debug_abbrev  0x0000000000001364      0x316 ./Drivers/STM32F4xx_HAL_Driver/Src/stm32f4xx_hal_cortex.o
 .debug_abbrev  0x000000000000167a      0x1c4 ./Drivers/STM32F4xx_HAL_Driver/Src/stm32f4xx_hal_gpio.o
 .debug_abbrev  0x000000000000183e      0x2aa ./Drivers/STM32F4xx_HAL_Driver/Src/stm32f4xx_hal_rcc.o
 .debug_abbrev  0x0000000000001ae8      0x1fb ./Drivers/STM32F4xx_HAL_Driver/Src/stm32f4xx_hal_rcc_ex.o
 .debug_abbrev  0x0000000000001ce3      0x26e ./Drivers/STM32F4xx_HAL_Driver/Src/stm32f4xx_hal_spi.o
 .debug_abbrev  0x0000000000001f51      0x25d ./Drivers/STM32F4xx_HAL_Driver/Src/stm32f4xx_hal_tim.o
 .debug_abbrev  0x00000000000021ae      0x265 ./Drivers/STM32F4xx_HAL_Driver/Src/stm32f4xx_hal_tim_ex.o
 .debug_abbrev  0x0000000000002413      0x2f4 ./Drivers/STM32F4xx_HAL_Driver/Src/stm32f4xx_hal_uart.o
 .debug_abbrev  0x0000000000002707      0x163 ./FATFS/App/fatfs.o
 .debug_abbrev  0x000000000000286a      0x13f ./FATFS/Target/user_diskio.o
 .debug_abbrev  0x00000000000029a9      0x178 ./Middlewares/Third_Party/FatFs/src/diskio.o
 .debug_abbrev  0x0000000000002b21      0x29e ./Middlewares/Third_Party/FatFs/src/ff.o
 .debug_abbrev  0x0000000000002dbf      0x196 ./Middlewares/Third_Party/FatFs/src/ff_gen_drv.o
 .debug_abbrev  0x0000000000002f55      0x18f ./Middlewares/Third_Party/FatFs/src/option/syscall.o
 .debug_abbrev  0x00000000000030e4      0x406 ./Middlewares/Third_Party/FreeRTOS/Source/CMSIS_RTOS/cmsis_os.o
 .debug_abbrev  0x00000000000034ea       0xf2 ./Middlewares/Third_Party/FreeRTOS/Source/list.o
 .debug_abbrev  0x00000000000035dc      0x3a1 ./Middlewares/Third_Party/FreeRTOS/Source/queue.o
 .debug_abbrev  0x000000000000397d      0x3c4 ./Middlewares/Third_Party/FreeRTOS/Source/tasks.o
 .debug_abbrev  0x0000000000003d41      0x259 ./Middlewares/Third_Party/FreeRTOS/Source/portable/GCC/ARM_CM4F/port.o
 .debug_abbrev  0x0000000000003f9a      0x212 ./Middlewares/Third_Party/FreeRTOS/Source/portable/MemMang/heap_4.o

.debug_aranges  0x0000000000000000     0x1838
 .debug_aranges
                0x0000000000000000       0x78 ./Core/Src/File_Handling_RTOS.o
 .debug_aranges
                0x0000000000000078       0xa0 ./Core/Src/fatfs_sd.o
 .debug_aranges
                0x0000000000000118       0x20 ./Core/Src/freertos.o
 .debug_aranges
                0x0000000000000138       0x70 ./Core/Src/main.o
 .debug_aranges
                0x00000000000001a8       0x40 ./Core/Src/stm32f4xx_hal_msp.o
 .debug_aranges
                0x00000000000001e8       0x30 ./Core/Src/stm32f4xx_hal_timebase_tim.o
 .debug_aranges
                0x0000000000000218       0x58 ./Core/Src/stm32f4xx_it.o
 .debug_aranges
                0x0000000000000270       0x20 ./Core/Src/sysmem.o
 .debug_aranges
                0x0000000000000290       0x28 ./Core/Src/system_stm32f4xx.o
 .debug_aranges
                0x00000000000002b8       0x28 ./Core/Startup/startup_stm32f446retx.o
 .debug_aranges
                0x00000000000002e0       0xf0 ./Drivers/STM32F4xx_HAL_Driver/Src/stm32f4xx_hal.o
 .debug_aranges
                0x00000000000003d0      0x118 ./Drivers/STM32F4xx_HAL_Driver/Src/stm32f4xx_hal_cortex.o
 .debug_aranges
                0x00000000000004e8       0x58 ./Drivers/STM32F4xx_HAL_Driver/Src/stm32f4xx_hal_gpio.o
 .debug_aranges
                0x0000000000000540       0x88 ./Drivers/STM32F4xx_HAL_Driver/Src/stm32f4xx_hal_rcc.o
 .debug_aranges
                0x00000000000005c8       0x78 ./Drivers/STM32F4xx_HAL_Driver/Src/stm32f4xx_hal_rcc_ex.o
 .debug_aranges
                0x0000000000000640      0x1d0 ./Drivers/STM32F4xx_HAL_Driver/Src/stm32f4xx_hal_spi.o
 .debug_aranges
                0x0000000000000810      0x3d0 ./Drivers/STM32F4xx_HAL_Driver/Src/stm32f4xx_hal_tim.o
 .debug_aranges
                0x0000000000000be0      0x168 ./Drivers/STM32F4xx_HAL_Driver/Src/stm32f4xx_hal_tim_ex.o
 .debug_aranges
                0x0000000000000d48      0x200 ./Drivers/STM32F4xx_HAL_Driver/Src/stm32f4xx_hal_uart.o
 .debug_aranges
                0x0000000000000f48       0x28 ./FATFS/App/fatfs.o
 .debug_aranges
                0x0000000000000f70       0x40 ./FATFS/Target/user_diskio.o
 .debug_aranges
                0x0000000000000fb0       0x48 ./Middlewares/Third_Party/FatFs/src/diskio.o
 .debug_aranges
                0x0000000000000ff8      0x218 ./Middlewares/Third_Party/FatFs/src/ff.o
 .debug_aranges
                0x0000000000001210       0x40 ./Middlewares/Third_Party/FatFs/src/ff_gen_drv.o
 .debug_aranges
                0x0000000000001250       0x38 ./Middlewares/Third_Party/FatFs/src/option/syscall.o
 .debug_aranges
                0x0000000000001288      0x1d8 ./Middlewares/Third_Party/FreeRTOS/Source/CMSIS_RTOS/cmsis_os.o
 .debug_aranges
                0x0000000000001460       0x40 ./Middlewares/Third_Party/FreeRTOS/Source/list.o
 .debug_aranges
                0x00000000000014a0      0x108 ./Middlewares/Third_Party/FreeRTOS/Source/queue.o
 .debug_aranges
                0x00000000000015a8      0x1b8 ./Middlewares/Third_Party/FreeRTOS/Source/tasks.o
 .debug_aranges
                0x0000000000001760       0x80 ./Middlewares/Third_Party/FreeRTOS/Source/portable/GCC/ARM_CM4F/port.o
 .debug_aranges
                0x00000000000017e0       0x58 ./Middlewares/Third_Party/FreeRTOS/Source/portable/MemMang/heap_4.o

.debug_ranges   0x0000000000000000     0x16a0
 .debug_ranges  0x0000000000000000       0x88 ./Core/Src/File_Handling_RTOS.o
 .debug_ranges  0x0000000000000088       0x90 ./Core/Src/fatfs_sd.o
 .debug_ranges  0x0000000000000118       0x10 ./Core/Src/freertos.o
 .debug_ranges  0x0000000000000128       0x60 ./Core/Src/main.o
 .debug_ranges  0x0000000000000188       0x30 ./Core/Src/stm32f4xx_hal_msp.o
 .debug_ranges  0x00000000000001b8       0x20 ./Core/Src/stm32f4xx_hal_timebase_tim.o
 .debug_ranges  0x00000000000001d8       0x48 ./Core/Src/stm32f4xx_it.o
 .debug_ranges  0x0000000000000220       0x10 ./Core/Src/sysmem.o
 .debug_ranges  0x0000000000000230       0x18 ./Core/Src/system_stm32f4xx.o
 .debug_ranges  0x0000000000000248       0x20 ./Core/Startup/startup_stm32f446retx.o
 .debug_ranges  0x0000000000000268       0xe0 ./Drivers/STM32F4xx_HAL_Driver/Src/stm32f4xx_hal.o
 .debug_ranges  0x0000000000000348      0x108 ./Drivers/STM32F4xx_HAL_Driver/Src/stm32f4xx_hal_cortex.o
 .debug_ranges  0x0000000000000450       0x48 ./Drivers/STM32F4xx_HAL_Driver/Src/stm32f4xx_hal_gpio.o
 .debug_ranges  0x0000000000000498       0x78 ./Drivers/STM32F4xx_HAL_Driver/Src/stm32f4xx_hal_rcc.o
 .debug_ranges  0x0000000000000510       0x68 ./Drivers/STM32F4xx_HAL_Driver/Src/stm32f4xx_hal_rcc_ex.o
 .debug_ranges  0x0000000000000578      0x1c0 ./Drivers/STM32F4xx_HAL_Driver/Src/stm32f4xx_hal_spi.o
 .debug_ranges  0x0000000000000738      0x3c0 ./Drivers/STM32F4xx_HAL_Driver/Src/stm32f4xx_hal_tim.o
 .debug_ranges  0x0000000000000af8      0x158 ./Drivers/STM32F4xx_HAL_Driver/Src/stm32f4xx_hal_tim_ex.o
 .debug_ranges  0x0000000000000c50      0x220 ./Drivers/STM32F4xx_HAL_Driver/Src/stm32f4xx_hal_uart.o
 .debug_ranges  0x0000000000000e70       0x18 ./FATFS/App/fatfs.o
 .debug_ranges  0x0000000000000e88       0x30 ./FATFS/Target/user_diskio.o
 .debug_ranges  0x0000000000000eb8       0x38 ./Middlewares/Third_Party/FatFs/src/diskio.o
 .debug_ranges  0x0000000000000ef0      0x208 ./Middlewares/Third_Party/FatFs/src/ff.o
 .debug_ranges  0x00000000000010f8       0x30 ./Middlewares/Third_Party/FatFs/src/ff_gen_drv.o
 .debug_ranges  0x0000000000001128       0x28 ./Middlewares/Third_Party/FatFs/src/option/syscall.o
 .debug_ranges  0x0000000000001150      0x1c8 ./Middlewares/Third_Party/FreeRTOS/Source/CMSIS_RTOS/cmsis_os.o
 .debug_ranges  0x0000000000001318       0x30 ./Middlewares/Third_Party/FreeRTOS/Source/list.o
 .debug_ranges  0x0000000000001348       0xf8 ./Middlewares/Third_Party/FreeRTOS/Source/queue.o
 .debug_ranges  0x0000000000001440      0x1a8 ./Middlewares/Third_Party/FreeRTOS/Source/tasks.o
 .debug_ranges  0x00000000000015e8       0x70 ./Middlewares/Third_Party/FreeRTOS/Source/portable/GCC/ARM_CM4F/port.o
 .debug_ranges  0x0000000000001658       0x48 ./Middlewares/Third_Party/FreeRTOS/Source/portable/MemMang/heap_4.o

.debug_macro    0x0000000000000000    0x267c4
 .debug_macro   0x0000000000000000      0x4ad ./Core/Src/File_Handling_RTOS.o
 .debug_macro   0x00000000000004ad      0xa78 ./Core/Src/File_Handling_RTOS.o
 .debug_macro   0x0000000000000f25      0x2a1 ./Core/Src/File_Handling_RTOS.o
 .debug_macro   0x00000000000011c6       0x2e ./Core/Src/File_Handling_RTOS.o
 .debug_macro   0x00000000000011f4       0x28 ./Core/Src/File_Handling_RTOS.o
 .debug_macro   0x000000000000121c       0x22 ./Core/Src/File_Handling_RTOS.o
 .debug_macro   0x000000000000123e       0x8e ./Core/Src/File_Handling_RTOS.o
 .debug_macro   0x00000000000012cc       0x51 ./Core/Src/File_Handling_RTOS.o
 .debug_macro   0x000000000000131d      0x103 ./Core/Src/File_Handling_RTOS.o
 .debug_macro   0x0000000000001420       0x6a ./Core/Src/File_Handling_RTOS.o
 .debug_macro   0x000000000000148a      0x1df ./Core/Src/File_Handling_RTOS.o
 .debug_macro   0x0000000000001669       0x1c ./Core/Src/File_Handling_RTOS.o
 .debug_macro   0x0000000000001685       0x22 ./Core/Src/File_Handling_RTOS.o
 .debug_macro   0x00000000000016a7       0xd9 ./Core/Src/File_Handling_RTOS.o
 .debug_macro   0x0000000000001780     0x102d ./Core/Src/File_Handling_RTOS.o
 .debug_macro   0x00000000000027ad      0x11f ./Core/Src/File_Handling_RTOS.o
 .debug_macro   0x00000000000028cc    0x16749 ./Core/Src/File_Handling_RTOS.o
 .debug_macro   0x0000000000019015       0x6d ./Core/Src/File_Handling_RTOS.o
 .debug_macro   0x0000000000019082     0x367e ./Core/Src/File_Handling_RTOS.o
 .debug_macro   0x000000000001c700      0x174 ./Core/Src/File_Handling_RTOS.o
 .debug_macro   0x000000000001c874       0x5c ./Core/Src/File_Handling_RTOS.o
 .debug_macro   0x000000000001c8d0      0xc90 ./Core/Src/File_Handling_RTOS.o
 .debug_macro   0x000000000001d560      0x9fe ./Core/Src/File_Handling_RTOS.o
 .debug_macro   0x000000000001df5e      0x115 ./Core/Src/File_Handling_RTOS.o
 .debug_macro   0x000000000001e073      0x1a0 ./Core/Src/File_Handling_RTOS.o
 .debug_macro   0x000000000001e213       0xa5 ./Core/Src/File_Handling_RTOS.o
 .debug_macro   0x000000000001e2b8      0x16d ./Core/Src/File_Handling_RTOS.o
 .debug_macro   0x000000000001e425      0x287 ./Core/Src/File_Handling_RTOS.o
 .debug_macro   0x000000000001e6ac       0x5f ./Core/Src/File_Handling_RTOS.o
 .debug_macro   0x000000000001e70b      0x236 ./Core/Src/File_Handling_RTOS.o
 .debug_macro   0x000000000001e941      0x132 ./Core/Src/File_Handling_RTOS.o
 .debug_macro   0x000000000001ea73      0x29c ./Core/Src/File_Handling_RTOS.o
 .debug_macro   0x000000000001ed0f       0x2e ./Core/Src/File_Handling_RTOS.o
 .debug_macro   0x000000000001ed3d      0x11a ./Core/Src/File_Handling_RTOS.o
 .debug_macro   0x000000000001ee57       0xe8 ./Core/Src/File_Handling_RTOS.o
 .debug_macro   0x000000000001ef3f       0x89 ./Core/Src/File_Handling_RTOS.o
 .debug_macro   0x000000000001efc8      0x225 ./Core/Src/File_Handling_RTOS.o
 .debug_macro   0x000000000001f1ed      0x8e6 ./Core/Src/File_Handling_RTOS.o
 .debug_macro   0x000000000001fad3       0x4d ./Core/Src/File_Handling_RTOS.o
 .debug_macro   0x000000000001fb20      0x295 ./Core/Src/File_Handling_RTOS.o
 .debug_macro   0x000000000001fdb5      0x126 ./Core/Src/File_Handling_RTOS.o
 .debug_macro   0x000000000001fedb       0x10 ./Core/Src/File_Handling_RTOS.o
 .debug_macro   0x000000000001feeb       0xf1 ./Core/Src/File_Handling_RTOS.o
 .debug_macro   0x000000000001ffdc      0x15a ./Core/Src/File_Handling_RTOS.o
 .debug_macro   0x0000000000020136       0xde ./Core/Src/File_Handling_RTOS.o
 .debug_macro   0x0000000000020214       0x1c ./Core/Src/File_Handling_RTOS.o
 .debug_macro   0x0000000000020230       0x26 ./Core/Src/File_Handling_RTOS.o
 .debug_macro   0x0000000000020256       0x52 ./Core/Src/File_Handling_RTOS.o
 .debug_macro   0x00000000000202a8       0x1e ./Core/Src/File_Handling_RTOS.o
 .debug_macro   0x00000000000202c6       0x3c ./Core/Src/File_Handling_RTOS.o
 .debug_macro   0x0000000000020302       0x34 ./Core/Src/File_Handling_RTOS.o
 .debug_macro   0x0000000000020336       0x16 ./Core/Src/File_Handling_RTOS.o
 .debug_macro   0x000000000002034c       0x43 ./Core/Src/File_Handling_RTOS.o
 .debug_macro   0x000000000002038f       0x34 ./Core/Src/File_Handling_RTOS.o
 .debug_macro   0x00000000000203c3       0x10 ./Core/Src/File_Handling_RTOS.o
 .debug_macro   0x00000000000203d3       0x58 ./Core/Src/File_Handling_RTOS.o
 .debug_macro   0x000000000002042b       0x71 ./Core/Src/File_Handling_RTOS.o
 .debug_macro   0x000000000002049c       0x1c ./Core/Src/File_Handling_RTOS.o
 .debug_macro   0x00000000000204b8      0x12a ./Core/Src/File_Handling_RTOS.o
 .debug_macro   0x00000000000205e2       0x10 ./Core/Src/File_Handling_RTOS.o
 .debug_macro   0x00000000000205f2       0x35 ./Core/Src/File_Handling_RTOS.o
 .debug_macro   0x0000000000020627      0x4e2 ./Core/Src/File_Handling_RTOS.o
 .debug_macro   0x0000000000020b09       0xb5 ./Core/Src/File_Handling_RTOS.o
 .debug_macro   0x0000000000020bbe       0xaa ./Core/Src/File_Handling_RTOS.o
 .debug_macro   0x0000000000020c68       0x91 ./Core/Src/File_Handling_RTOS.o
 .debug_macro   0x0000000000020cf9       0x8d ./Core/Src/File_Handling_RTOS.o
 .debug_macro   0x0000000000020d86       0x7e ./Core/Src/File_Handling_RTOS.o
 .debug_macro   0x0000000000020e04       0x19 ./Core/Src/File_Handling_RTOS.o
 .debug_macro   0x0000000000020e1d       0xf2 ./Core/Src/File_Handling_RTOS.o
 .debug_macro   0x0000000000020f0f       0xfa ./Core/Src/File_Handling_RTOS.o
 .debug_macro   0x0000000000021009       0xe2 ./Core/Src/File_Handling_RTOS.o
 .debug_macro   0x00000000000210eb       0x8e ./Core/Src/File_Handling_RTOS.o
 .debug_macro   0x0000000000021179      0x341 ./Core/Src/File_Handling_RTOS.o
 .debug_macro   0x00000000000214ba       0x10 ./Core/Src/File_Handling_RTOS.o
 .debug_macro   0x00000000000214ca       0x20 ./Core/Src/File_Handling_RTOS.o
 .debug_macro   0x00000000000214ea       0x1c ./Core/Src/File_Handling_RTOS.o
 .debug_macro   0x0000000000021506       0x10 ./Core/Src/File_Handling_RTOS.o
 .debug_macro   0x0000000000021516       0x10 ./Core/Src/File_Handling_RTOS.o
 .debug_macro   0x0000000000021526       0x1c ./Core/Src/File_Handling_RTOS.o
 .debug_macro   0x0000000000021542       0x52 ./Core/Src/File_Handling_RTOS.o
 .debug_macro   0x0000000000021594       0x22 ./Core/Src/File_Handling_RTOS.o
 .debug_macro   0x00000000000215b6       0x10 ./Core/Src/File_Handling_RTOS.o
 .debug_macro   0x00000000000215c6       0x52 ./Core/Src/File_Handling_RTOS.o
 .debug_macro   0x0000000000021618       0xd5 ./Core/Src/File_Handling_RTOS.o
 .debug_macro   0x00000000000216ed       0x1c ./Core/Src/File_Handling_RTOS.o
 .debug_macro   0x0000000000021709       0x3d ./Core/Src/File_Handling_RTOS.o
 .debug_macro   0x0000000000021746       0x16 ./Core/Src/File_Handling_RTOS.o
 .debug_macro   0x000000000002175c      0x145 ./Core/Src/File_Handling_RTOS.o
 .debug_macro   0x00000000000218a1       0x6a ./Core/Src/File_Handling_RTOS.o
 .debug_macro   0x000000000002190b      0x217 ./Core/Src/fatfs_sd.o
 .debug_macro   0x0000000000021b22       0x16 ./Core/Src/fatfs_sd.o
 .debug_macro   0x0000000000021b38       0x7c ./Core/Src/fatfs_sd.o
 .debug_macro   0x0000000000021bb4      0x2ec ./Core/Src/freertos.o
 .debug_macro   0x0000000000021ea0       0xf1 ./Core/Src/freertos.o
 .debug_macro   0x0000000000021f91      0x4a5 ./Core/Src/main.o
 .debug_macro   0x0000000000022436       0x16 ./Core/Src/main.o
 .debug_macro   0x000000000002244c      0x1e7 ./Core/Src/stm32f4xx_hal_msp.o
 .debug_macro   0x0000000000022633      0x1d8 ./Core/Src/stm32f4xx_hal_timebase_tim.o
 .debug_macro   0x000000000002280b      0x1f1 ./Core/Src/stm32f4xx_it.o
 .debug_macro   0x00000000000229fc       0xff ./Core/Src/sysmem.o
 .debug_macro   0x0000000000022afb      0x23b ./Core/Src/sysmem.o
 .debug_macro   0x0000000000022d36      0x1d8 ./Core/Src/system_stm32f4xx.o
 .debug_macro   0x0000000000022f0e      0x238 ./Drivers/STM32F4xx_HAL_Driver/Src/stm32f4xx_hal.o
 .debug_macro   0x0000000000023146      0x1d8 ./Drivers/STM32F4xx_HAL_Driver/Src/stm32f4xx_hal_cortex.o
 .debug_macro   0x000000000002331e      0x1de ./Drivers/STM32F4xx_HAL_Driver/Src/stm32f4xx_hal_gpio.o
 .debug_macro   0x00000000000234fc      0x1fc ./Drivers/STM32F4xx_HAL_Driver/Src/stm32f4xx_hal_rcc.o
 .debug_macro   0x00000000000236f8      0x1d8 ./Drivers/STM32F4xx_HAL_Driver/Src/stm32f4xx_hal_rcc_ex.o
 .debug_macro   0x00000000000238d0      0x1e7 ./Drivers/STM32F4xx_HAL_Driver/Src/stm32f4xx_hal_spi.o
 .debug_macro   0x0000000000023ab7      0x1d9 ./Drivers/STM32F4xx_HAL_Driver/Src/stm32f4xx_hal_tim.o
 .debug_macro   0x0000000000023c90      0x1d8 ./Drivers/STM32F4xx_HAL_Driver/Src/stm32f4xx_hal_tim_ex.o
 .debug_macro   0x0000000000023e68      0x1d9 ./Drivers/STM32F4xx_HAL_Driver/Src/stm32f4xx_hal_uart.o
 .debug_macro   0x0000000000024041      0x38a ./FATFS/App/fatfs.o
 .debug_macro   0x00000000000243cb      0x3bd ./FATFS/Target/user_diskio.o
 .debug_macro   0x0000000000024788       0x56 ./FATFS/Target/user_diskio.o
 .debug_macro   0x00000000000247de       0x16 ./FATFS/Target/user_diskio.o
 .debug_macro   0x00000000000247f4      0x377 ./Middlewares/Third_Party/FatFs/src/diskio.o
 .debug_macro   0x0000000000024b6b      0x77e ./Middlewares/Third_Party/FatFs/src/ff.o
 .debug_macro   0x00000000000252e9       0x58 ./Middlewares/Third_Party/FatFs/src/ff.o
 .debug_macro   0x0000000000025341      0x377 ./Middlewares/Third_Party/FatFs/src/ff_gen_drv.o
 .debug_macro   0x00000000000256b8      0x35f ./Middlewares/Third_Party/FatFs/src/option/syscall.o
 .debug_macro   0x0000000000025a17      0x210 ./Middlewares/Third_Party/FreeRTOS/Source/CMSIS_RTOS/cmsis_os.o
 .debug_macro   0x0000000000025c27       0xc7 ./Middlewares/Third_Party/FreeRTOS/Source/CMSIS_RTOS/cmsis_os.o
 .debug_macro   0x0000000000025cee      0x199 ./Middlewares/Third_Party/FreeRTOS/Source/list.o
 .debug_macro   0x0000000000025e87      0x228 ./Middlewares/Third_Party/FreeRTOS/Source/queue.o
 .debug_macro   0x00000000000260af       0x87 ./Middlewares/Third_Party/FreeRTOS/Source/queue.o
 .debug_macro   0x0000000000026136      0x28b ./Middlewares/Third_Party/FreeRTOS/Source/tasks.o
 .debug_macro   0x00000000000263c1       0x10 ./Middlewares/Third_Party/FreeRTOS/Source/tasks.o
 .debug_macro   0x00000000000263d1      0x233 ./Middlewares/Third_Party/FreeRTOS/Source/portable/GCC/ARM_CM4F/port.o
 .debug_macro   0x0000000000026604      0x1c0 ./Middlewares/Third_Party/FreeRTOS/Source/portable/MemMang/heap_4.o

.debug_line     0x0000000000000000    0x20ce7
 .debug_line    0x0000000000000000     0x108c ./Core/Src/File_Handling_RTOS.o
 .debug_line    0x000000000000108c      0xe05 ./Core/Src/fatfs_sd.o
 .debug_line    0x0000000000001e91      0xa46 ./Core/Src/freertos.o
 .debug_line    0x00000000000028d7      0xe64 ./Core/Src/main.o
 .debug_line    0x000000000000373b      0x7e1 ./Core/Src/stm32f4xx_hal_msp.o
 .debug_line    0x0000000000003f1c      0x7c0 ./Core/Src/stm32f4xx_hal_timebase_tim.o
 .debug_line    0x00000000000046dc      0x803 ./Core/Src/stm32f4xx_it.o
 .debug_line    0x0000000000004edf      0x634 ./Core/Src/sysmem.o
 .debug_line    0x0000000000005513      0x7c8 ./Core/Src/system_stm32f4xx.o
 .debug_line    0x0000000000005cdb       0x88 ./Core/Startup/startup_stm32f446retx.o
 .debug_line    0x0000000000005d63      0xa2e ./Drivers/STM32F4xx_HAL_Driver/Src/stm32f4xx_hal.o
 .debug_line    0x0000000000006791      0xcdd ./Drivers/STM32F4xx_HAL_Driver/Src/stm32f4xx_hal_cortex.o
 .debug_line    0x000000000000746e      0xb8e ./Drivers/STM32F4xx_HAL_Driver/Src/stm32f4xx_hal_gpio.o
 .debug_line    0x0000000000007ffc      0xdb6 ./Drivers/STM32F4xx_HAL_Driver/Src/stm32f4xx_hal_rcc.o
 .debug_line    0x0000000000008db2     0x1441 ./Drivers/STM32F4xx_HAL_Driver/Src/stm32f4xx_hal_rcc_ex.o
 .debug_line    0x000000000000a1f3     0x1cb8 ./Drivers/STM32F4xx_HAL_Driver/Src/stm32f4xx_hal_spi.o
 .debug_line    0x000000000000beab     0x3722 ./Drivers/STM32F4xx_HAL_Driver/Src/stm32f4xx_hal_tim.o
 .debug_line    0x000000000000f5cd     0x1a2b ./Drivers/STM32F4xx_HAL_Driver/Src/stm32f4xx_hal_tim_ex.o
 .debug_line    0x0000000000010ff8     0x2ad3 ./Drivers/STM32F4xx_HAL_Driver/Src/stm32f4xx_hal_uart.o
 .debug_line    0x0000000000013acb      0xb5f ./FATFS/App/fatfs.o
 .debug_line    0x000000000001462a      0xbce ./FATFS/Target/user_diskio.o
 .debug_line    0x00000000000151f8      0xbce ./Middlewares/Third_Party/FatFs/src/diskio.o
 .debug_line    0x0000000000015dc6     0x3736 ./Middlewares/Third_Party/FatFs/src/ff.o
 .debug_line    0x00000000000194fc      0xbec ./Middlewares/Third_Party/FatFs/src/ff_gen_drv.o
 .debug_line    0x000000000001a0e8      0xba5 ./Middlewares/Third_Party/FatFs/src/option/syscall.o
 .debug_line    0x000000000001ac8d     0x1317 ./Middlewares/Third_Party/FreeRTOS/Source/CMSIS_RTOS/cmsis_os.o
 .debug_line    0x000000000001bfa4      0x852 ./Middlewares/Third_Party/FreeRTOS/Source/list.o
 .debug_line    0x000000000001c7f6     0x15d3 ./Middlewares/Third_Party/FreeRTOS/Source/queue.o
 .debug_line    0x000000000001ddc9     0x1a89 ./Middlewares/Third_Party/FreeRTOS/Source/tasks.o
 .debug_line    0x000000000001f852      0xa19 ./Middlewares/Third_Party/FreeRTOS/Source/portable/GCC/ARM_CM4F/port.o
 .debug_line    0x000000000002026b      0xa7c ./Middlewares/Third_Party/FreeRTOS/Source/portable/MemMang/heap_4.o

.debug_str      0x0000000000000000    0xdd888
 .debug_str     0x0000000000000000    0xd4d70 ./Core/Src/File_Handling_RTOS.o
                                      0xd510c (size before relaxing)
 .debug_str     0x00000000000d4d70      0x3dd ./Core/Src/fatfs_sd.o
                                      0xcada9 (size before relaxing)
 .debug_str     0x00000000000d514d      0x448 ./Core/Src/freertos.o
                                      0xd0015 (size before relaxing)
 .debug_str     0x00000000000d5595      0x7b2 ./Core/Src/main.o
                                      0xd590a (size before relaxing)
 .debug_str     0x00000000000d5d47      0x5a8 ./Core/Src/stm32f4xx_hal_msp.o
                                      0xcb184 (size before relaxing)
 .debug_str     0x00000000000d62ef      0x11a ./Core/Src/stm32f4xx_hal_timebase_tim.o
                                      0xcb150 (size before relaxing)
 .debug_str     0x00000000000d6409       0xd2 ./Core/Src/stm32f4xx_it.o
                                      0xcaa53 (size before relaxing)
 .debug_str     0x00000000000d64db      0x35a ./Core/Src/sysmem.o
                                       0x5d96 (size before relaxing)
 .debug_str     0x00000000000d6835       0xdb ./Core/Src/system_stm32f4xx.o
                                      0xca618 (size before relaxing)
 .debug_str     0x00000000000d6910       0x36 ./Core/Startup/startup_stm32f446retx.o
                                         0x58 (size before relaxing)
 .debug_str     0x00000000000d6946      0x5c9 ./Drivers/STM32F4xx_HAL_Driver/Src/stm32f4xx_hal.o
                                      0xcb1dd (size before relaxing)
 .debug_str     0x00000000000d6f0f      0x331 ./Drivers/STM32F4xx_HAL_Driver/Src/stm32f4xx_hal_cortex.o
                                      0xcaeeb (size before relaxing)
 .debug_str     0x00000000000d7240      0x121 ./Drivers/STM32F4xx_HAL_Driver/Src/stm32f4xx_hal_gpio.o
                                      0xca793 (size before relaxing)
 .debug_str     0x00000000000d7361      0x1fd ./Drivers/STM32F4xx_HAL_Driver/Src/stm32f4xx_hal_rcc.o
                                      0xcaa51 (size before relaxing)
 .debug_str     0x00000000000d755e      0x324 ./Drivers/STM32F4xx_HAL_Driver/Src/stm32f4xx_hal_rcc_ex.o
                                      0xcaa84 (size before relaxing)
 .debug_str     0x00000000000d7882      0x55e ./Drivers/STM32F4xx_HAL_Driver/Src/stm32f4xx_hal_spi.o
                                      0xcaeb7 (size before relaxing)
 .debug_str     0x00000000000d7de0      0xe41 ./Drivers/STM32F4xx_HAL_Driver/Src/stm32f4xx_hal_tim.o
                                      0xcb96d (size before relaxing)
 .debug_str     0x00000000000d8c21      0x503 ./Drivers/STM32F4xx_HAL_Driver/Src/stm32f4xx_hal_tim_ex.o
                                      0xcb189 (size before relaxing)
 .debug_str     0x00000000000d9124      0x5ba ./Drivers/STM32F4xx_HAL_Driver/Src/stm32f4xx_hal_uart.o
                                      0xcafc6 (size before relaxing)
 .debug_str     0x00000000000d96de       0x74 ./FATFS/App/fatfs.o
                                      0xd2558 (size before relaxing)
 .debug_str     0x00000000000d9752       0x5a ./FATFS/Target/user_diskio.o
                                      0xd39ed (size before relaxing)
 .debug_str     0x00000000000d97ac       0x52 ./Middlewares/Third_Party/FatFs/src/diskio.o
                                      0xd2424 (size before relaxing)
 .debug_str     0x00000000000d97fe     0x1026 ./Middlewares/Third_Party/FatFs/src/ff.o
                                      0xd3755 (size before relaxing)
 .debug_str     0x00000000000da824       0x91 ./Middlewares/Third_Party/FatFs/src/ff_gen_drv.o
                                      0xd2475 (size before relaxing)
 .debug_str     0x00000000000da8b5      0x182 ./Middlewares/Third_Party/FatFs/src/option/syscall.o
                                      0xd24ed (size before relaxing)
 .debug_str     0x00000000000daa37      0xa06 ./Middlewares/Third_Party/FreeRTOS/Source/CMSIS_RTOS/cmsis_os.o
                                       0xe64a (size before relaxing)
 .debug_str     0x00000000000db43d      0x20f ./Middlewares/Third_Party/FreeRTOS/Source/list.o
                                       0xa5ef (size before relaxing)
 .debug_str     0x00000000000db64c      0x7ed ./Middlewares/Third_Party/FreeRTOS/Source/queue.o
                                       0xbf82 (size before relaxing)
 .debug_str     0x00000000000dbe39      0xf9f ./Middlewares/Third_Party/FreeRTOS/Source/tasks.o
                                       0xcd27 (size before relaxing)
 .debug_str     0x00000000000dcdd8      0x783 ./Middlewares/Third_Party/FreeRTOS/Source/portable/GCC/ARM_CM4F/port.o
                                       0x9f09 (size before relaxing)
 .debug_str     0x00000000000dd55b      0x32d ./Middlewares/Third_Party/FreeRTOS/Source/portable/MemMang/heap_4.o
                                       0xaf31 (size before relaxing)

.comment        0x0000000000000000       0x50
 .comment       0x0000000000000000       0x50 ./Core/Src/File_Handling_RTOS.o
                                         0x51 (size before relaxing)
 .comment       0x0000000000000050       0x51 ./Core/Src/fatfs_sd.o
 .comment       0x0000000000000050       0x51 ./Core/Src/freertos.o
 .comment       0x0000000000000050       0x51 ./Core/Src/main.o
 .comment       0x0000000000000050       0x51 ./Core/Src/stm32f4xx_hal_msp.o
 .comment       0x0000000000000050       0x51 ./Core/Src/stm32f4xx_hal_timebase_tim.o
 .comment       0x0000000000000050       0x51 ./Core/Src/stm32f4xx_it.o
 .comment       0x0000000000000050       0x51 ./Core/Src/sysmem.o
 .comment       0x0000000000000050       0x51 ./Core/Src/system_stm32f4xx.o
 .comment       0x0000000000000050       0x51 ./Drivers/STM32F4xx_HAL_Driver/Src/stm32f4xx_hal.o
 .comment       0x0000000000000050       0x51 ./Drivers/STM32F4xx_HAL_Driver/Src/stm32f4xx_hal_cortex.o
 .comment       0x0000000000000050       0x51 ./Drivers/STM32F4xx_HAL_Driver/Src/stm32f4xx_hal_gpio.o
 .comment       0x0000000000000050       0x51 ./Drivers/STM32F4xx_HAL_Driver/Src/stm32f4xx_hal_rcc.o
 .comment       0x0000000000000050       0x51 ./Drivers/STM32F4xx_HAL_Driver/Src/stm32f4xx_hal_rcc_ex.o
 .comment       0x0000000000000050       0x51 ./Drivers/STM32F4xx_HAL_Driver/Src/stm32f4xx_hal_spi.o
 .comment       0x0000000000000050       0x51 ./Drivers/STM32F4xx_HAL_Driver/Src/stm32f4xx_hal_tim.o
 .comment       0x0000000000000050       0x51 ./Drivers/STM32F4xx_HAL_Driver/Src/stm32f4xx_hal_tim_ex.o
 .comment       0x0000000000000050       0x51 ./Drivers/STM32F4xx_HAL_Driver/Src/stm32f4xx_hal_uart.o
 .comment       0x0000000000000050       0x51 ./FATFS/App/fatfs.o
 .comment       0x0000000000000050       0x51 ./FATFS/Target/user_diskio.o
 .comment       0x0000000000000050       0x51 ./Middlewares/Third_Party/FatFs/src/diskio.o
 .comment       0x0000000000000050       0x51 ./Middlewares/Third_Party/FatFs/src/ff.o
 .comment       0x0000000000000050       0x51 ./Middlewares/Third_Party/FatFs/src/ff_gen_drv.o
 .comment       0x0000000000000050       0x51 ./Middlewares/Third_Party/FatFs/src/option/syscall.o
 .comment       0x0000000000000050       0x51 ./Middlewares/Third_Party/FreeRTOS/Source/CMSIS_RTOS/cmsis_os.o
 .comment       0x0000000000000050       0x51 ./Middlewares/Third_Party/FreeRTOS/Source/list.o
 .comment       0x0000000000000050       0x51 ./Middlewares/Third_Party/FreeRTOS/Source/queue.o
 .comment       0x0000000000000050       0x51 ./Middlewares/Third_Party/FreeRTOS/Source/tasks.o
 .comment       0x0000000000000050       0x51 ./Middlewares/Third_Party/FreeRTOS/Source/portable/GCC/ARM_CM4F/port.o
 .comment       0x0000000000000050       0x51 ./Middlewares/Third_Party/FreeRTOS/Source/portable/MemMang/heap_4.o

.debug_frame    0x0000000000000000     0x6ac8
 .debug_frame   0x0000000000000000      0x1c0 ./Core/Src/File_Handling_RTOS.o
 .debug_frame   0x00000000000001c0      0x268 ./Core/Src/fatfs_sd.o
 .debug_frame   0x0000000000000428       0x38 ./Core/Src/freertos.o
 .debug_frame   0x0000000000000460      0x174 ./Core/Src/main.o
 .debug_frame   0x00000000000005d4       0xc4 ./Core/Src/stm32f4xx_hal_msp.o
 .debug_frame   0x0000000000000698       0x74 ./Core/Src/stm32f4xx_hal_timebase_tim.o
 .debug_frame   0x000000000000070c       0xec ./Core/Src/stm32f4xx_it.o
 .debug_frame   0x00000000000007f8       0x34 ./Core/Src/sysmem.o
 .debug_frame   0x000000000000082c       0x58 ./Core/Src/system_stm32f4xx.o
 .debug_frame   0x0000000000000884      0x374 ./Drivers/STM32F4xx_HAL_Driver/Src/stm32f4xx_hal.o
 .debug_frame   0x0000000000000bf8      0x498 ./Drivers/STM32F4xx_HAL_Driver/Src/stm32f4xx_hal_cortex.o
 .debug_frame   0x0000000000001090      0x14c ./Drivers/STM32F4xx_HAL_Driver/Src/stm32f4xx_hal_gpio.o
 .debug_frame   0x00000000000011dc      0x1f4 ./Drivers/STM32F4xx_HAL_Driver/Src/stm32f4xx_hal_rcc.o
 .debug_frame   0x00000000000013d0      0x1e8 ./Drivers/STM32F4xx_HAL_Driver/Src/stm32f4xx_hal_rcc_ex.o
 .debug_frame   0x00000000000015b8      0x824 ./Drivers/STM32F4xx_HAL_Driver/Src/stm32f4xx_hal_spi.o
 .debug_frame   0x0000000000001ddc     0x11c4 ./Drivers/STM32F4xx_HAL_Driver/Src/stm32f4xx_hal_tim.o
 .debug_frame   0x0000000000002fa0      0x638 ./Drivers/STM32F4xx_HAL_Driver/Src/stm32f4xx_hal_tim_ex.o
 .debug_frame   0x00000000000035d8      0x92c ./Drivers/STM32F4xx_HAL_Driver/Src/stm32f4xx_hal_uart.o
 .debug_frame   0x0000000000003f04       0x4c ./FATFS/App/fatfs.o
 .debug_frame   0x0000000000003f50       0xc4 ./FATFS/Target/user_diskio.o
 .debug_frame   0x0000000000004014       0xec ./Middlewares/Third_Party/FatFs/src/diskio.o
 .debug_frame   0x0000000000004100      0x994 ./Middlewares/Third_Party/FatFs/src/ff.o
 .debug_frame   0x0000000000004a94       0xc8 ./Middlewares/Third_Party/FatFs/src/ff_gen_drv.o
 .debug_frame   0x0000000000004b5c       0xa0 ./Middlewares/Third_Party/FatFs/src/option/syscall.o
 .debug_frame   0x0000000000004bfc      0x80c ./Middlewares/Third_Party/FreeRTOS/Source/CMSIS_RTOS/cmsis_os.o
 .debug_frame   0x0000000000005408       0xd8 ./Middlewares/Third_Party/FreeRTOS/Source/list.o
 .debug_frame   0x00000000000054e0      0x46c ./Middlewares/Third_Party/FreeRTOS/Source/queue.o
 .debug_frame   0x000000000000594c      0x77c ./Middlewares/Third_Party/FreeRTOS/Source/tasks.o
 .debug_frame   0x00000000000060c8      0x1a8 ./Middlewares/Third_Party/FreeRTOS/Source/portable/GCC/ARM_CM4F/port.o
 .debug_frame   0x0000000000006270      0x12c ./Middlewares/Third_Party/FreeRTOS/Source/portable/MemMang/heap_4.o
 .debug_frame   0x000000000000639c       0x20 e:/program files (x86)/stm32cubeide_1.10.0/stm32cubeide/plugins/com.st.stm32cube.ide.mcu.externaltools.gnu-tools-for-stm32.10.3-2021.10.win32_1.0.0.202111181127/tools/bin/../lib/gcc/arm-none-eabi/10.3.1/../../../../arm-none-eabi/lib/thumb/v7e-m+fp/hard\libc_nano.a(lib_a-errno.o)
 .debug_frame   0x00000000000063bc      0x14c e:/program files (x86)/stm32cubeide_1.10.0/stm32cubeide/plugins/com.st.stm32cube.ide.mcu.externaltools.gnu-tools-for-stm32.10.3-2021.10.win32_1.0.0.202111181127/tools/bin/../lib/gcc/arm-none-eabi/10.3.1/../../../../arm-none-eabi/lib/thumb/v7e-m+fp/hard\libc_nano.a(lib_a-findfp.o)
 .debug_frame   0x0000000000006508       0x2c e:/program files (x86)/stm32cubeide_1.10.0/stm32cubeide/plugins/com.st.stm32cube.ide.mcu.externaltools.gnu-tools-for-stm32.10.3-2021.10.win32_1.0.0.202111181127/tools/bin/../lib/gcc/arm-none-eabi/10.3.1/../../../../arm-none-eabi/lib/thumb/v7e-m+fp/hard\libc_nano.a(lib_a-init.o)
 .debug_frame   0x0000000000006534       0xb0 e:/program files (x86)/stm32cubeide_1.10.0/stm32cubeide/plugins/com.st.stm32cube.ide.mcu.externaltools.gnu-tools-for-stm32.10.3-2021.10.win32_1.0.0.202111181127/tools/bin/../lib/gcc/arm-none-eabi/10.3.1/../../../../arm-none-eabi/lib/thumb/v7e-m+fp/hard\libc_nano.a(lib_a-lock.o)
 .debug_frame   0x00000000000065e4       0x28 e:/program files (x86)/stm32cubeide_1.10.0/stm32cubeide/plugins/com.st.stm32cube.ide.mcu.externaltools.gnu-tools-for-stm32.10.3-2021.10.win32_1.0.0.202111181127/tools/bin/../lib/gcc/arm-none-eabi/10.3.1/../../../../arm-none-eabi/lib/thumb/v7e-m+fp/hard\libc_nano.a(lib_a-memcpy-stub.o)
 .debug_frame   0x000000000000660c       0x20 e:/program files (x86)/stm32cubeide_1.10.0/stm32cubeide/plugins/com.st.stm32cube.ide.mcu.externaltools.gnu-tools-for-stm32.10.3-2021.10.win32_1.0.0.202111181127/tools/bin/../lib/gcc/arm-none-eabi/10.3.1/../../../../arm-none-eabi/lib/thumb/v7e-m+fp/hard\libc_nano.a(lib_a-memset.o)
 .debug_frame   0x000000000000662c       0x4c e:/program files (x86)/stm32cubeide_1.10.0/stm32cubeide/plugins/com.st.stm32cube.ide.mcu.externaltools.gnu-tools-for-stm32.10.3-2021.10.win32_1.0.0.202111181127/tools/bin/../lib/gcc/arm-none-eabi/10.3.1/../../../../arm-none-eabi/lib/thumb/v7e-m+fp/hard\libc_nano.a(lib_a-nano-mallocr.o)
 .debug_frame   0x0000000000006678       0x5c e:/program files (x86)/stm32cubeide_1.10.0/stm32cubeide/plugins/com.st.stm32cube.ide.mcu.externaltools.gnu-tools-for-stm32.10.3-2021.10.win32_1.0.0.202111181127/tools/bin/../lib/gcc/arm-none-eabi/10.3.1/../../../../arm-none-eabi/lib/thumb/v7e-m+fp/hard\libc_nano.a(lib_a-reent.o)
 .debug_frame   0x00000000000066d4       0x2c e:/program files (x86)/stm32cubeide_1.10.0/stm32cubeide/plugins/com.st.stm32cube.ide.mcu.externaltools.gnu-tools-for-stm32.10.3-2021.10.win32_1.0.0.202111181127/tools/bin/../lib/gcc/arm-none-eabi/10.3.1/../../../../arm-none-eabi/lib/thumb/v7e-m+fp/hard\libc_nano.a(lib_a-sbrkr.o)
 .debug_frame   0x0000000000006700       0x6c e:/program files (x86)/stm32cubeide_1.10.0/stm32cubeide/plugins/com.st.stm32cube.ide.mcu.externaltools.gnu-tools-for-stm32.10.3-2021.10.win32_1.0.0.202111181127/tools/bin/../lib/gcc/arm-none-eabi/10.3.1/../../../../arm-none-eabi/lib/thumb/v7e-m+fp/hard\libc_nano.a(lib_a-sprintf.o)
 .debug_frame   0x000000000000676c       0x20 e:/program files (x86)/stm32cubeide_1.10.0/stm32cubeide/plugins/com.st.stm32cube.ide.mcu.externaltools.gnu-tools-for-stm32.10.3-2021.10.win32_1.0.0.202111181127/tools/bin/../lib/gcc/arm-none-eabi/10.3.1/../../../../arm-none-eabi/lib/thumb/v7e-m+fp/hard\libc_nano.a(lib_a-strcmp.o)
 .debug_frame   0x000000000000678c       0x30 e:/program files (x86)/stm32cubeide_1.10.0/stm32cubeide/plugins/com.st.stm32cube.ide.mcu.externaltools.gnu-tools-for-stm32.10.3-2021.10.win32_1.0.0.202111181127/tools/bin/../lib/gcc/arm-none-eabi/10.3.1/../../../../arm-none-eabi/lib/thumb/v7e-m+fp/hard\libc_nano.a(lib_a-mlock.o)
 .debug_frame   0x00000000000067bc       0x38 e:/program files (x86)/stm32cubeide_1.10.0/stm32cubeide/plugins/com.st.stm32cube.ide.mcu.externaltools.gnu-tools-for-stm32.10.3-2021.10.win32_1.0.0.202111181127/tools/bin/../lib/gcc/arm-none-eabi/10.3.1/../../../../arm-none-eabi/lib/thumb/v7e-m+fp/hard\libc_nano.a(lib_a-nano-freer.o)
 .debug_frame   0x00000000000067f4       0x90 e:/program files (x86)/stm32cubeide_1.10.0/stm32cubeide/plugins/com.st.stm32cube.ide.mcu.externaltools.gnu-tools-for-stm32.10.3-2021.10.win32_1.0.0.202111181127/tools/bin/../lib/gcc/arm-none-eabi/10.3.1/../../../../arm-none-eabi/lib/thumb/v7e-m+fp/hard\libc_nano.a(lib_a-nano-svfprintf.o)
 .debug_frame   0x0000000000006884       0x60 e:/program files (x86)/stm32cubeide_1.10.0/stm32cubeide/plugins/com.st.stm32cube.ide.mcu.externaltools.gnu-tools-for-stm32.10.3-2021.10.win32_1.0.0.202111181127/tools/bin/../lib/gcc/arm-none-eabi/10.3.1/../../../../arm-none-eabi/lib/thumb/v7e-m+fp/hard\libc_nano.a(lib_a-nano-vfprintf_i.o)
 .debug_frame   0x00000000000068e4       0x28 e:/program files (x86)/stm32cubeide_1.10.0/stm32cubeide/plugins/com.st.stm32cube.ide.mcu.externaltools.gnu-tools-for-stm32.10.3-2021.10.win32_1.0.0.202111181127/tools/bin/../lib/gcc/arm-none-eabi/10.3.1/../../../../arm-none-eabi/lib/thumb/v7e-m+fp/hard\libc_nano.a(lib_a-memmove.o)
 .debug_frame   0x000000000000690c       0x3c e:/program files (x86)/stm32cubeide_1.10.0/stm32cubeide/plugins/com.st.stm32cube.ide.mcu.externaltools.gnu-tools-for-stm32.10.3-2021.10.win32_1.0.0.202111181127/tools/bin/../lib/gcc/arm-none-eabi/10.3.1/../../../../arm-none-eabi/lib/thumb/v7e-m+fp/hard\libc_nano.a(lib_a-nano-reallocr.o)
 .debug_frame   0x0000000000006948       0x20 e:/program files (x86)/stm32cubeide_1.10.0/stm32cubeide/plugins/com.st.stm32cube.ide.mcu.externaltools.gnu-tools-for-stm32.10.3-2021.10.win32_1.0.0.202111181127/tools/bin/../lib/gcc/arm-none-eabi/10.3.1/../../../../arm-none-eabi/lib/thumb/v7e-m+fp/hard\libc_nano.a(lib_a-nano-msizer.o)
 .debug_frame   0x0000000000006968       0x30 e:/program files (x86)/stm32cubeide_1.10.0/stm32cubeide/plugins/com.st.stm32cube.ide.mcu.externaltools.gnu-tools-for-stm32.10.3-2021.10.win32_1.0.0.202111181127/tools/bin/../lib/gcc/arm-none-eabi/10.3.1/thumb/v7e-m+fp/hard\libgcc.a(_arm_muldf3.o)
 .debug_frame   0x0000000000006998       0xac e:/program files (x86)/stm32cubeide_1.10.0/stm32cubeide/plugins/com.st.stm32cube.ide.mcu.externaltools.gnu-tools-for-stm32.10.3-2021.10.win32_1.0.0.202111181127/tools/bin/../lib/gcc/arm-none-eabi/10.3.1/thumb/v7e-m+fp/hard\libgcc.a(_arm_addsubdf3.o)
 .debug_frame   0x0000000000006a44       0x24 e:/program files (x86)/stm32cubeide_1.10.0/stm32cubeide/plugins/com.st.stm32cube.ide.mcu.externaltools.gnu-tools-for-stm32.10.3-2021.10.win32_1.0.0.202111181127/tools/bin/../lib/gcc/arm-none-eabi/10.3.1/thumb/v7e-m+fp/hard\libgcc.a(_arm_fixunsdfsi.o)
 .debug_frame   0x0000000000006a68       0x2c e:/program files (x86)/stm32cubeide_1.10.0/stm32cubeide/plugins/com.st.stm32cube.ide.mcu.externaltools.gnu-tools-for-stm32.10.3-2021.10.win32_1.0.0.202111181127/tools/bin/../lib/gcc/arm-none-eabi/10.3.1/thumb/v7e-m+fp/hard\libgcc.a(_aeabi_uldivmod.o)
 .debug_frame   0x0000000000006a94       0x34 e:/program files (x86)/stm32cubeide_1.10.0/stm32cubeide/plugins/com.st.stm32cube.ide.mcu.externaltools.gnu-tools-for-stm32.10.3-2021.10.win32_1.0.0.202111181127/tools/bin/../lib/gcc/arm-none-eabi/10.3.1/thumb/v7e-m+fp/hard\libgcc.a(_udivmoddi4.o)
